:020000022000DC
:107000000000042075DA0300B5DA0300B7DA0300E4
:10701000B9DA0300BBDA0300BDDA030000000000A8
:10702000000000000000000000000000FDD8030088
:10703000C1DA0300000000001DD90300C5DA030017
:10704000C9DC0300C7DA0300C7DA0300853F030089
:1070500039400300C7DA03005DAD0300C7DA03005F
:10706000C7DA0300C7DA0300C7DA0300C7DA030090
:10707000C7DA0300C7DA0300C7DA0300C7DA030080
:10708000C7DA03004DD60300C7DA0300C7DA0300EE
:10709000C7DA0300C7DA0300CDC90200C7DA03006C
:1070A000C7DA0300C7DA0300C7DA0300C7DA030050
:1070B000C7DA0300C7DA0300000000000000000088
:1070C000C7DA0300C7DA0300C7DA0300DDE1030013
:1070D000C7DA0300C7DA0300C7DA030005DE0200DF
:1070E000C7DA0300C7DA0300C7DA030000000000B4
:1070F00000000000C7DA03000000000055E20300B2
:10710000000000000000000000000000000000007F
:10711000000000000000000000000000000000006F
:10712000000000000000000000000000000000005F
:10713000000000000000000000000000000000004F
:10714000000000000000000000000000000000003F
:10715000000000000000000000000000000000002F
:10716000000000000000000000000000000000001F
:10717000000000000000000000000000000000000F
:1071800000000000000000000000000000000000FF
:1071900000000000000000000000000000000000EF
:1071A00000000000000000000000000000000000DF
:1071B00000000000000000000000000000000000CF
:1071C00000000000000000000000000000000000BF
:1071D00000000000000000000000000000000000AF
:1071E000000000000000000000000000000000009F
:1071F000000000000000000000000000000000008F
:10720000F1EE103A43F08073E1EE103A704700BFA0
:1072100010B5054C237833B9044B13B10448AFF3D0
:1072200000800123237010BD88630020000000004F
:1072300084C3040008B5034B1BB103490348AFF3F3
:10724000008008BD000000008C63002084C304009F
:10725000154B002B08BF134B9D46A3F5803A002128
:107260008B460F461348144A121A1CF023FF0F4B8B
:10727000002B00D098470E4B002B00D098470020E1
:10728000002104000D000D48002802D00C48AFF387
:1072900000801CF09DFE2000290016F043FC1CF02D
:1072A00071FE00BF00000800000004200000000084
:1072B00000000000886300201CA2002000000000E5
:1072C0000000000033DF70473FDF704741DF704749
:1072D00012DF7047014B01221A7070473C66002094
:1072E00003B97047142B38B528BF1423114605463F
:1072F0001A4606481C461CF0B5FE054A0549064BD1
:10730000148001220D801A7038BD00BFA8630020D0
:10731000A463002004600020BC63002083B170B52A
:10732000013B084E12FA83F5541E14F8011F304633
:1073300013F0C0FEAC42F8D1034B01221A7070BDAD
:10734000704700BF0C670020186700202DE9F04748
:1073500084B0014601A813F05DFD1E4901A813F099
:10736000F7FE04461C4805F0FFFA28B901A813F0FF
:1073700045FE04B0BDE8F087184803F049F900283D
:10738000F4D026892768002EF0D0DFF850804FF027
:10739000000907E04C441FFA84F9022014F03AF87F
:1073A0004E45E3D9A6EB0904A4B2142C28BF14243B
:1073B00007EB090A082522465146404603F060F9CA
:1073C0000028E7D10220013D14F024F815F0FF0554
:1073D000F1D1DFE7C89F0400006800208C6700201F
:1073E0002DE9F04784B0014601A813F0F9FC1E4BCB
:1073F0001B782BB901A813F001FE04B0BDE8F0879B
:107400001A4805F0B1FA0028F4D0194803F000F941
:107410000028EFD0BDF80C60019F002EEAD0DFF805
:1074200050804FF0000907E04C441FFA84F9022015
:1074300013F0F0FF4E45DDD9A6EB0904A4B2142CDD
:1074400028BF142407EB090A082522465146404666
:1074500003F016F90028E7D10220013D13F0DAFF0E
:1074600015F0FF05F1D1DFE7106000200068002073
:107470008C6700202DE9F04784B0C1B201A813F059
:107480007FFD1E4B1B782BB901A813F0B7FD04B08C
:10749000BDE8F0871A4805F067FA0028F4D01948CB
:1074A00003F0B6F80028EFD0BDF80C60019F002E65
:1074B000EAD0DFF850804FF0000907E04C441FFA93
:1074C00084F9022013F0A6FF4E45DDD9A6EB09048E
:1074D000A4B2142C28BF142407EB090A082522465D
:1074E0005146404603F0CCF80028E7D10220013D88
:1074F00013F090FF15F0FF05F1D1DFE710600020D9
:10750000006800208C6700202DE9F04704461A48E7
:1075100005F02AFA08B9BDE8F087184803F078F8B2
:107520000028F8D026892768002EF4D0134D4FF09C
:10753000000807E044441FFA84F8022013F06AFFB1
:107540004645E8D9A6EB0804A4B2142C28BF14249D
:1075500007EB080A4FF0080922465146284603F077
:107560008FF80028E6D1022013F054FF09F1FF3311
:1075700013F0FF09F0D1DDE7006800208C670020E0
:1075800070B510EE100A10EE106A1BF0EBFF64A34A
:10759000D3E9002304460D461CF0C2FA002840F04F
:1075A0009C8061A3D3E90023204629461CF0B8FA49
:1075B000002840F096805EA3D3E9002320462946A8
:1075C0001CF0AEFA002840F08A805BA3D3E90023C8
:1075D000204629461CF0A4FA002840F0848007EEDB
:1075E000106AF1EE007AB4EEE77AF1EE10FA7CDA86
:1075F00053A3D3E90023204629461CF091FA002822
:1076000075D151A3D3E90023204629461CF088FAFE
:1076100000286ED14EA3D3E90023204629461CF052
:107620007FFA002869D14CA3D3E9002320462946DC
:107630001CF076FA002862D107EE106AF0EE0E7A9E
:10764000B4EEE77AF1EE10FA5BDA45A3D3E9002352
:10765000204629461CF064FA002854D142A3D3E9FD
:107660000023204629461CF05BFA00284DD140A398
:10767000D3E90023204629461CF052FA00283AD1CB
:107680003DA3D3E90023204629461CF049FA0028EF
:107690003DD107EE106AF0EE0C7AB4EEE77AF1EE27
:1076A00010FA36DA36A3D3E90023204629461CF027
:1076B00037FA80BB34A3D3E90023204629461CF0C7
:1076C0002FFA50BB32A3D3E90023204629461CF0F1
:1076D00027FA003818BF012070BD642070BD5A2001
:1076E00070BD5F2070BD552070BD502070BD46201C
:1076F00070BD3C2070BD0A2070BD322070BD2820B6
:1077000070BD1E2070BD142070BD0F2070BD0720FD
:1077100070BD052070BD032070BD022070BD00BF8C
:10772000CDCCCCCCCCCC10409A9999999999104059
:107730006666666666661040333333333333104013
:107740009A99999999990F403333333333330F40D2
:10775000CDCCCCCCCCCC0E406666666666660E4060
:107760009A99999999990D403333333333330D40B6
:10777000CDCCCCCCCCCC0C406666666666660C4044
:107780009A99999999990B403333333333330B409A
:107790006666666666660A40F0B52DED028B85B0BA
:1077A00013F02CFE3E4A136842F6DF61C31A8B4287
:1077B00003D805B0BDEC028BF0BD37A7D7E9006751
:1077C0009FED388A10600A24232017F0BBF81BF0C5
:1077D000B7FE32463B461BF01DFF1CF0B5F907EE25
:1077E000900A013C38EE278AEED1DFED2F8A2F4830
:1077F0002F4C68EE288AFFF7F3FDB0EE680A01A867
:10780000022113F0BDFB2378002B37D101A813F020
:10781000F5FBDFED287AB4EEE78AF1EE10FA23DA11
:107820009FED250A254DFFF7ABFE034624482B703C
:10783000FFF7D6FD29780A2201A813F005FB23786B
:1078400013B101A8FFF782FD01A813F0D7FB1D4873
:1078500002F0DEFE19490122A0B11A4802F010FF21
:1078600005B0BDEC028BF0BDB1EE010AF4EEC08AAA
:10787000F1EE10FA98BFB0EE680AD3E701A8FFF75F
:1078800065FDC3E70F4802F0A7FE05B0BDEC028B13
:10789000F0BD00BFAFF30080C64B378941605D3F4C
:1078A0004066002000000000CDCCCC3D688F040075
:1078B0001060002000000442333353400660002073
:1078C0007C8F0400CC6300202DE9F0477E4F7F4A77
:1078D0003B682DED028B002B84B00546106040F311
:1078E000C680DFF8348207EE903A98ED007AF8EE21
:1078F000E77A87EE278A7648764EFFF771FD39687A
:1079000001A80A2213F0D4FA337813B101A8FFF7C3
:10791000FBFD01A813F072FB6F48FFF761FD012129
:10792000B0EE480A01A813F02BFB337813B101A87D
:10793000FFF7EAFD01A813F061FB6848FFF750FD6F
:10794000674B022193ED000A01A813F019FB33786D
:1079500013B101A8FFF7D8FDDFF8C09101A813F01B
:107960004DFBD9F8004004B32C1B07EE904A9FED65
:107970005D7AF8EE677AF4EEC77AF1EE10FA66D522
:10798000DFED597ADFED598A9FED597A38EE088A92
:1079900028EE278AB4EEC78AF1EE10FA40F386800B
:1079A00000249FED548AA24604E09FED528AA2462D
:1079B000F0EE488A504BC9F800501A6802F10109EC
:1079C000C3F800904D4A0023A802A90D1CF00CF941
:1079D0004B49ADF80890034620224A48ADF80A30DA
:1079E0008DF806A08DF807400B80ADF8042002F05A
:1079F0000FFE002840D100234348C8F80030002380
:107A00003B60FFF7EDFCB0EE680A012101A813F01E
:107A1000B7FA337813B101A8FFF776FD01A813F088
:107A2000EDFA3A48FFF7DCFCB0EE480A012101A864
:107A300013F0A6FA337813B101A8FFF787FC01A869
:107A400013F0DCFA04B0BDEC028BBDE8F0879FEDCB
:107A5000307AC7EE278AB3EE097AF4EEC78AF1EEE0
:107A600010FA0FDA00249FED238AA246A2E79FEDC9
:107A7000218ADFF8A4803EE7082201A9214802F00C
:107A8000FFFDB8E79FED237A67EE877A17EE900A3D
:107A90001BF068FD02460B4609A1D1E900011BF06D
:107AA000E3FE1CF051F807EE900A6DE7FDEEC87A90
:107AB00017EE904A5FFA84FAC4F307247AE700BF0E
:107AC000182D4454FB211940086700204C66002003
:107AD000948F040010600020A88F0400B88F040069
:107AE0004866002000504348D153FB4100009643B4
:107AF0000000FA4400000000AC65002040420F0086
:107B00004466002054650020C08F0400CC8F040020
:107B1000C0E1644CBD378635A06600207C6600203D
:107B200030B5214C83B0002520462571A5732573FF
:107B30000CF086FC4FF47A7013F06CFC20460CF0CD
:107B40004DFD2A4620465C210CF048FC20460822C8
:107B50005B210CF043FC2046802258210CF03EFCB7
:107B60007022102120460CF039FC042013F052FC46
:107B70001022114620460CF031FC2046102215211F
:107B80000CF02CFC204620225E210CF027FC1B224E
:107B90000DF1070120460CF081FC0521122016F0A2
:107BA000FFFE03B030BD00BF5066002000B5424864
:107BB00085B002F047F80021404804F0ABFE0020F9
:107BC000FFF782FB0121032016F06EFF01210C203C
:107BD00016F0E6FE01210C2016F066FF01210B20B5
:107BE00016F0DEFE01210B2016F05EFF01210D20B4
:107BF00016F0D6FE01210D2016F056FF00230D22AF
:107C00000DF102012E488DF802300CF047FC9DF872
:107C100002202B4802F0F7020D218DF802200CF013
:107C2000DDFB122013F040F8FFF77AFF1B220DF165
:107C3000030123480CF032FC0A2013F0EBFB032174
:107C4000122016F0ADFE322013F0E4FB1D4B1E494E
:107C50009B6C1F2B88BF03F01F0303F5E0738CBFE1
:107C60001A4A4FF0A042322042F8231013F0D2FB00
:107C7000174901A813F0B4F8164B1B7813B101A8EB
:107C8000FFF764FB01A813F0B9F9002301A88DF8F0
:107C90000430FFF71DFB9DF804303BB94FF08043E3
:107CA0000122C3F8002505B05DF804FBFFF70AFBCD
:107CB00005B05DF804FB00BF406E002000680020A6
:107CC000506600203C9D04000400020000030050A8
:107CD000DC8F0400106000203D4B3E4AD3ED007A5B
:107CE00013689FED3D6A9FED3D7A1060C31A06EE62
:107CF000903A70EE677AF8EE666A67EE867A384BED
:107D000067EEA67AB0EEE76AB4EEC76AF1EE10FA53
:107D10002DDAD3ED007A9FED336AF4EEC67AF1EEF8
:107D200010FA34DA9FED307AF4EEC77AF1EE10FAF9
:107D300001D9002070472D492D4AD1ED005A77EE28
:107D4000867A07EE100A75EEE74AB7EE005A84EE1F
:107D5000A56A0120C3ED007AB8EE477A76EE457A3F
:107D6000A6EEA77AFCEEC77AC2ED007A704793EDD3
:107D7000007A1E4A9FED1B6AC2ED007A77EE877A81
:107D8000F4EEC67AF1EE10FAC3ED007ACADB1749B9
:107D9000174AD1ED004A34EE865A07EE100A35EE46
:107DA000675AB8EE477AC5EE245A012077EEC67AB4
:107DB000B7EE004A35EEC46AC3ED007AF0EE477ABA
:107DC000E6EE867AFCEEE77AC2ED007A704700BFF5
:107DD000D4650020C4630020BD3786350AD7233C14
:107DE000C86300200000B4430000B4C3C063002097
:107DF000806600202DE9F0477D4CDFF81C92DFF80B
:107E00001CA27C4F7C4EDFF818827C4D9CB0002277
:107E10002046012104F072FB2046012104F07AFD86
:107E20002046002104F028FD2046754904F0FCFCA2
:107E30000C222046062103F049F92046002103F0D8
:107E40004FF94FF4C871204603F052F9484604F048
:107E50002FF85046102102F093FB002250461121CA
:107E600002F0A6FB5046082102F090FB504602F0BB
:107E700005F83846022102F083FB00223846112122
:107E800002F096FB3846042102F080FB384601F0F0
:107E9000F5FF042241F208230DEB0201384601935D
:107EA00002F09AFB3046282102F06AFB11221146AB
:107EB000304602F07DFB3046142102F065FB0122C2
:107EC0005049514F304602F079FB304601F0D6FF61
:107ED00002A842F65D2104F02FF802A906A802F0DC
:107EE00019FB02A804F020F806A8022102F048FBC2
:107EF00006A8012102F04AFB06A801F0BFFF0523F6
:107F000001220DF1030106A88DF8033002F064FB95
:107F1000404603F0CDFF2846122102F031FB00223B
:107F20002846112102F044FB2846012102F02EFBD5
:107F3000284601F0A3FF642302A9012228468DF8F8
:107F4000083002F049FB3148314D03F0B1FF3846AB
:107F5000102102F015FB00223846112102F028FB07
:107F60003846142102F010FB384601F087FF2846FE
:107F70000C2102F005FB11221146284602F018FBE5
:107F80002846142102F000FB01222249284602F073
:107F900015FB04F5C864284601F070FF0621204651
:107FA00001F058FD204601F03DFD204601F00CFD9A
:107FB0004946204601F0F2FC4146204601F0EEFC25
:107FC0002046012101F078FDF4222046202101F015
:107FD0006FFD20461E2101F069FD0021204601F0C1
:107FE000CBFD06A801F030FF1CB0BDE8F08700BF54
:107FF00000680020FC640020A4640020CC63002002
:10800000F48F0400E17202008C6700207467002086
:108010001C6700201D730200B0650020546500201D
:108020002464002010B5044B044640F8083B03F0DC
:108030007BFF204610BD00BFD09604002DE9F04123
:1080400065496648664D674CDFF8E881664E674FC4
:1080500084B00CF03BFF604965480CF037FF5E4987
:1080600064480CF033FF6A22002163480CF08AF95F
:1080700028460CF07DF82246604928461BF008F996
:10808000684641F6180103F057FF6946404603F081
:108090002BFF684603F048FF2246314640461BF05E
:1080A000F7F8684642F66321554DDFF88C8103F0FE
:1080B00043FF6946384602F02DFA684603F034FF64
:1080C0002246294638464F4F1BF0E2F8684642F6F2
:1080D000652103F031FF6946384602F01BFA684615
:1080E00003F022FF224629463846474F1BF0D0F8BE
:1080F000684642F6662103F01FFF6946384602F0E3
:1081000009FA684603F010FF2246294638463F4FD9
:108110001BF0BEF8684641F60F0103F00DFF6946FB
:10812000384603F0E1FE684603F0FEFE2246314683
:108130003846374F1BF0ACF8684642F6192103F079
:10814000FBFE6946384602F0E5F9684603F0ECFEAE
:108150002246294638462F4F1BF09AF82E4968468A
:1081600003F0F8FE6946384603F0BEFE684603F0A9
:10817000DBFE2246314638461BF08AF82749284F55
:10818000284E684603F0E6FE6946404602F0C2F912
:10819000684603F0C9FE2246294640461BF078F89F
:1081A0002149684603F0D6FE6946384602F0B2F926
:1081B000684603F0B9FE2246294638461BF068F8A7
:1081C0001A49304612F00CFE1949224630461BF07F
:1081D0005FF804B0BDE8F081A08600203C64002078
:1081E0008466002000600020258002005465002085
:1081F000A4660020D8650020506600209541030049
:10820000499E0200FC640020A46400202464002035
:10821000CC63002074670020049004002C900400BC
:108220001C6700200C67002054900400E89F0400A5
:10823000FDAF0300B06500208C67002010B5A0B032
:10824000214907A80CF042FE20491F480CF030FDE0
:108250001E4907A801220CF0E7FEE8B11C4B0A22D8
:10826000198801A812F024FE039A019907A80CF0BE
:1082700039FD04AC07A80CF091FF1649204612F016
:10828000AFFD154B1B78DBB9204612F0B7FE01A8F5
:1082900012F0B4FE20B010BD04AC1049204612F01C
:1082A0009FFD0D4B1B7823B9204612F0A7FE20B08E
:1082B00010BD2046FFF74AF8204612F09FFEF6E771
:1082C0002046FFF743F8DFE7A0860020B0900400C7
:1082D00008600020C490040010600020E0900400BA
:1082E00010B5A0B0214907A80CF0F0FD20491F48A7
:1082F0000CF0DEFC1E4907A801220CF095FEE8B147
:108300001C4B0A22196801A812F006FE039A019973
:1083100007A80CF0E7FC04AC07A80CF03FFF1649D7
:10832000204612F05DFD154B1B78DBB9204612F09C
:1083300065FE01A812F062FE20B010BD04AC104929
:10834000204612F04DFD0D4B1B7823B9204612F04C
:1083500055FE20B010BD2046FEF7F8FF204612F073
:108360004DFEF6E72046FEF7F1FFDFE7A08600208E
:108370000C910400C86500202491040010600020C6
:108380004C9104002DE9F04FC448DFB012F038F9E9
:10839000C24913A80CF09AFDC14913A800220CF0A1
:1083A00043FE13A80CF026FF002840F05F82BD4E6C
:1083B0000123337045ACBC49BC4800220CF034FEAC
:1083C000BA480CF017FF002800F0B78000251F22E4
:1083D0002146B6484795CDE94555CDE94855CDE903
:1083E0004A554C950CF064FE5EAB0344204603F8FE
:1083F000645C1BF0A7FD51EC100B1BF0A5FBAC4D12
:1084000003462CAFAB482B60FEF7EAFF95ED000A60
:108410003846062112F0B4FD3378002B40F0B381CA
:10842000384612F0EBFDA1480CF0B8FEA249A34873
:1084300000220CF0F9FDA1480CF0DCFE804600287B
:108440006BD000251F2221469C484795CDE9455514
:10845000CDE94855CDE94A554C950CF029FE5EAB67
:108460000344204603F8645C1BF073FDDFF8909230
:1084700003469348C9F80030FEF7B2FFD9F8001060
:108480000A22384612F048FD3378002B40F07F81F5
:10849000384612F0B3FD89480CF080FE7F4938461B
:1084A0000CF014FD8749002238460CF0BDFD38461B
:1084B0000CF0A0FE002850D000251F22214638468F
:1084C000CDE94555CDE94855CDE94A5547954C95F7
:1084D0000CF0EEFD5EAB0344204603F8645C1BF039
:1084E00034FD83B2002B40F0158103AD7649284658
:1084F00012F076FC337813B12846FEF727FF2846A2
:1085000012F07CFD7149724B724A1A6040F25910A8
:10851000088038460CF042FE31E0DFF8E4916E4905
:10852000C9F80000204612F05BFC3378002B40F0C5
:10853000AE80204612F062FDB0E75D4B6749002235
:1085400020461A6012F04CFC3378002B40F09780E4
:10855000204612F053FD2CAF68E75C495C4B5D4A46
:108560001A6040F2591008805D49204612F038FC2C
:108570003378002B7FD1204612F040FD03AD4749F0
:1085800020460CF0A3FC5749002220460CF04CFD7D
:1085900020460CF02FFE0346002800F0378100270C
:1085A00029461F222046CDE90577CDE90777CDE999
:1085B000097704972F600CF07BFD03462846EF54A3
:1085C0001BF0C7FCDFF83C81474B0246C8F800208F
:1085D000464801226F461A70FEF702FFD8F80010D5
:1085E00038460A2212F098FC3378002B40F0D380F2
:1085F000384612F003FD20460CF0D0FD3C493D48C2
:1086000000220CF011FD3B480CF0F4FD002800F0B6
:10861000E980002421463C2204A82C601BF04AFD7E
:108620003F2229463348DFF8E080DFF8E0900CF085
:108630003FFD02463049AC54284643464A461CF0AA
:10864000E7FB022800F0AB806F4600232B49C9F8F6
:1086500000303846C8F8003012F0C2FB3378002BE7
:1086600040F0BC80384612F0C9FC22480CF096FD60
:108670005FB0BDE8F08F2046FEF768FE7BE720463E
:10868000FEF764FE204612F0B9FC2CAFCEE6204681
:10869000FEF75CFE204612F0B1FCFFE6A08600204B
:1086A0007491040010600020849104003C64002058
:1086B00014600020989104007C900400A4660020BF
:1086C000D8910400B09004002092040008600020BB
:1086D0000C600020D7A3303EE8910400B091040064
:1086E000549204000C910400CC6500208892040090
:1086F000FC920400D86500200C9304003093040021
:10870000E4670020C8650020D4650020D065002003
:108710006F12033A07EE903A1FED037ADFF8C4B107
:10872000DFF8C4A16248AAF80030F8EE677A03AD1A
:1087300067EE877ACBED007AFEF752FE9BED000ADA
:108740002846042112F01CFC3378002B40F0A7804F
:10875000284612F053FC5748FEF742FEBAF80030A4
:1087600000EE103A0120BBEEEF0AFEF783FE5249FD
:10877000284612F035FB3378002B40F094802846D1
:1087800012F03CFCC5E63846FEF7E0FD48E6384608
:10879000FEF7DCFD7CE63846FEF7D8FD28E74748C3
:1087A0006F46FEF71DFE99ED000A3846062112F0CD
:1087B000E7FB337813B13846FEF7A6FE384612F0D1
:1087C0001DFC3F48FEF70CFE98ED000A06213846D6
:1087D00012F0D6FB3378002B3FF444AF3846FEF757
:1087E000B5FD3FE73748384A38490023036028463B
:1087F000136012F0F5FA337813B12846FEF7A6FDA0
:10880000284612F0FBFB5FB0BDE8F08F304F314CD3
:10881000386031492370284612F0E2FA337813B1F8
:108820002846FEF793FD284612F0E8FBB8F1000F4A
:108830003FF4E4AE2378002B7FF4E0AED9F80030AB
:1088400026483B6001232370FEF7CAFD39680A22DF
:10885000284612F061FB337813B12846FEF776FD07
:10886000284612F0CBFBFFF73BFDC7E645AC0025E1
:108870002146072213A8CDE945550CF019FC5EAB43
:108880000344204603F8645C1BF05FFB144E431B5B
:1088900018BF012313A833700CF080FC8BE5284629
:1088A000FEF754FD54E72846FEF750FD67E700BF8A
:1088B000FC900400049204001C9204001493040031
:1088C0002C930400D0650020D4650020549304004C
:1088D000C8650020CC650020AC920400D49204004E
:1088E000106000200C6000200860002030B5564C5D
:1088F000564987B003A812F073FA237813B103A87E
:10890000FEF724FD03A812F079FB51480BF032FA70
:108910000C2015F0E1FF032015F0E4FF01211620E3
:1089200016F03EF80021162016F0BEF801210E20A8
:1089300016F036F800210E2016F0B6F8002123209C
:1089400016F02EF80121032016F02AF8002103204A
:1089500016F0AAF80221084616F022F80123032295
:1089600002213C48009300230BF016FC4B2012F030
:1089700051FD39490322022012F092F84FF47A7027
:1089800012F048FD354903A812F02AFA237813B1F2
:1089900003A8FEF7DBFC03A812F030FB30480023ED
:1089A00001228381C3828373037683778383027179
:1089B0000BF014FE05462B48FEF712FD29460A224D
:1089C00003A812F075FA237813B103A8FEF7BEFCD2
:1089D00003A812F013FB4DB1234903A812F000FACB
:1089E000237853BB03A812F009FBFEE7FFF7CAFC8C
:1089F000FFF700FA1D4BDB68D90117D413F022FFF3
:108A00001B4BA0FB0301830A43EA8153194A1A490D
:108A1000136003A812F0E4F9237813B103A8FEF75A
:108A200095FC03A812F0EAFA07B030BD134B1A68A0
:108A3000D207E3D55B689B09E8E703A8FEF786FC4D
:108A400003A812F0DBFAD0E710600020789304004E
:108A50002885002084660020D572020094930400CB
:108A600050660020A4930400B8930400F0ED00E0E9
:108A700040420F004C660020CC930400001000E040
:108A800030B5324932488DB00CF012F92F493148D7
:108A900001220CF0C9FA00283FD02F4B062193ED9C
:108AA000000A06A812F06CFA06A903A812F0B2F99F
:108AB0002A4903A812F04CFB294B09AC93ED000A9C
:108AC00005460621204612F05BFA2146284612F0A0
:108AD00013FB0146684612F09DF9204612F08EFA0B
:108AE00003A812F08BFA06A812F088FA029A0099ED
:108AF00018480CF0F7F817480CF050FB19492046BD
:108B000012F06EF9184B1B78DBB9204612F076FA9A
:108B1000684612F073FA0DB030BD09AC1349204617
:108B200012F05EF9104B1B7823B9204612F066FA5A
:108B30000DB030BD2046FEF709FC204612F05EFA6B
:108B4000F6E72046FEF702FCDFE700BFFC920400D8
:108B5000A0860020D8650020D0650020E4910400A4
:108B6000D465002064940400106000208094040008
:108B700070B52DED028B2D4E2D4984B001A812F059
:108B80002FF9337813B101A8FEF7E0FB01A812F02A
:108B900035FA4FF47A709FED278A274D12F03AFC90
:108BA000F0EE488AC82428460BF002FF284678EEEB
:108BB000808A0BF049FF052038EE008A12F02AFC6B
:108BC000013CF0D1DFED1D7A1D4D1E4C1E4868EEB4
:108BD000A78A28EE278AC5ED008A84ED008AFEF771
:108BE000FFFB95ED000A062101A812F0C9F93378C0
:108BF00013B101A8FEF7AAFB01A812F0FFF9134870
:108C0000FEF7EEFB94ED000A062101A812F0B8F978
:108C1000337813B101A8FEF799FB01A812F0EEF921
:108C2000FFF72EFF04B0BDEC028B70BD106000207A
:108C30009C94040000000000506600200AD7A33B6B
:108C4000D0650020D4650020B8940400CC940400C2
:108C50002DE9F043534E544987B0074603A812F05C
:108C6000BFF8337813B103A8FEF770FB03A812F026
:108C7000C5F94FF47A7012F0CDFB12F0BFFB00245F
:108C8000DFF850918046254603E00BF0B7FA002844
:108C900045D112F0B3FBA0EB0803B3F57A6F484659
:108CA000F3D3002C4BD1414D41482C60FEF798FB8B
:108CB00029680A2203A812F02FF9337813B103A808
:108CC000FEF744FB03A812F099F93A493A480BF031
:108CD000EFFF3849394801220CF0A6F990B3296812
:108CE0000A22684612F018F9029A009933480BF0EC
:108CF000F9FF32480CF052FA314903A812F070F82B
:108D0000337813B103A8FEF721FB03A812F076F91C
:108D1000684612F073F91FBB07B0BDE8F083484600
:108D20000BF074FA07EE905AF8EEE77A013437EE5A
:108D3000800AC82CFDEEC07A17EE905AA9D195FB97
:108D4000F4F4B0E71F4903A812F04AF8337813B1DE
:108D500003A8FEF7FBFA03A812F050F9002FDBD0AE
:108D6000194C1A4B2A681A48226001221A70FEF721
:108D700037FB21680A2203A812F0CEF833783BB9FA
:108D800003A812F03BF9FFF7ABFA07B0BDE8F08398
:108D900003A8FEF7DBFA03A812F030F9FFF7A0FAF8
:108DA000F3E700BF10600020E4940400E4670020B3
:108DB000049504007C900400A0860020A466002096
:108DC000889004009C900400C8650020CC650020B9
:108DD00018950400846600202DE9F043264E85B0E6
:108DE000002001243470FFF733FFFFF7C1FE234B4F
:108DF0001A781AB3224FDFF89490DFF8948001AD0F
:108E00003968D9F800401F48641A04F30F04FEF7CC
:108E1000E7FA21460A22284612F04AF898F800306C
:108E200024B213B12846FEF791FA284612F0E6F86C
:108E300000232046337005B0BDE8F083DFF84C9086
:108E40000F4FD9F800201048DFF844801C7001ADA6
:108E50003A60FEF7C5FA396828460A2212F05CF833
:108E600098F8003013B12846FEF770FA284612F041
:108E7000C5F8FFF735FAC3E7A0640020CC650020F1
:108E8000C865002038950400D4920400E4670020EF
:108E9000106000202DE9F0432DED028B864D8749AF
:108EA00087B003A8B0EE408A11F09AFF2B7813B177
:108EB00003A8FEF74BFA03A812F0A0F812F09EFAEE
:108EC0000024DFF838820746264641F2873904E05D
:108ED0000BF094F9002840F0AD8012F08FFAC31B1C
:108EE0004B454046F4D9002C40F0B5809FED740A04
:108EF000744F28EE008A3E68B5EEC08AF1EE10FA93
:108F0000A4EB060640F2AA80002E00F0A78007EE30
:108F1000906AF8EEE77ADFF8E8816B4887EE887AA6
:108F200088ED007AFEF75CFA21460A2203A811F0C8
:108F3000F3FF2B7813B103A8FEF708FA03A812F089
:108F40005DF86248FEF74CFA39680A2203A811F06E
:108F5000E3FF2B7813B103A8FEF7F8F903A812F08A
:108F60004DF85B48FEF73CFA31460A2203A811F09F
:108F7000D3FF2B7813B103A8FEF7E8F903A812F08A
:108F80003DF85448FEF72CFAB0EE480A062103A833
:108F900011F0F6FF2B7813B103A8FEF7D7F903A859
:108FA00012F02CF84C48FEF71BFA98ED000A062147
:108FB00003A811F0E5FF2B7813B103A8FEF7C6F95B
:108FC00003A812F01BF8454903A811F009FF2B78FC
:108FD00013B103A8FEF7BAF903A812F00FF840493D
:108FE00040480BF065FE3E493F4801220CF01CF85A
:108FF000002847D098ED000A0621684611F0C0FF0E
:10900000029A009938480BF06DFE37480CF0C6F80C
:10901000364903A811F0E4FE2B78002B47D103A8B2
:1090200011F0ECFF684611F0E9FF07B0BDEC028BD0
:10903000BDE8F08340460BF0E9F807EE906AF8EEE1
:10904000E77A013437EE800AC82CFDEEC07A17EEBD
:10905000906A7FF442AF96FBF4F447E7244903A8F3
:1090600011F0BEFE2B7813B103A8FEF76FF903A829
:1090700011F0C4FF1F4B00221A7007B0BDEC028B29
:10908000BDE8F0831C4903A811F0AAFE2B783BB978
:1090900003A811F0B3FF07B0BDEC028BBDE8F0836D
:1090A00003A8FEF753F903A811F0A8FFF3E703A8FC
:1090B000FEF74CF9B3E700BF1060002050950400A4
:1090C0000AE81C41E4670020909504000495040020
:1090D000A0950400B0950400BC950400D895040048
:1090E00084910400A08600203C6400202C9404009D
:1090F0006C950400A064002048940400846600205D
:109100001460002070B5AA4CA0B0054612F024F9F6
:10911000A848FEF765F9237813B12846FEF716F93B
:10912000A54907A811F05CFE07A9284612F040F8EF
:10913000064607A811F062FF002E4ED09F4907A8EF
:1091400011F04EFE2378002B40F0E08007A811F0CC
:1091500055FF9B4907A811F043FE2378002B40F0F0
:10916000D18007A811F04AFF964907A811F038FEF0
:109170002378002B40F0C28007A811F03FFF9249EE
:1091800007A811F02DFE2378002B40F0B38007A82C
:1091900011F034FF8D4907A811F022FE2378002B2F
:1091A00040F0A48007A811F029FF894907A811F011
:1091B00017FE2378002B40F0958007A811F01EFFC2
:1091C000844907A811F00CFE2378002B40F086801C
:1091D00007A811F013FF20B070BD7F4907A811F058
:1091E000FFFD07A9284611F0E3FF064607A811F086
:1091F00005FF002E3AD02378784983F0010307A8B1
:1092000023700BF063FE764974480BF051FD7449EE
:10921000012207A80BF008FF002840F08180714967
:1092200007A811F0DDFD04A807A911F0F3FD2378CC
:10923000002B40F090806C4904A811F089FF01AC2C
:109240000146204611F0E6FD04A811F0D7FE07A85C
:1092500011F0D4FE6549204611F002FF2046FEF7CA
:1092600053F9204611F0CAFE20B070BD604907A82E
:1092700011F0B6FD07A9284611F09AFF064607A887
:1092800011F0BCFE002E45D15A4907A811F0A8FDE7
:1092900007A9284611F08CFF064607A811F0AEFE7C
:1092A000002E5AD00120FFF7D3FCFFF761FC524893
:1092B000FEF796F8514B1A78002A00F0D780504DEF
:1092C000504E2B683168C91A01F30F010A2207A812
:1092D00011F0EEFD2378002B3FF47AAF07A8FEF7DC
:1092E00035F875E707A8FEF731F866E707A8FEF737
:1092F0002DF857E707A8FEF729F848E707A8FEF773
:1093000025F839E707A8FEF721F82AE707A8FEF7AE
:109310001DF81BE7B2EE040AFFF7BCFD20B070BDDC
:10932000394B2178394A07A8002914BF114619463C
:1093300001220BF0D7FC07A80BF030FF294907A842
:1093400011F04EFD04A807A911F064FD2378002B4D
:1093500062D02F4961E02E496EE72E4907A811F02F
:109360003FFD07A9284611F045FF064607A811F062
:1093700045FE002E61D0AB682946012204A811F0F9
:109380005DFF04A811F0E8FF04A82E222C2111F0A3
:1093900083FF04A812F00AF8B5EEC00AF1EE10FA45
:1093A0007DDDFFF777FD04A811F028FE13E700BF6D
:1093B000106000201096040028960400EC8E040033
:1093C000F88E04000C8F0400208F0400348F0400FA
:1093D000488F0400588F04002C960400A0860020BB
:1093E000749104003096040074960400F49504000F
:1093F0003C960400709A040038950400CC65002067
:10940000C8650020E4670020B09B0400E0940400DD
:109410007096040050920400304904A811F098FEA0
:1094200001AC0146204611F0F5FC04A811F0E6FD60
:1094300007A811F0E3FD2A490DE72A4907A811F012
:10944000CFFC07A9284611F0B3FE064607A811F085
:10945000D5FD002E30D12448FDF7C2FF2378002B24
:109460003FF4B9AE2846FDF771FFB4E61F4E204D1C
:10947000326820482A6001221A70FDF7B1FF29687E
:109480000A2207A811F048FD237813B107A8FDF7B9
:109490005DFF07A811F0B2FDFEF722FF11E71649A4
:1094A00007A811F09DFC237813B107A8FDF74EFF24
:1094B00007A811F0A3FD76E74FF08043A822C3F878
:1094C0001C25BFF34F8F0D490D4BCA6802F4E062B3
:1094D0001343CB60BFF34F8F00BFFDE774960400CA
:1094E000049604005496040058960400E467002093
:1094F000C8650020D49204004096040000ED00E00E
:109500000400FA0570B51B4E1B48012386B00A21E2
:10951000337011F083FE041E1FDB174D234600221B
:109520002946684611F08AFE621C0021284611F087
:10953000C5FE694603A811F06DFC03A8FFF7E2FD24
:1095400003A811F05BFD0A21284611F067FE0446CE
:10955000684611F053FD002CE0DA00230A2106488A
:10956000337011F05BFE054BC043C00F187006B09E
:1095700070BD00BFA06400200C67002018670020A9
:10958000F0B5B74B2DED028B1B7885B00BB1FFF713
:10959000B9FFB44B1A7822B3B34AB44914780D8892
:1095A000042C4FF00001197045D0032C00F02B81E2
:1095B000052C00F039810C2C00F0078120220223B9
:1095C000AB488DF8054029468DF804208DF806300B
:1095D00001F068F828B1A6482946032301AA01F042
:1095E00091F8A44B1A78002A67D1A34BDB68D90104
:1095F00003D5A24B1A68D2071AD413F023F9A04B53
:10960000A0FB0301830A43EA81539E499E4A0968ED
:109610005B1A934204D99D4B1B78002B00F0C48049
:10962000FEF7BAF8FDF752FE05B0BDEC028BF0BDB7
:109630005B689B09E9E7964B1B88022B40F24E8141
:10964000907853788DF802104FF4846253EA002327
:10965000ADF8002000F0D58007EE903A9FED8D7AAE
:109660008D4A8E4F8E481380F8EE677A01AE67EE12
:10967000877AC7ED007AFDF7B3FE97ED000A214621
:10968000304611F07DFC874B1B78002B40F03B816E
:10969000304611F0B3FCFEF7D1FD012374488DF87C
:1096A0000230294600F0FEFF00289AD02946032305
:1096B0006A466F4801F026F893E700227A481A704C
:1096C0000AF0A4FD6C4BDB68DC01B0EE408A06D5E5
:1096D0006A4B1A68D00702D55C68A40907E013F04A
:1096E000B1F8674BA0FB0301840A44EA81546F4838
:1096F0000BF0AAF96E4BDFED6F7A93ED007AF0EE86
:10970000C76AF4EEE76AF1EE10FAF0EE408A3BDD4C
:10971000624A694BD2ED006A1B686849BDEEC88A8F
:10972000D1ED007A18EE102AD31A08EE103A70EE36
:10973000677AB8EEC88A17EE900AC8EE077A27EE65
:10974000A68A19F00FFF44A3D3E9002319F062FFA2
:109750001AF0FAF978EE087A06EE900A66EEA77A21
:109760009FED577AF0EEE77AF4EEC77AF1EE10FA51
:109770000AD85449544AD1ED007A136837EE888AE2
:10978000013381ED008A1360504B2046B0EE680A29
:10979000C3ED008AFEF7A0FA00283FF426AF4C4B39
:1097A0001868FEF791F820E701AE4A49304611F0FB
:1097B00017FB3C4B1B7813B13046FDF7C7FD304615
:1097C00011F01CFCFEF7F2F92AE7FFF705FB4FF456
:1097D0004262041201238DF80700294624488DF8BF
:1097E0000840ADF804208DF8063000F05BFF00283B
:1097F0003FF4F7AE2946052301AA1D4800F082FF79
:10980000EFE603234AE7344B19480193294600F059
:1098100049FF00283FF4E5AE042329460DEB03027F
:10982000134800F06FFFDCE61B4B11481B888DF8D6
:1098300007304FF4A4661B0A012229468DF8083030
:10984000ADF804608DF8062000F02CFF00283FF4EE
:10985000C8AE51E0AFF30080399D52A246DF913F80
:1098600018670020BC630020A8630020046000206B
:10987000A46400203C660020F0ED00E0001000E051
:1098800040420F004C66002000879303A064002034
:10989000A46300206F12033A086000200C600020CF
:1098A000FC900400106000208466002050660020B8
:1098B00014600020BD378635E4670020D4650020A1
:1098C0000000FA44A06600200867002048660020D7
:1098D0008066002078960400200301054FF484631D
:1098E00003240B48ADF8043029468DF8064000F0FB
:1098F000D9FE00283FF475AE2346294601AA044844
:1099000000F000FF6DE63046FDF720FDC0E600BF29
:10991000A464002072DF704773DF704774DF704704
:1099200077DF704738B5054608460C4602F032FB33
:10993000102803D080280ED0012038BDEB7FA288EC
:109940001B2B0EDCE9180320E85448704A80EB7F9B
:109950000433EB77F0E7A368002BEDD0E97F0D2906
:1099600001DD002038BD6A181120685407215170AC
:1099700058681C689968DB68C2F80E30C2F80600A7
:10998000C2F80240C2F80A10EB7F1233EB770120D5
:1099900038BD00BF0022C2770270704730B5D1E9F0
:1099A000042485B0CD68074B00936946CDE90224B5
:1099B0000195FFF7B7FF0446684602F0B5FA204666
:1099C00005B030BDE8960400F0B589B00646202207
:1099D0001348694602F03CFFF37FC2181D2A0CDDD4
:1099E000C3F11D04E4B2E2181D2A4FF00005D8BFF0
:1099F000082705DD284609B0F0BD044601250927E2
:109A0000F218601CF05469465770901C22461AF0F8
:109A100029FBF27F023214442846F47709B0F0BDE6
:109A20000068002010B50446094802F06FFFE37F8C
:109A30001C2B01DD002010BDE2180221E1540A2395
:109A400090705370E37F0333E377012010BD00BFB4
:109A500000680020C27F1C2A01DD0020704710B47E
:109A600003469C18022098540120A1706070DA7F90
:109A70000332DA775DF8044B704700BF10B4084A30
:109A8000084C094902620022C0E90A41C0E90C22DF
:109A90005DF8044B0270C27742628263704700BF78
:109AA000FF0101002000F40020001E00C185704766
:109AB000018581854285704780F82210704700BF7C
:109AC000F0B5154605EB8503274A89B0044603EB3C
:109AD000830300200E469B0011680290CDE90460CC
:109AE000ADF8143094F821308DF80830CB07CDE96B
:109AF0000600039009D41D491D4BC87FE77F98815C
:109B000001201C6099609F801060194902AA04F12D
:109B10002000FFF7FFFE10B1002009B0F0BD94F85F
:109B200020101448019102F0F1FE01990246012033
:109B3000FFF7F6FE0028EFD194F820000121FFF78F
:109B4000EBFE0028E8D10B4802F050FF628EA6859C
:109B500095424FF0010094BF521B921A628684F81E
:109B6000230009B0F0BD00BFE86700207C6E002034
:109B7000EC67002000680020F0B5002361F30F03BC
:109B80002D4D044661F31F4389B00363FA21284633
:109B900002F0C4FEE68D2949278D0868049706EB7C
:109BA000860303EB830300229B000592ADF814307B
:109BB00094F8213002928DF80830C307CDE90622CF
:109BC00003920BD41E4BE27F95F89B069A8005F218
:109BD0007C6501221C609D6098810A60184902AA78
:109BE00004F12000FFF796FE10B1002009B0F0BD8F
:109BF00094F820101048019102F088FE0199024665
:109C00000120FFF78DFE0028EFD194F820000121FC
:109C1000FFF782FE0028E8D1074802F0E7FE638ED6
:109C2000A7859E424FF0010094BF9B1BDB1A638601
:109C300084F8230009B0F0BD00680020E867002028
:109C4000EC67002010B5044690F82000FFF766FE90
:109C500008B1002010BD84F82300024802F0DAFEAB
:109C6000012010BD0068002030B50B888D88112BB5
:109C700085B0044605D0262B33D0102B25D005B057
:109C800030BD436AEB40DB07F9D52E4801F0FEF901
:109C90000028F4D1636A94F82310012202FA05F532
:109CA00023EA050363620029E9D194F82230002BEE
:109CB000E5D0238E23486386FA2102F02FFEE28D41
:109CC000218D2046FFF7FCFED9E7CB7B012BD6D1B7
:109CD000426A03FA05F515430023456280F82330F4
:109CE000CDE70B7A012BCAD1002380F823304FF443
:109CF000FA71144802F012FE238E5BB1658E95B1A5
:109D0000A36B0BB19847658E618D2A462046FFF7FD
:109D1000D7FEB4E7A36B03B19847618D00222046BC
:109D2000FFF7CEFEABE7074802F074FE626B002A35
:109D3000A5D0009503AB29462846039514F062FC94
:109D40009DE700BF0068002075DF704710B44FF03A
:109D500010144FF448010022C0E90041C0E902227A
:109D60005DF8044B704700BF014800F095BF00BF8D
:109D7000F06E0020F8B500250D4F2E4601E0142DA1
:109D800014D0A9B2384602F019FE01350446002865
:109D9000F5D000F01BFE0028F1D0204600F020FE98
:109DA000022804BF0136F6B2142DEAD13046F8BDC0
:109DB0000068002070B58E881B480C4694B0314670
:109DC00002F0FCFD23881A2B05D01F2B1CD0102B72
:109DD0000FD014B070BD054600F0FAFD0028F8D091
:109DE000284600F0F7FD0028F3D1284600F058FE81
:109DF000EFE7694600F03CFE0028EAD06A463146AB
:109E00000A4801F0F1FCE4E754F8080F61686B467A
:109E100003C33046BDF80030ADF802306946FFF7A5
:109E200093FF14B070BD00BF0068002020680020C0
:109E3000AADF7047ABDF7047ACDF7047ADDF70471C
:109E4000AEDF7047B0DF704710B5044B044640F8F2
:109E5000043B02F069F8204610BD00BFA096040044
:109E600010B5054B044640F8043B02F05DF820466F
:109E700013F09AFE204610BDA096040070B57B4BEF
:109E800004461B68836196B0043002F093F894F89E
:109E90002E30A06913F0320208BF84F82F2013F08F
:109EA0000C0308BF84F830300DF10102694602F05E
:109EB00031F894F82F209DF8010015070DD09DF87A
:109EC000001002F00F0301F00F059D424FEA12123D
:109ED0006DD243EA021284F82F2094F8303019072B
:109EE0000BD003F00F0100F00F058D424FEA131362
:109EF00069D241EA031384F8303094F82E1011F03F
:109F0000300340F096800FAD0F93C5E90133C5E9EA
:109F100003338DF83C10AB610021ADF809109DF8BA
:109F20000A10206A1493012363F342018DF808207C
:109F30008DF80A1008B1037873BB94F8263013B17A
:109F400004F12603129394F831200023D2070893DA
:109F5000079358BFE38AADF81C3004F1080004F100
:109F60002F01CDE9050154BF1846E08AADF8200065
:109F7000294604F13203E569099505AA0020FFF797
:109F800057FF054628B994F8253043BB237D002BA5
:109F900064D0284616B070BD10901AF0DFFF02ABF7
:109FA00080B2ADF84400ADF846001393C5E74FEA20
:109FB000111101D191428CD30A462B4643EA021279
:109FC00084F82F2089E74FEA101001D1984290D3EE
:109FD0000346294641EA031384F830308DE7ADF893
:109FE0000D009DF80E2094F82F600C90012363F370
:109FF000420242F608118DF80E208DF8123004AAA4
:10A000000223ADF8101003A90D90ADF83030ADF873
:10A0100034300A9204F124030B910DF102020AA9D3
:10A020008DF80C600E93FFF705FF0028AED00546B3
:10A03000AFE70F4B8DF805200FAD1B788DF804307E
:10A04000022000230F938DF80600C5E90133C5E90E
:10A050000333AB618DF83C1001AB5DE72146054849
:10A0600000F0D6FF284616B070BD00BFFC67002088
:10A0700094960400406C00202DE9F0410B888E88F6
:10A08000502B8AB00C46054609D0512B04D18B7950
:10A09000012B19D0022B26D00AB0BDE8F081CB8865
:10A0A000428E9A4235D0EA8E9A42F5D16B6D002BE2
:10A0B000F2D095F84420648A920700F18A80224603
:10A0C000294630469847E7E7836C002BE4D090F8A8
:10A0D0004420520701F108076CD43A46294630461D
:10A0E0009847A379D6E7A27B042A46D0062A20D037
:10A0F000012AD1D1EB6C002BCED095F84420170764
:10A1000004F1080400F1A58022462946304698470C
:10A11000C2E7076D002FC6D090F84430D90768D445
:10A1200004F11208238A424629463046B847E3889C
:10A13000B9E7EA6B002AAFD0002202A93046CDE988
:10A140000222CDE90422ADF80C208DF80830FFF78B
:10A1500079FE2C6D54B195F84430D80700F1928007
:10A16000B5F84230EA6B30462946A047E86B11F05B
:10A1700087F90023C5E90F338EE7E86B002878D014
:10A18000B5F84010278A628A07EB020C00234FF0D3
:10A19000020E8C45CDE90633CDE908338DF818E081
:10A1A00039DD40F20913ADF81C3006A93046FFF73F
:10A1B00049FE71E703211A46009106AB0821384693
:10A1C000CDE90665089714F01DFA002889D1AB6C1B
:10A1D00083E7032000211A46009006AB0846CDE92C
:10A1E0000665089414F00EFA00287FF455AF6B6DE5
:10A1F00065E7218A069604F11208042300933A4683
:10A20000404606ABCDE90881079514F0FBF900281C
:10A210008DD12F6D86E79DF81EC0ADF81C3004F17E
:10A2200014014CF001033844ADF822208DF81E30A3
:10A230000991ADF8207019F015FF238A618AB5F8ED
:10A2400042200B449BB2934238BF1346A5F84230DC
:10A25000ABE703211A46009106AB0E212046CDE95B
:10A260000665089414F0CEF900287FF415AFEB6C66
:10A270004AE74FF4806011F0E9F84FF48061C5E9D6
:10A280000F017FE7E86BB5F84210069604230093B0
:10A29000224606ABCDE90750099114F0B3F9002826
:10A2A0007FF464AF2C6D5BE72DE9F04F0F464FF65E
:10A2B000FF718F4289B0064615461C4627D0F18AA9
:10A2C00096F82E308C4228BF0C469B0615D40DF113
:10A2D000100B8C4228BF0C464FF00008718EADF871
:10A2E00010405A464FF6FF700595ADF81280FFF703
:10A2F000A3FD404609B0BDE8F08F3648394602F06C
:10A3000045FB804608B1F18E31B9F18ADFE731486B
:10A3100002F048FB0746D2E7002002230DF1100BA4
:10A32000ADF81200ADF810305A460DF10E03384664
:10A330000593FFF783FD43F20143984247D008B9E4
:10A34000BDF80E0000F00200002840D02148394638
:10A3500002F034FB824688B300F044FB033883B23A
:10A36000002CC6D0CDF804804FF00009984608E0D4
:10A3700000F0A0FB10B3BDF80E30E41AA4B21D44E7
:10A3800014B34FF00200A0458DF812000DF10E003D
:10A39000738EADF810304246CDE9060528BF22463F
:10A3A00059463846CDF813908DF81790ADF80E2029
:10A3B000FFF746FD03465046002BD9D04FF000086A
:10A3C000404609B0BDE8F08FDDF8048091E7F18ADE
:10A3D0007FE700BF006800202DE9F04F0F464FF6E1
:10A3E000FF718F4289B0064615461C4626D0F18A79
:10A3F00096F82E308C4228BF0C46DB0615D40DF1A2
:10A40000100B8C4228BF0C464FF00008718EADF83F
:10A4100010405A464FF6FF700595ADF81280FFF7D1
:10A420000BFD404609B0BDE8F08F3948394602F0CF
:10A43000ADFA08B1F18E31B9F18AE0E7344802F0A3
:10A44000B1FA0746D3E7002002230DF1100BADF857
:10A450001200ADF810305A460DF10E033846059340
:10A46000FFF7ECFC43F2014398424FD000284AD159
:10A470009DF80E8008F00108B8F1000F46D024487E
:10A48000394602F09BFA8246A0B300F0ABFA0338DB
:10A4900083B2002CC5D0CDF804804FF00009984657
:10A4A00005E0BDF80E30E41AA4B21D4444B3504692
:10A4B00000F0ACFAA04503464246594628BF224662
:10A4C0003846BBB1ADF80E204FF00102738E8DF807
:10A4D00012200DF10E02CDE90625CDF813908DF86E
:10A4E0001790ADF81030FFF7ABFC0028D9D05046DC
:10A4F00000F096FA4FF00008404609B0BDE8F08F32
:10A50000DDF804808DE700F00108B5E7F18A78E70F
:10A510000068002070B44E68164A86600260D1E977
:10A520000262154B154D1C7845600261142500220E
:10A530000321C0E90F22C0E91222C0E91422C6603B
:10A54000C58280F8311080F8442002758261026271
:10A550008284C0F82620C0F82A2080F82E20C2610C
:10A5600042864263028780F82F4080F8304070BCFA
:10A57000704700BFA096040094960400E89604007B
:10A5800080F82E10704700BFC182704741B190F82B
:10A590003130C182002262F3000380F8313070470D
:10A5A00090F83130012262F3000380F831307047B7
:10A5B00080F82F1080F83020704700BF90F84430AA
:10A5C000016562F3000380F84430704751F8322F80
:10A5D000026049684160704730B5C48A83B09442D4
:10A5E00023460D4628BF1346418E019500246A4636
:10A5F0004FF6FF70ADF80030ADF80240FFF71CFCDD
:10A6000018B9BDF8000003B030BD204603B030BD1E
:10A6100030B5044685B0194802F0C4F994F82E30DC
:10A6200013F0100302D1184605B030BD05460146AF
:10A63000124802F0ABF90028F6D0E18E11B90846B5
:10A6400005B030BD0DF1060328460024022502AAFC
:10A650000393ADF80A40ADF80850FFF7EFFB43F263
:10A660000143984205D030B99DF8063003F001004F
:10A67000DAE72046D8E700F00100D5E700680020BF
:10A6800010B490F82E4014F0100407D013465DF873
:10A69000044B0A464FF6FF71FFF79EBE20465DF859
:10A6A000044B704790F82E3013F0200301D1184668
:10A6B000704730B5044685B011480D4602F066F982
:10A6C00010B1E18E11B9084605B030BD0DF1060399
:10A6D00028460024022502AA0393ADF80A40ADF8EB
:10A6E0000850FFF7ABFB43F20143984206D008B98C
:10A6F000BDF80600C0F3400005B030BD2046E3E7DA
:10A700000068002010B490F82E4014F0200403D00C
:10A710005DF8044BFFF7C8BD20465DF8044B704759
:10A72000A1DF7047A3DF7047A4DF70470023838356
:10A73000704700BF006A00F0E3B800BF808B70472D
:10A740002DE9F0410B88CE88382B86B00C460546A3
:10A7500006D0392B66D0362B43D006B0BDE8F08149
:10A7600000F12407002E36D10A8A3846314602F01D
:10A77000E5F994F80C80B8F1010F2CD0B8F1040F72
:10A78000EBD1286A00F0BCF801465C4802F016F9EB
:10A7900000F028F92A8E053883B2934228BF134669
:10A7A000002B00F09A80218AE289286AAC8B8DF810
:10A7B0000D600A44E96A05918DF80C80ADF81230FD
:10A7C000ADF81020ADF80E4000F09AF803A9FFF79D
:10A7D000A9FF0028C1D0384602F0C8F906B0BDE88C
:10A7E000F081006A00F08CF80146444802F0E6F877
:10A7F00000F0F8F807466EBB05F12406E289304602
:10A8000004F1100102F09AF92B8E2BB1F81EE389A6
:10A8100080B20138834255DA304602F0A7F906B01B
:10A82000BDE8F0810B7B012B1AD0022B95D1836BF5
:10A83000002B92D090F83C208F8892071FD401F112
:10A840001006E28931462846984761893846FFF765
:10A850006BFF82E705F12407384602F087F9BDE770
:10A86000436B002B3FF479AF90F83C20D10717D40D
:10A8700004F11006E2893146284698476DE7C989F8
:10A88000039004F1100603201A46009003AB3046F3
:10A89000CDE9046113F0B6FE0028D6D1AB6BD0E74A
:10A8A000E189039004F1100603201A46009003ABDF
:10A8B0003046CDE9046113F0A5FE00287FF44DAFCA
:10A8C0006B6BD7E7286A00F01BF86A8EA98B92B2EF
:10A8D000FFF726FF00289FD13FE7AA8B286AADF833
:10A8E0000E2040F20511ADF80C10CDE9043300F054
:10A8F00007F803A9FFF716FF6DE700BF0068002007
:10A90000808870478FDF704790DF7047B1DF7047F6
:10A91000B5DF704710B5074B03600446806A11F03D
:10A9200003FCE06A11F000FC206B08B111F0FCFBA5
:10A93000204610BDB896040010B5094B03600446CC
:10A94000806A11F0F1FBE06A11F0EEFB206B08B1B8
:10A9500011F0EAFB204613F027F9204610BD00BF96
:10A96000B896040070B504460D4692E80300A58031
:10A970000E0CA061A183144DA67717201B215689C8
:10A980002560E0809589D089E181D17965810122B6
:10A9900022752274A08161741846194626819DF89B
:10A9A000105010F017FE2946A062284610F012FE43
:10A9B0004FF4885100234FF6FF72E182E062628219
:10A9C00023636375204670BDB8960400007D704710
:10A9D000407D7047C07D113818BF0120704700BF0F
:10A9E000407C7047C0887047008970474B7D10B429
:10A9F0004BB11F310C688A888B79046082805DF8C6
:10AA0000044B837170471831F4E700BF08B5662125
:10AA1000806A11F001FA003818BF012008BD00BF9C
:10AA200008B500231A461946806A10F005FE003862
:10AA300018BF012008BD00BF818800F11F02407CC3
:10AA400002F0DAB838B50A4605460C468188407CE3
:10AA500002F0BEF82146012051F8483FC5F81F30EA
:10AA60008B888A7985F82520A5F82330687538BD4C
:10AA700038B50A4604460D4600F11801407C02F044
:10AA8000F1F8607550B1294651F8483FC4F81F30BD
:10AA90008B888A7984F82520A4F8233038BD00BF3C
:10AAA00010B5447D24B100F11F01407C02F0B8F8DC
:10AAB000204610BD38B5032204460021012010F0C5
:10AAC00047FD00254FF0FF312063A57511F0A4F973
:10AAD000206B11F029FBA07D256338BD70B50B8874
:10AAE000113B82B00C460546462B2BD8DFE803F01D
:10AAF000383B2A2A2A2A2A2A2A422A2A2A2A2A2A7F
:10AB000050585E642A2A2A2A2A2A2A2A2A2A2A2AE3
:10AB10002A2A2A2A2A2A2A2A2A672A942A2A2A2AEE
:10AB20002A2A2A2A2A2A2A2A2A2A2A2A2A2A2A2A85
:10AB30002A246A2A752C84000023A8881A461946FC
:10AB4000FFF7E4FE02B070BD8B79002BFAD1006BE9
:10AB5000AB750028F6D01A46194610F06DFDF1E7E6
:10AB600000230375EEE74B8903818B894381CB89F1
:10AB70008381E7E70B7AC375112BE3D0818800F15D
:10AB80001F02407C02F026F903460028DAD1D4E700
:10AB9000002301A98088ADF80430FFF7B3FED1E7A8
:10ABA0000B7A002BCED14B7A0374CBE700221146EF
:10ABB0008088FFF7A9FEC5E70B89C381C2E74B89EF
:10ABC000C380BFE7006B0123AB750028BAD0002318
:10ABD0001A46194610F030FDB4E7417C164801F0E2
:10ABE000E5FEE3880146994228BF194689B2A88844
:10ABF000E980FFF78DFEA5E78B79002BA2D0002618
:10AC000000231A461946A86A10F016FD0136A279EB
:10AC1000F3B29A42F4D895E78B7A002B92D00026B3
:10AC200000231A461946E86A10F006FD0136A27A9A
:10AC3000F3B29A42F4D885E70068002070B58AB074
:10AC400086880B4606A84FF42851144605934FF604
:10AC5000FF7501F071F90120CDE90105059B009414
:10AC6000314606AA044800F06FF8044606A801F031
:10AC70005BF920460AB070BD406C002010B5044658
:10AC8000043001F0F7FE034B2360002323752046B8
:10AC900010BD00BF0100FFFF017D01B1704710B57D
:10ACA0000446043001F0F0FE0123237510BD00BFFF
:10ACB000007D70470B88322B10B504D0332B17D092
:10ACC000302B08D010BDCB88DBB1041D2046BDE879
:10ACD000104001F04BBFCB88041D002BF6D14B89EF
:10ACE000002BF3D00A3120460A2201F027FFEDE7BE
:10ACF000CB88002BE9D14A89002AE6D002EB420238
:10AD000004E04A89002AE0D002EB82025200041DCE
:10AD1000023292B20A31204601F010FFD6E700BF9E
:10AD2000A0DF704710B5044600F5F87001F0A2FEF0
:10AD30002046F822002119F0BDF9F822A0180021C0
:10AD400019F0B8F9204610BD2DE9F04782B005464C
:10AD5000BDF82C60BDF830402048ADF80460BDF867
:10AD600028A0ADF80640904699460F4601F026FE11
:10AD700005F5F875064603E0FFF736FE10F04AFBCE
:10AD8000284601F0D9FE04463046002CF4D10121BA
:10AD9000284601F079FE52464946284601F090FEC9
:10ADA00008F10401384601AAFFF7BAFF30B128467E
:10ADB00001F074FE204602B0BDE8F0874FF4FA714E
:10ADC000284601F083FE20EAE074284601F066FE82
:10ADD000A4B2204602B0BDE8F08700BF00680020A2
:10ADE0002DE9F04F8F880D8885B088460446394696
:10ADF000864801F0E3FDA5F11003012B814640F2E6
:10AE0000908094F854203AB3002633461633502DE0
:10AE100054F823A069D0512D1AD198F80630B8F80B
:10AE200008B0022B53D0BBF1000F11D05146684639
:10AE3000FFF7CCFBBDF800305B4559D0514602A866
:10AE4000FFF7C4FBBDF80C305B4551D094F854209B
:10AE50000136F3B29342D9D394F84C31002B00F071
:10AE6000D18004F5A679002604E094F84C3101362F
:10AE7000B34220DD59F8040FFFF75CFCB842F4D16F
:10AE8000382D03D0392D01D0362DEED1B8F80AA0D7
:10AE9000BAF1000FE9D0D9F800B05846FFF74EFCE0
:10AEA0005045E2D158464146FFF74AFC94F84C31F0
:10AEB0000136B342DEDC112D55D0352D04D1B8F862
:10AEC0000A30002B40F08F8005B0BDE8F08F98F875
:10AED0000E30062BA7D1DAF800305046DB68414629
:10AEE00098474846FFF776FDB0E7B8F806B09AE70E
:10AEF000DAF800305046DB68414698474846FFF78D
:10AF000069FD0028A2D0502DA0D1514602A8FFF71C
:10AF10005DFBBDF80C305B4598D14846FFF78CFDD2
:10AF200094E72378002B3FF46CAF0026112D3346B5
:10AF30000CD004EB83033946586803685B68984774
:10AF400001362278F3B29A42F3D85AE704EB83032E
:10AF50003946586803681B68984701362278F3B26F
:10AF60009A42F3D84DE7D3B10026334605E094F872
:10AF70004C210136F3B29A4211D904EB8305D5F87E
:10AF80005001FFF7D7FBB842F1D1D5F85001FFF7D8
:10AF9000CDFB013694F84C21F3B29A42EDD894F8E7
:10AFA000F820002A90D000252B4604EB8303D3F829
:10AFB000FC008388BB420AD00135EBB2934283D2B6
:10AFC00004EB8303D3F8FC008388BB42F4D103680D
:10AFD0001B689847013594F8F820EBB29342E4D30C
:10AFE00005B0BDE8F08F04F5F874B8F80C202046E1
:10AFF00008F1100101F0A2FD204605B0BDE8F04FB8
:10B0000001F0B4BD112D7FF458AFC8E700680020EF
:10B0100090F85420272A0CD810B4034602F11604E5
:10B02000013280F8542043F8241001205DF8044BCD
:10B0300070470020704700BF0378132B06D800EB41
:10B040008302013303700120516070470020704774
:10B0500078DF70477ADF7047054A034692E80300BD
:10B06000002283E80300C3E902221846704700BFAC
:10B07000C096040008B5FFF7EDFF08B1002008BD39
:10B08000FFF7E6FFB0FA80F0400908BDF8B50025EB
:10B090000D4F2E4601E0142D14D0A9B2384601F010
:10B0A0008DFC013504460028F5D0FFF78FFC002801
:10B0B000F1D02046FFF794FC012804BF0136F6B218
:10B0C000142DEAD13046F8BD0068002008B5018093
:10B0D0004280FFF7BFFFB0FA80F0400908BD00BF13
:10B0E00008B58180FFF7B6FFB0FA80F0400908BDCF
:10B0F00008B5C180FFF7AEFFB0FA80F0400908BD87
:10B10000704700BF8ADF704730B40D4CC4621F2502
:10B11000002250248584A025C0E91122C0E90F2215
:10B12000A0F84650A0F84840006230BC8262028617
:10B1300080F838204263C264A0F85020704700BFF6
:10B14000000180002DE9F04F10468DB016460C46E8
:10B1500000F020FFC5B2102D4FD0B668072206239D
:10B16000A16994F81C9001918DF80D208DF80C3098
:10B17000ED080DF10C080DF10E0A0027B9F1010FD1
:10B180000A97CDE90477CDE90677CDE90877CDF8C0
:10B190002B700ED998F8000001994B464A788242EC
:10B1A0000FD00A78D4432344013213F0FF03114433
:10B1B000F4D108F10108C245E0D100200DB0BDE88E
:10B1C000F08F11F8024B013CE4B2224604A818F0BB
:10B1D00049FF0DF1100B1CB9EBE714F0FF04E8D0A8
:10B1E00058462A46314618F02FFF641BAB4400280E
:10B1F000F3D101200DB0BDE8F08F04360322022305
:10B20000AEE700BF2DE9F0430B888E88103B87B076
:10B210000D4604460D2B2CD8DFE803F077072B2BC7
:10B220002B2B2B2B2B2B2B842B2E836AF340DB0712
:10B230001FD55648FEF79EFDD8B9A36A94F82C2076
:10B24000012505FA06F623EA0606A6628AB994F8ED
:10B250002D3073B11F232462A38404F1200104F173
:10B260004400FFF74FFF20B9494801F0BFFB84F8C5
:10B270002C5007B0BDE8F08390F92E2091F91B30D7
:10B280009A423ADC90F8383001F108080BB3DFF845
:10B290000491002602E0D6B2B34218D9636BCDF810
:10B2A000089003EB061302AA59680391D3E90273CD
:10B2B0004146204605930497FFF744FF074602A83E
:10B2C00000F032FE94F83830721C002FE3D09E421A
:10B2D00013D094F82F30002B49D095F82430012B4F
:10B2E0000BD9296A4A78FF2A30D00A78D043034420
:10B2F000013213F0FF031144F4D104F120010020C6
:10B30000FFF700FF07B0BDE8F083CB7B022BB0D185
:10B31000836A012202FA06F633430022836280F830
:10B320002C20A6E70B7A012BA3D1002580F82C5006
:10B33000174801F06FFB226C002A9AD0009502ABEF
:10B3400029462846029513F05DF992E711F8025B51
:10B350006A1ED2B2022A28BF022202A818F082FE78
:10B36000012DCAD0228EBDF808309A42C5D1E26BB9
:10B37000002A3FF47EAF01230093404602AB242114
:10B38000CDF8088013F03EF973E700BF1068002085
:10B3900000680020E896040046DF70477FDF7047B2
:10B3A00080DF704781DF704785DF704786DF704739
:10B3B00038B51C460D460346114628462246984796
:10B3C00034B1014600222846BDE83840FFF7E8BF07
:10B3D00038BD00BF10B50C4682B003466946204612
:10B3E00098476A4620460121FFF7DAFF02B010BDF8
:10B3F00010B50446083001F017FF074B2360032205
:10B4000000232271C4F81034C4F81434C4F818347A
:10B41000C4F81C34204610BD3507100330B504466F
:10B42000ADF55F7D00F108058F4801F091FE082120
:10B43000284601F0FDFE684601F004FF6846082139
:10B4400001F004FF6946284601F0A2FE04F54F71A1
:10B450004122684601F008FF684601F001FF94F8B8
:10B460005C0394F85B2394F83D1394F83E3384F81E
:10B470003D0384F83E2394F85A0394F8592394F832
:10B480003F5384F85C1384F85B3394F8401394F8CA
:10B49000413384F83F0384F8402394F8580394F828
:10B4A000572384F85A5384F8591394F8425394F864
:10B4B000431384F8410384F8583394F8560394F8FE
:10B4C000443384F8422394F8552384F8575384F87E
:10B4D000430384F8442384F8553384F8561394F8CE
:10B4E000451394F8540394F8532394F8463384F89E
:10B4F000450384F8462394F8520394F8512394F8B2
:10B50000475384F8541384F8533394F8481394F849
:10B51000493384F8470384F8482394F8500394F897
:10B520004F2384F8525384F8511394F84A5394F8F3
:10B530004B1384F8490384F8503394F84E0394F87D
:10B540004C3384F84A2394F84D2384F84F5384F8FD
:10B550004B0384F84C2384F84D3384F84E1394F84D
:10B560005D1394F87C0394F87B2394F85E3384F89D
:10B570005D0384F85E2394F87A0394F8792394F8B1
:10B580005F5384F87C1384F87B3394F8601394F849
:10B59000613384F85F0384F8602394F8780394F8A7
:10B5A000772384F87A5384F8791394F8625394F8E3
:10B5B000631384F8610384F8783394F8760394F87D
:10B5C000643384F8622394F8752384F8775384F8FD
:10B5D000630384F8642384F8753384F8761394F84D
:10B5E000651394F8740394F8732394F8663384F81D
:10B5F000650384F8662394F8720394F8712394F831
:10B60000675384F8741384F8733394F8681394F8C8
:10B61000693384F8670384F8682394F8700394F816
:10B620006F2384F8725384F8711394F86A5394F872
:10B630006B1384F8690384F8703394F86E0394F8FC
:10B640006C3384F86A2394F86D2384F86B0301202B
:10B6500084F86F5384F86E1384F86C2384F86D3388
:10B660000DF55F7D30BD00BF8C6F00200B7803F0BF
:10B67000FE03042B01D00020704770B515468CB036
:10B680000C462022002104A818F014FD28686968DF
:10B69000AA68EB686D460FC59DF800109DF80F2055
:10B6A0009DF801609DF80E509DF802008DF80F1076
:10B6B00023469DF80D108DF800209DF803208DF88D
:10B6C0000E608DF801509DF80C609DF804508DF8C7
:10B6D0000D008DF802109DF80B009DF805108DF8F7
:10B6E0000C209DF80A208DF803608DF80B508DF822
:10B6F00004008DF805208DF80A109DF8061033F827
:10B70000042FADF810209B789DF809209DF81D00AE
:10B710009DF810609DF81F508DF809108DF80620D7
:10B720009DF811109DF81E208DF81D309DF80730F2
:10B730008DF812008DF81F609DF808009DF81360C9
:10B740008DF810508DF81E109DF81C509DF81410A7
:10B750008DF811208DF808309DF81B209DF81A30C7
:10B760008DF807008DF81C608DF813509DF815605A
:10B770008DF81B108DF8142068468DF815309DF853
:10B7800019109DF817209DF818309DF816508DF867
:10B7900018208DF816108DF817308DF81A608DF876
:10B7A0001950FFF7F9FD62789DF82F309DF82E00B3
:10B7B0009DF82D108DF821009A428DF8221004F189
:10B7C000010404D0012080F001000CB070BD62784B
:10B7D000C3B29A4204F10104F4D16278CBB29A4226
:10B7E000F0D10020EFE700BF08B5137CDB0758BF9E
:10B7F0001C32084602F11201FFF7D6FDB0FA80F0C4
:10B80000400908BDF0B58F880E46ADF56B7D044646
:10B810003946464801F0D2F83388133B0546072BDA
:10B820002FD8DFE813F03E005F006D002E002803E4
:10B83000870008003100337AB3B9737B9B070ED4BD
:10B84000294602A8FFF7D2F80299BDF80C209DF80E
:10B850000E3084F80C34C4F80614A4F80A242846E0
:10B8600004F2BE31FFF7EEF8D4F818244AB1307A6A
:10B870000D9002230021009308460CAB0C9712F0A8
:10B88000C1FE0DF56B7DF0BDD4F81C24002AF8D064
:10B8900001230021009308460CAB0C9712F0B2FE76
:10B8A000EFE704F2BE3304F2DA320C9304F2F6331B
:10B8B00000251092119304F23D3204F27E330F9270
:10B8C0001393CDE90D551295FFF78AF801280CBFA7
:10B8D00022462A460CAB29463846FFF75FFD0DF598
:10B8E0006B7DF0BD0CA9FFF7C3F80346002800F0FC
:10B8F000D2820CA9384600231AAAFFF757FDC0E7E9
:10B90000D4F810140029BCD0B37B094A03F001031A
:10B910000F930423CDE90C1706F1080000930621CC
:10B920000CAB0E9012F06EFEABE700BF006800207B
:10B93000B1B3020094F87E3394F89D2394F87FC34A
:10B9400094F89C6394F8805394F89B0384F89D3397
:10B95000042194F89A3384F87D1384F87E2394F8B4
:10B96000811394F8822384F89CC384F87F6394F84D
:10B9700099C394F8836384F89B5384F8800394F804
:10B98000985394F8840384F89A1384F8813394F8D4
:10B99000971394F8853384F8992394F8962384F8C0
:10B9A00082C384F8986384F8835384F8970384F8F7
:10B9B000841384F8852384F8963394F8862394F8C6
:10B9C000953394F887C394F8946394F8885394F863
:10B9D000930394F8891384F8952384F8863394F8B4
:10B9E000922394F88A3384F894C384F8876394F894
:10B9F00091C394F88B6384F8935384F8880394F884
:10BA0000905394F88C0384F8921384F8892394F863
:10BA10008F1394F88D2384F8913394F88E3384F83F
:10BA20008AC384F8906384F88B5384F88F0384F876
:10BA30008C1384F88D3384F88E2394F89E2394F825
:10BA4000BD3394F89FC394F8BC6394F8A05394F862
:10BA5000BB0394F8A11384F8BD2384F89E3394F8B3
:10BA6000BA2394F8A23384F8BCC384F89F6394F893
:10BA7000B9C394F8A36384F8BB5384F8A00394F883
:10BA8000B85394F8A40384F8BA1384F8A12394F863
:10BA9000B71394F8A52384F8B93394F8B63384F82F
:10BAA000A2C384F8B86384F8A35384F8A41384F879
:10BAB000B62384F8A53384F8B70394F8A60394F862
:10BAC000B51394F8A72394F8B43394F8A86394F8C2
:10BAD000B35384F8B50384F8A61394F8A90394F833
:10BAE000B21384F8B42384F8A73394F8AA2394F803
:10BAF000B13384F8B36384F8A85394F8AB6394F833
:10BB0000B05384F8B20384F8A91394F8AC0394F802
:10BB1000AF1384F8B12384F8AA3394F8AD2394F8D2
:10BB2000AE3384F8AD3384F8AE2384F8B06384F880
:10BB3000AB5384F8AF0384F8AC130CA801F082FB7C
:10BB40000CA8082101F082FB04F27D310CA84122EF
:10BB500001F09CFB0CA904AA202304F1080001F0C9
:10BB600045FB0CA801F07CFB9DF810109DF82F0000
:10BB70009DF811309DF82E209DF812609DF82D50F3
:10BB80008DF810008DF82F109DF813009DF82C10E3
:10BB90008DF811208DF82E309DF814209DF82B3053
:10BBA0008DF812508DF82D609DF815509DF82A6083
:10BBB0008DF813108DF82C009DF816109DF82900B3
:10BBC0008DF814308DF82B209DF817309DF8282023
:10BBD0008DF815608DF82A508DF816008DF8172015
:10BBE0008DF828308DF829109DF818109DF8270041
:10BBF0009DF819309DF826209DF81A609DF8255073
:10BC00008DF818008DF827109DF81B009DF8241062
:10BC10008DF819208DF826309DF81C209DF82330D2
:10BC20008DF81A508DF825609DF81D509DF8226002
:10BC30008DF81B108DF824009DF81E109DF8210032
:10BC40008DF81C308DF823209DF81F309DF82020A2
:10BC50008DF81D608DF822508DF821108DF81F2071
:10BC60008DF820308DF81E0094F87E0394F89D1313
:10BC700094F87F2394F89C3394F8806394F89B5352
:10BC800084F89D0384F87E1394F8810394F89A1342
:10BC900084F89C2384F87F3394F8822394F89933B2
:10BCA00084F89B6384F8805394F8836394F89853E2
:10BCB00084F89A0384F8811394F8840394F8971312
:10BCC00084F8992384F8823394F8852394F8963382
:10BCD00084F8986384F8835384F8841384F8962353
:10BCE00084F8853384F8970394F8860394F89513C1
:10BCF00094F8872394F8943394F8886394F89353D2
:10BD000084F8950384F8861394F8890394F89213C1
:10BD100084F8942384F8873394F88A2394F8913331
:10BD200084F8936384F8885394F88B6394F8905361
:10BD300084F8920384F8891394F88C0394F88F1391
:10BD400084F8912384F88A3394F88D2394F88E3301
:10BD500084F8906384F88B5384F88C1384F88E23D2
:10BD600084F88D3384F88F0394F89E0394F8BD1300
:10BD700094F89F2394F8BC3394F8A06394F8BB53D1
:10BD800084F8BD0384F89E1394F8A10394F8BA13C1
:10BD900084F8BC2384F89F3394F8A22394F8B93331
:10BDA00084F8BB6384F8A05394F8A36394F8B85361
:10BDB00084F8BA0384F8A11394F8A40394F8B71391
:10BDC00084F8B92384F8A23394F8A52394F8B63301
:10BDD00084F8B86384F8B70384F8A41384F8B6230E
:10BDE00084F8A53384F8A35394F8A65394F8A723B2
:10BDF00094F8B43394F8B50394F8A81394F8B363A3
:10BE000084F8B55384F8B42394F8A95394F8AA237A
:10BE100084F8A73394F8B13394F8B0C384F8A60338
:10BE200084F8B31394F8B20394F8AB1384F8A863BE
:10BE300084F8B25394F8AC6394F8AF5384F8B12308
:10BE400084F8AA3394F8AD2394F8AE3384F8A903A8
:10BE500084F8B013384604A984F8ABC384F8AF6300
:10BE600084F8AC5384F8AE2384F8AD33FFF79AFA24
:10BE70000DF56B7DF0BDD4F81424002A3FF401AD1C
:10BE80000223002100930C920CAB064A0D97084642
:10BE900012F0B8FBF5E438461A461946FFF786FA61
:10BEA000EFE400BFD5B30200A8DF7047704700BFC2
:10BEB00030B5044683B0083000F07CF804F10C0182
:10BEC0000DF106020120FFF7EFFF054628B9044BEC
:10BED00004481C602146FFF7AFF8284603B030BD88
:10BEE000FC670020406C002030B44C68C460D1E98D
:10BEF0000241054A054D0260054A8560C0E90441DA
:10BF0000426030BC704700BFD0960400E896040041
:10BF10000000111183790B70C3791370704700BF53
:10BF200062DF704763DF7047704700BF10B504469B
:10BF300011F03AFE204610BD10B4054C818000225D
:10BF400001210460C0E902225DF8044B8171704751
:10BF5000E896040038B50E4B0360044608460D46CB
:10BF600018F0FCFF042806D00023A371E560A3802D
:10BF7000A360204638BD28461022002119F076FF24
:10BF800001220023A271A080C4E90233204638BDFB
:10BF9000E89604008379012B0AD0826832B9C2681E
:10BFA00022B9012B8CBF8020002070478020704771
:10BFB000102070472DE9F047857982B0002D47D1D8
:10BFC000C7680646002F47D010200FF03FFA824680
:10BFD000384618F0C3FF441E30B3DFF88490A846FB
:10BFE00004E00134023C1FD4102D1DD017F804C00A
:10BFF000BCF12D0F07EB0402F3D099F80030ADF837
:10C0000005808DF8043012F8013C8DF804301022C0
:10C01000002101A88DF805C019F028FF6B1C023C17
:10C020000AF80500DDB2DFD5C6F808A0BAF1000FA6
:10C030000ED0B11D5046FFF773FFB168321D1020BE
:10C04000FFF770FFB0FA80F0400902B0BDE8F0875A
:10C05000012002B0BDE8F087D0F808A0E6E700BFF5
:10C06000DC9604004DDF70474EDF70474FDF7047AE
:10C0700050DF70474BDF704710DF70477CDF704741
:10C080007DDF704760DF704769DF704761DF7047B1
:10C0900066DF704767DF7047704700BF0C2012F003
:10C0A00043BD00BF30B5224C224D83B0D4F82807E1
:10C0B0004FF0FF310FF0B0FE0028F7D0C5B101A856
:10C0C000FFF7D8FF0528F1D00028F8D1019B032BFA
:10C0D0001BD8012BF3D918460EF004FCEFE70A2B0E
:10C0E00004D0092B21D00B2B02D1012007F0BEF880
:10C0F00001A8FFF7BFFF0528D8D00028F8D1019B81
:10C10000A3F10902022AF3D8E9E7A3F10902022AFE
:10C11000D5D80A2B04D0092B05D00B2BCFD1012069
:10C1200007F0A4F8CBE70220FAE70220DEE700BF21
:10C1300000680020E5A803002DE9F04F2DED028BEB
:10C140004FF4FA7089B00FF081F9B24E00F1080394
:10C1500008EE103A054606F5F06706F5C86AD6F807
:10C1600024074FF0FF310FF057FE0028F7D04FF4AF
:10C17000FA730DF116012846ADF81630FFF786FF69
:10C1800010B10528F3D1EAE7B5F80490B9F1130F1F
:10C1900000F2398106EB8903D3F834473CB12946D4
:10C1A0002046FEF79BFC9C482946FFF72BFB2B887B
:10C1B000013B1B2B5AD8DFE813F016015900590038
:10C1C00059005900590059005900590059005900A7
:10C1D0005900590059005900B4001C005900590079
:10C1E0005900590059005900590059005900590087
:10C1F000A200DFF838824FF0000B58F8040F30B17E
:10C20000FEF7E4FB18B10BF1010B5FFA8BFBB845AD
:10C21000F3D1BBF1000F06D196F830371BB1594668
:10C220000C2012F041FC2046FEF7DAFB012800F05A
:10C23000EC80F26962B10223002195F808C00093F6
:10C24000084606ABCDF81890CDF81CC012F0DAF90C
:10C2500009F5E67806EB8803586810B103685B6857
:10C26000984706EB88080023C8F804302946504652
:10C27000FDF7FAFC69482946FEF7C4FFB6F83237E5
:10C280004B452B8800F0B480102B1ED02CB32046D9
:10C29000FEF7A6FB012803D15E482946FEF730FFD2
:10C2A0002046FEF79DFB02281BD05D48FEF700FDEF
:10C2B00000BB5C482946FEF793FDD6F88837002B73
:10C2C0003FF455AF2846984751E7EB7B012BDDD172
:10C2D000AB88A6F83237002CD9D14E482946FEF754
:10C2E0000FFF51482946FDF765FD4D48FEF7E0FC7C
:10C2F0000028DED04A482946FEF7DCFCD9E7D6F80C
:10C300008427002AB2D00223002195F908C00093A7
:10C31000084606ABCDF81890CDF81CC012F072F9A3
:10C32000A4E74FF00008D6F82C07CDF8008043466C
:10C33000424603213D4C11F0F5F854F8040F30B19A
:10C34000FEF744FB18B108F101085FFA88F8BC4217
:10C35000F3D196F830376BB1B8F1000118BF012165
:10C360000C2012F0A1FB96F830371BB101210C20F4
:10C3700012F09AFB09F5E67806EB8804606820B1B4
:10C3800003685B68984700236360EB7B012B0BBF5E
:10C3900096F8123796F8183796F8134796F8194713
:10C3A0000393342011F0FEFB06EB8808039B0094F6
:10C3B00018EE102A04464946FEF7D4FA2046C8F87B
:10C3C0000440FEF70DFB012832D0B269002A3FF489
:10C3D0004DAF012300210093084606ABCDF818901D
:10C3E00012F010F942E700214846FFF751FE3DE701
:10C3F000102B3FF46AAF112B7FF448AF4FF6FF7359
:10C40000A6F8323742E70446D1E6F268002A7FF404
:10C4100012AF1DE700680020206800209C6E0020FD
:10C42000F06E0020406C002010680020306F00206B
:10C43000B268002A3FF41AAF0021009006AB08460C
:10C44000CDF8189012F0DEF810E700BF38B50446BA
:10C45000FEF702FE04F11000FDF778FC04F1200065
:10C46000FEF7C6FF04F58860FEF75CFC04F5C860C3
:10C47000FDF704FB04F27C60FDF78CFA04F29C608B
:10C48000FEF742FE04F5DE60FEF7F8FB4FF4805342
:10C490000025C4F8083716481649174AC4F80C078F
:10C4A00040F20113C4F81017C4F81427A4F8183781
:10C4B000A4F81A5704F234702946502217F0FAFDF6
:10C4C00001224FF6FF73A4F81C5784F81E57C4F8D6
:10C4D0002457C4F82857C4F82C57C4F88857C4F810
:10C4E000845784F83027A4F83237204638BD00BF7F
:10C4F000010A17000300010117000300F0B5BF4E49
:10C5000080F81C178DB080F81D27044611F0C8FB79
:10C5100011F0CEFB11F08CFB3369B949039303A8EA
:10C52000FFF7AAFD18B1002528460DB0F0BD012087
:10C53000FFF79AFD0120FFF795FD0120FFF796FD1B
:10C5400009A8FFF795FD099B9B0705D5AD4BD3F8CF
:10C550000435002B00F0FE800023AB4A94F80D5701
:10C56000049209A90120CDE909330B938DF82450D9
:10C57000FFF78AFD0028D6D194F81D370B90CDE93E
:10C580000900181E18BF012094F81C578DF82700C9
:10C59000049A8DF8263009A940208DF82550FFF720
:10C5A00073FD0028BFD194F80C170990034661F37E
:10C5B0000003CDE90A00049A8DF8243009A9A020CF
:10C5C000FFF762FD0028AED1D4F808370A900B902F
:10C5D000049A099309A9A120FFF756FD0028A2D1CA
:10C5E00094F81C37002B40F0B98094F81D37002BCD
:10C5F00048D00023B4F81477049A0993022509A9B6
:10C600002320CDE90A338DF82450ADF82670FFF7CA
:10C610003BFD002887D1CDE9090094F81D77B4F8D7
:10C6200016370B90049A8DF8245009A920208DF814
:10C630002670ADF82830FFF727FD00287FF473AF90
:10C640000990CDE90A0094F81837049A8DF824501F
:10C6500009A922208DF82630FFF716FD00287FF467
:10C6600062AFCDE9090094F819370B90049A8DF860
:10C67000245009A921208DF82630FFF705FD002858
:10C680007FF451AF04A8FFF7FDFC00287FF44BAF07
:10C69000CDE9070040F0010307A902208DF81C3006
:10C6A000FFF7F8FC00287FF43EAF2046FEF7E2FCDF
:10C6B000054600283FF437AF04F12000FEF7AEFE38
:10C6C000337D52498DF80830182202A8FFF7D6FCB6
:10C6D00000287FF428AF94F81D37002B40F08880A5
:10C6E0000322002101200EF033FFC4F824070028A4
:10C6F0003FF419AF05AB0326CDE900634449454833
:10C7000000234FF4A0620FF0ADFE3246002101205D
:10C710000EF01EFFC4F8280700283FF404AF06AB54
:10C72000CDE900633C493D480023C8220FF09AFE42
:10C730003B4B4FF480021A603A4B0093002318469B
:10C7400001224FF4807110F097FEC4F82C0700F01E
:10C7500019FAE9E6022006F089FDFDE60990CDE927
:10C760000A00B4F80E37049AADF82630012509A95D
:10C7700023208DF82450FFF787FC00287FF4D3AEE8
:10C78000CDE9090094F81C77B4F810370B90049A9F
:10C790008DF8245009A920208DF82670ADF8283096
:10C7A000FFF772FC00287FF4BEAE0990CDE90A00C5
:10C7B00094F81237049A8DF8245009A922208DF894
:10C7C0002630FFF761FC00287FF4ADAECDE909000B
:10C7D00094F813370B90049A8DF8245009A921205E
:10C7E0008DF82630FFF750FC00283FF4FEAE9AE6A5
:10C7F00004F11000FDF7B8FA72E700BF509704008B
:10C8000099C0020000700240006000202C970400D4
:10C810004897040039C102004C970400A5C00200EB
:10C8200000E100E09DC0020000B5084B85B01B7D13
:10C83000019108468DF80C3018F090FB019982B2F6
:10C8400003A8FFF71BFC05B05DF804FB509704003C
:10C8500000B583B008460DF10601ADF80620FFF7DC
:10C860000FFC20B99DF8060003B05DF804FB002022
:10C8700003B05DF804FB00BF70B4234B0E460546C1
:10C880000FCB85B06C4607C49DF900202380B242CF
:10C8900034D09DF90130B34230D09DF90230B3421B
:10C8A0002CD09DF90330B34228D09DF90430B34217
:10C8B00024D09DF90530B34220D0FEB19DF9073058
:10C8C000B3421BD09DF90830B34217D09DF909300F
:10C8D000B34213D09DF90A30B3420FD09DF90B300B
:10C8E000B3420BD09DF90C30B34207D09DF90D3007
:10C8F000B34203D0002005B070BC7047012085F81A
:10C900001E6705B070BC70476897040090F91E0759
:10C91000704700BF80F83017704700BF70B50446FD
:10C9200082B0D0F82C070D4610F028FE4FF47A7232
:10C9300006460023A90DA80217F056F90023024667
:10C940000421D4F82C07009310F0ECFD0EB102B0D6
:10C9500070BD0096D4F82C0733463246032110F000
:10C96000E1FD02B070BD00BF70B500F5E66400F5F2
:10C97000F065002654F8040F20B1FEF727F808B13F
:10C980000136F6B2AC42F5D1304670BD132906D857
:10C9900000EB8101D1F8340708B1FEF717B8002089
:10C9A000704700BFB0F83207704700BF01290CBFC5
:10C9B000B0F80E07B0F81407704700BF13299ABFEC
:10C9C00000EB8101D1F834070020704710B5064C08
:10C9D0000021D4F828070FF093F8D4F82407002199
:10C9E000BDE810400FF08CB80068002090F8303798
:10C9F00003B9704710B582B0D0F82C470FF022FF72
:10CA00000023024600932046012110F08BFD02B066
:10CA100010BD00BFF0B583B0002405462346D0F812
:10CA20002C0700942246032110F07CFD05F5E666F4
:10CA300005F5F06756F8040F20B1FDF7C7FF08B100
:10CA40000134E4B2BE42F5D195F8303743B1211E2E
:10CA500018BF01210C2003B0BDE8F04012F024B84B
:10CA600003B0F0BD0148FFF7F1BC00BF0068002033
:10CA700000207047002201214270C0E901220170AC
:10CA8000C2818281704700BF10B50446017001B1B8
:10CA900010BD0A200EF09EFD606010BD037810B539
:10CAA000044643B1002301226370C4E90133E381EA
:10CAB000A381227010BD40680FF036FBF2E700BF83
:10CAC000002381608281C381704700BF037870B505
:10CAD00004460D46B3B94668012363704FF47A7279
