:020000022000DC
:107000000000042015D2030055D2030057D203001C
:1070100059D203005BD203005DD2030000000000E0
:107020000000000000000000000000009DD00300F0
:1070300061D2030000000000BDD0030065D2030050
:1070400069D4030067D2030067D2030051360300FE
:107050000537030067D20300CDA5030067D2030004
:1070600067D2030067D2030067D2030067D2030030
:1070700067D2030067D2030067D2030067D2030020
:1070800067D20300EDCD030067D2030067D203008F
:1070900067D2030067D2030099C0020067D20300E1
:1070A00067D2030067D2030067D2030067D20300F0
:1070B00067D2030067D20300000000000000000058
:1070C00067D2030067D2030067D203007DD90300B3
:1070D00067D2030067D2030067D20300D1D4020055
:1070E00067D2030067D2030067D2030000000000EC
:1070F0000000000067D2030000000000F5D9030083
:10710000000000000000000000000000000000007F
:10711000000000000000000000000000000000006F
:10712000000000000000000000000000000000005F
:10713000000000000000000000000000000000004F
:10714000000000000000000000000000000000003F
:10715000000000000000000000000000000000002F
:10716000000000000000000000000000000000001F
:10717000000000000000000000000000000000000F
:1071800000000000000000000000000000000000FF
:1071900000000000000000000000000000000000EF
:1071A00000000000000000000000000000000000DF
:1071B00000000000000000000000000000000000CF
:1071C00000000000000000000000000000000000BF
:1071D00000000000000000000000000000000000AF
:1071E000000000000000000000000000000000009F
:1071F000000000000000000000000000000000008F
:10720000F1EE103A43F08073E1EE103A704700BFA0
:1072100010B5054C237833B9044B13B10448AFF3D0
:1072200000800123237010BD7C630020000000005B
:10723000DCAF040008B5034B1BB103490348AFF3AF
:10724000008008BD0000000080630020DCAF040067
:10725000154B002B08BF134B9D46A3F5803A002128
:107260008B460F461348144A121A1CF0EFFA0F4BC4
:10727000002B00D098470E4B002B00D098470020E1
:10728000002104000D000D48002802D00C48AFF387
:1072900000801CF069FA2000290016F013F81CF099
:1072A0003DFA00BF000008000000042000000000BC
:1072B000000000007C63002078A100200000000096
:1072C0000000000033DF70473FDF704741DF704749
:1072D00012DF7047014B01221A707047A46500202D
:1072E00000B58BB0014601A813F0B2F9154801A909
:1072F00012F034FF144804F09DFE28B901A813F0E1
:10730000B5FA0BB05DF804FB01A907A813F0BAF9B0
:107310000E4907A813F0FEFA014604A813F0B2F9CB
:1073200007A813F0A3FABDF818200499084802F042
:107330000DFD04A813F09AFA01A813F097FA0BB008
:107340005DF804FBD46F00205C670020488C0400CB
:10735000E86600200000000070B510EE100A10EE84
:10736000106A1BF0CFFC64A3D3E9002304460D464A
:107370001BF0A6FF002840F09C8061A3D3E9002306
:10738000204629461BF09CFF002840F096805EA313
:10739000D3E90023204629461BF092FF002840F045
:1073A0008A805BA3D3E90023204629461BF088FF8F
:1073B000002840F0848007EE106AF1EE007AB4EE07
:1073C000E77AF1EE10FA7CDA53A3D3E900232046E2
:1073D00029461BF075FF002875D151A3D3E900237E
:1073E000204629461BF06CFF00286ED14EA3D3E93E
:1073F0000023204629461BF063FF002869D14CA3D7
:10740000D3E90023204629461BF05AFF002862D109
:1074100007EE106AF0EE0E7AB4EEE77AF1EE10FAAB
:107420005BDA45A3D3E90023204629461BF048FF39
:10743000002854D142A3D3E90023204629461BF05B
:107440003FFF00284DD140A3D3E900232046294621
:107450001BF036FF00283AD13DA3D3E90023204694
:1074600029461BF02DFF00283DD107EE106AF0EEF3
:107470000C7AB4EEE77AF1EE10FA36DA36A3D3E9F5
:107480000023204629461BF01BFF80BB34A3D3E911
:107490000023204629461BF013FF50BB32A3D3E93B
:1074A0000023204629461BF00BFF003818BF01209F
:1074B00070BD642070BD5A2070BD5F2070BD552026
:1074C00070BD502070BD462070BD3C2070BD0A20AC
:1074D00070BD322070BD282070BD1E2070BD1420EC
:1074E00070BD0F2070BD072070BD052070BD03204A
:1074F00070BD022070BD00BFCDCCCCCCCCCC104038
:107500009A999999999910406666666666661040E0
:1075100033333333333310409A99999999990F4003
:107520003333333333330F40CDCCCCCCCCCC0E40C3
:107530006666666666660E409A99999999990D40B5
:107540003333333333330D40CDCCCCCCCCCC0C40A7
:107550006666666666660C409A99999999990B4099
:107560003333333333330B406666666666660A40F0
:10757000D0B52DED028B8AB013F010FB6C4A136866
:1075800042F6DF61C31A8B4203D80AB0BDEC028B0E
:10759000D0BD65A7D7E900679FED668A10600A2411
:1075A000232016F09FFD1BF09BFB32463B461BF051
:1075B00001FC1BF099FE07EE900A013C38EE278A89
:1075C000EED15D49DFED5D8A07A813F041F85C4814
:1075D00007A912F09FFD5B4868EE288A04F02AFD97
:1075E000002840F0998007A813F040F90221B0EE7E
:1075F000680A01A813F0FCF8514801A912F0AEFD89
:10760000504804F017FD00286DD101A813F02EF9A1
:10761000DFED4D7AB4EEE78AF1EE10FA32DA9FED43
:107620004B0A4B4CFFF798FE4A49207007A813F00D
:107630000FF8434807A912F06DFD424804F0FAFC28
:10764000002849D107A813F011F921780A2201A8CE
:1076500013F032F83A4801A912F080FD394804F0DD
:10766000E9FC00BB01A813F001F93B4802F036FB2E
:107670003749012280B1384802F068FB0AB0BDECFE
:10768000028BD0BDB1EE010AF4EEC08AF1EE10FA21
:1076900098BFB0EE680AC4E72F4802F003FB0AB0B7
:1076A000BDEC028BD0BD01A907A812F0EBFF2B495E
:1076B00007A813F02FF9014604A812F0E3FF07A86A
:1076C00013F0D4F8BDF818200499254802F03EFBC9
:1076D00004A813F0CBF8C5E7BDF82420079920488B
:1076E00002F034FBAEE701A907A812F0CBFF1B495B
:1076F00007A813F00FF9014604A812F0C3FF07A86A
:1077000013F0B4F8BDF818200499154802F01EFBD8
:1077100004A813F0ABF878E7BDF8242007991048C7
:1077200002F014FB5FE700BFC64B378941605D3F45
:10773000A865002000000000F47E0400CDCCCC3D04
:10774000D46F00205C6700200000044233335340B4
:1077500004600020087F0400A8630020488C040017
:10776000E86600200000000070B5A74D2DED028BEB
:107770002B68002B8AB0044640F3E980A34E07EE45
:10778000903A96ED007AF8EEE77AC7EE278A38EE5F
:10779000A88A9F4907A812F05BFF9E4807A912F02C
:1077A000B9FC9D4804F046FC002840F01F8107A862
:1077B00013F05CF829680A2207A812F0B1FF954877
:1077C00007A912F0A7FC944804F034FC002840F00C
:1077D000068107A813F04AF8904907A812F038FF6D
:1077E0008C4807A912F096FC8B4804F023FC002873
:1077F00040F0EE8007A813F039F8B0EE680A0121D6
:1078000007A812F0F5FF834807A912F083FC82480D
:1078100004F010FC002840F0D48007A813F026F8EC
:107820007F4A9FED807A13681460E31A07EE903A5E
:10783000F8EE677AF4EEC77AF1EE10FA00F1828082
:10784000DFED796A9FED797A67EEA66AC7EE278A3F
:1078500016EE900A1BF056FA02460B4668A1D1E9D3
:1078600000011BF0D1FB1BF03FFD07EE900A704AB0
:107870007048714928EE278AA402A0FB0434FDEE6B
:10788000C87A13686D48A40901330C8017EE901A6A
:1078900013602022ADF82240ADF82030ADF81E1064
:1078A000ADF81C2002F01AFA002840F08480002372
:1078B0006349336007A800232B6012F0C9FE5548C6
:1078C00007A912F027FC544804F0B4FB00286BD140
:1078D00007A812F0CBFF0121B0EE680A07A812F04A
:1078E00087FF4C4807A912F015FC4B4804F0A2FB97
:1078F000002852D107A812F0B9FF524907A812F088
:10790000A7FE444807A912F005FC434804F092FB87
:1079100000283BD107A812F0A9FFB0EE480A0121C8
:1079200001A812F065FF3B4801A912F017FC3A4884
:1079300004F080FB88B901A812F098FF0AB0BDECF2
:10794000028B70BDDFED407ADFED408A8FE79FED5F
:10795000408A2E4EF0EE488A1BE701A907A812F0D4
:1079600091FE3C4907A812F0D5FF014604A812F089
:1079700089FE07A812F07AFFBDF81820049936484E
:1079800002F0E4F904A812F071FFD4E7BDF8242056
:107990000799314802F0DAF9BCE7BDF824200799CD
:1079A0002D4802F0D3F9A5E7BDF8242007992A480D
:1079B00002F0CCF98CE7082207A9204802F0C6F9AA
:1079C00075E7BDF824200799234802F0BFF924E7A2
:1079D000BDF824200799204802F0B8F90AE7BDF85D
:1079E000242007991C4802F0B1F9F2E6BDF82420E2
:1079F0000799194802F0AAF9D9E600BFAFF3008051
:107A0000182D4454FB2119406866002000660020B0
:107A1000207F0400D46F00205C670020347F0400C6
:107A2000B0650020000048436F12833AFF5F6A4749
:107A300088650020D34D6210AC65002030650020C1
:107A4000447F0400507F0400D153FB410000964363
:107A500000000000488C0400E866002030B5214C8E
:107A600083B0002520462571A57325730CF04EF8D0
:107A70004FF47A7013F09EF820460CF015F92A4660
:107A800020465C210CF010F8204608225B210CF007
:107A90000BF82046802258210CF006F870221021A5
:107AA00020460CF001F8042013F084F8102211464F
:107AB00020460BF0F9FF2046102215210BF0F4FFB1
:107AC000204620225E210BF0EFFF1B220DF1070163
:107AD00020460CF049F80521122016F031FB03B0C6
:107AE00030BD00BFB465002010B54E488AB001F02B
:107AF0000FFC00214C4804F073FA0020FFF7E4FB70
:107B00000121032016F0A0FB01210C2016F018FB28
:107B100001210C2016F098FB01210B2016F010FB20
:107B200001210B2016F090FB01210D2016F008FB1F
:107B300001210D2016F088FB00230D220DF102011A
:107B40003A488DF802300CF00FF89DF802203748C3
:107B500002F0F7020D218DF802200BF0A5FF122094
:107B600012F0DAFCFFF77AFF1B220DF103012F4818
:107B70000BF0FAFF0A2013F01DF80321122016F073
:107B8000DFFA322013F016F8294B2A499B6C1F2B81
:107B900086BF03F01F03284A4FF0A04203F5E073AD
:107BA000322042F8231013F005F8244901A812F0FE
:107BB0004FFD01A9224812F0D1FA1B4804F03AFA0D
:107BC00007AC90B901A812F051FE002320468DF8B1
:107BD0001C30FFF77DFB9DF81C30FBB94FF0804354
:107BE0000122C3F800250AB010BD01A9204612F0F9
:107BF00049FD1449204612F08DFE014604A812F0FA
:107C000041FD204612F032FEBDF8182004990E48BE
:107C100002F09CF804A812F029FED3E7FFF752FB0C
:107C20000AB010BD9C6D00205C670020B465002088
:107C3000BC8904000400020000030050607F0400BF
:107C4000D46F0020488C0400E8660020404A414977
:107C5000D2ED007A0B689FED406A9FED407A086094
:107C600030EE670AF5EE006AC31AE0EE267A06EEF9
:107C7000903AF8EE666AC2ED007A67EEA67A384B63
:107C800067EE867AB0EEE76AB4EEC76AF1EE10FAF4
:107C90002DDAD3ED007A9FED336AF4EEC67AF1EE79
:107CA00010FA34DA9FED307AF4EEC77AF1EE10FA7A
:107CB00001D9002070472D492D4AD1ED005A77EEA9
:107CC000867A07EE100A75EEE74AB7EE005A84EEA0
:107CD000A56A0120C3ED007AB8EE477A76EE457AC0
:107CE000A7EEA67AFCEEC77AC2ED007A704793ED54
:107CF000007A1E4A9FED1B6AC2ED007A77EE877A02
:107D0000F4EEC67AF1EE10FAC3ED007ACADB174939
:107D1000174AD1ED004A34EE865A07EE100A35EEC6
:107D2000675AB8EE477AC5EE245A012077EEC67A34
:107D3000B7EE004A35EEC46AC3ED007AF0EE477A3A
:107D4000E6EE867AFCEEE77AC2ED007A704700BF75
:107D50009C630020A06300206F12833A0AD7233C63
:107D6000A46300200000B4430000B4C39863002063
:107D7000E065002010B5364B2DED028B1A7882B0ED
:107D8000AAB912F00BFF334B1A684EF66023801A23
:107D9000984203D9304B1B78002B52D0FFF7E8FBF9
:107DA00002B0BDEC028BBDE81040FFF78FBA002295
:107DB0002A481A700BF090FD294B9FED2A7AD3EDDB
:107DC000007AF0EEE76AF4EEC76AF1EE10FA1BDD16
:107DD000254B264A186892ED007ADFED256A254981
:107DE000BDEEC00A0B6810EE104A201A00EE100A11
:107DF000B8EEC00A013380EE276A0B60F0EE477AD6
:107E0000E6EE267AC2ED007A1B480CF039F91A48E2
:107E1000B0EE408A0CF080F960EE007AE8EE087A65
:107E2000B1EEE70A8DED010A12F0B8FE9DED010AF0
:107E3000FFF70CFF0028A4D0104B1868FFF794FC44
:107E40009FE70F48FFF74CFAFFF74EFEA6E700BF8B
:107E5000A4650020B06500207C640020E46500205B
:107E600008600020BD37863540670020006600208E
:107E7000D7A3303E68660020B4650020E06500208E
:107E8000787F040070B5744892B011F021FF7349F7
:107E9000734800220CF030FC71480CF013FD0028F0
:107EA00000F0938000241F220AA96D480C94CDE9AC
:107EB0000A44CDE90D44CDE90F4411940CF060FC67
:107EC00012AB03440AA803F8204C1BF00BFC51EC46
:107ED000100B1BF009FA634E6349306007AC204673
:107EE00012F0B6FB6148214612F014F9604804F024
:107EF000A1F8002840F0898001AD204612F0B6FCC0
:107F000096ED000A0621284612F072FC57482946D1
:107F100012F024F9564804F08DF800287CD1284648
:107F200012F0A4FC4E480CF0A1FC52495248002229
:107F30000CF0E2FB50480CF0C5FC034600283DD095
:107F400000241F220AA94C480C94CDE90A44CDE92B
:107F50000D44CDE90F4411940CF012FC12AB034414
:107F60000AA803F8204C1BF0C0FB444E4449306083
:107F700007AC204612F06CFB3C48214612F0CAF8D0
:107F80003B4804F057F800285FD101AD204612F0BD
:107F90006DFC31680A22284612F0F6FB3348294668
:107FA00012F0DCF8324804F045F8A8B9284612F07F
:107FB0005DFC31480CF05AFC12B070BD2F4A3148BC
:107FC0001360FFF78DF912B070BD264B2E480022CA
:107FD0001A60FFF785F9A8E72946204612F052FB00
:107FE0002A49204612F096FC014604A812F04AFBEA
:107FF000204612F03BFCBDF818200499244801F0FB
:10800000A5FE04A812F032FCD0E7BDF824200799A1
:108010001F4801F09BFE6FE72946204612F032FB15
:108020001A49204612F076FC014604A812F02AFBF9
:10803000204612F01BFCBDF818200499144801F0EA
:1080400085FE04A812F012FC69E7BDF82420079908
:108050000F4801F07BFE98E7FC850020947F040028
:108060001864002008600020A87F0400D46F00205E
:108070005C670020E87F0400046600204067002061
:10808000F47F040004800400C07F0400488C0400D6
:10809000E86600202DE9F0436E4CDFF8EC816E4F6E
:1080A0006E4E6F4DDFF8E49183B00022204601212F
:1080B00003F08AFD2046012103F092FF20460821AB
:1080C00003F040FF2046674903F014FF4FF420728D
:1080D00020464FF4A07102F05FFB20464FF47A6116
:1080E00002F06CFB0421204602F060FB404603F0E6
:1080F00045FA3846102101F0A9FD00223846112129
:1081000001F0BCFD3846082101F0A6FD384601F01B
:108110001BFA3046022101F099FD00223046112160
:1081200001F0ACFD3046042101F096FD304601F02F
:108130000BFA042221230DEB02013046019301F0DA
:10814000B1FD2846282101F081FD11221146284663
:1081500001F094FD2846142101F07CFD01224249E2
:10816000424E434F284601F08FFD284601F0ECF9BE
:10817000484603F003FA3046122101F067FD002261
:108180003046112101F07AFD3046012101F064FDF5
:10819000304601F0D9F9642301220DF10301304684
:1081A0008DF8033001F07EFD3248334D03F0E6F9DF
:1081B0003846102101F04AFD00223846112101F015
:1081C0005DFD3846142101F045FD384601F0BCF94B
:1081D00028460C2101F03AFD11221146284601F0F3
:1081E0004DFD2846142101F035FD01222349284682
:1081F00001F04AFD04F5C864284601F0A5F90621FE
:10820000204600F08DFF204600F072FF204600F06F
:1082100041FF4146204600F027FF4946204600F036
:1082200023FF2046012100F0ADFFF422204620214B
:1082300000F0A4FF20461E2100F09EFF20460021F2
:1082400001F000F80E490F4811F0CEFF03B0BDE871
:10825000F08300BF5C67002030650020D8640020F8
:1082600080640020208004008D880200A863002024
:10827000E8660020D0660020786600205D8F02004E
:1082800030800400D46F00208C6500200064002042
:1082900030B557488DB04FF4E131054604F094FDF8
:1082A00012F07CFC044605E012F078FC001BB0F5EF
:1082B000FA6F04D2284604F09FFD0028F4D04D4800
:1082C000FFF70EF84C480BF0BBF80C2015F0D4FE6D
:1082D000032015F0D7FE0121162015F031FF0021F3
:1082E000162015F0B1FF01210E2015F029FF002105
:1082F0000E2015F0A9FF0021232015F021FF0121F8
:10830000032015F01DFF0021032015F09DFF022121
:10831000084615F015FF0123032202213748009378
:1083200000230BF09FFA4B2012F044FC0322344947
:10833000022011F0EDFF4FF47A7012F03BFC31484F
:10834000FEF7CEFF30480BF0AFFC3049044609A8D9
:1083500012F07EF9264809A911F0DCFE2C4803F042
:1083600069FE28BB09A812F081FA0A22214603A857
:1083700012F0D6F91E4803A911F0F0FE244803F0CC
:1083800059FEE0B903A812F071FA1CB12148FEF7BA
:10839000A7FFFEE7FFF776FDFFF77CFE12F0FEFB7E
:1083A0001D4B02461D481A60FEF79AFF0DB030BD06
:1083B000BDF82C2009991A4801F0C8FCD2E703A99E
:1083C00009A812F05FF9174909A812F0A3FA0146AB
:1083D00006A812F057F909A812F048FABDF82020B3
:1083E00006990F4801F0B2FC06A812F03FFAC9E75F
:1083F000D46F00205480040084840020E4650020B1
:10840000D572020070800400B465002080800400F2
:108410005C67002094800400B0650020A880040000
:10842000E8660020488C040010B5044B044640F870
:10843000083B03F0DFF8204610BD00BF5083040066
:108440002DE9F04163496448644D654CDFF8DC81F7
:10845000644E654F84B00CF0A1F85E4963480CF09F
:108460009DF86A22002162480BF0F2FA28460BF0D0
:10847000E5F922465F4928461AF0DAFA684641F6DD
:10848000180103F0BFF86946404603F093F86846C8
:1084900003F0B0F82246314640461AF0C9FA684661
:1084A00042F66321544DDFF8888103F0ABF869464A
:1084B000384601F095FB684603F09CF822462946B1
:1084C00038464E4F1AF0B4FA684642F6652103F07A
:1084D00099F86946384601F083FB684603F08AF84C
:1084E000224629463846464F1AF0A2FA684642F616
:1084F000662103F087F86946384601F071FB68464B
:1085000003F078F82246294638463E4F1AF090FA92
:10851000684641F60F0103F075F86946384603F0E6
:1085200049F8684603F066F8224631463846364F29
:108530001AF07EFA684642F6192103F063F869469C
:10854000384601F04DFB684603F054F822462946B0
:1085500038462E4F1AF06CFA2D49684603F060F841
:108560006946384603F026F8684603F043F8224689
:10857000314638461AF05CFA2649274F274E68469E
:1085800003F04EF86946404601F02AFB684603F0C6
:1085900031F82246294640461AF04AFA20496846F0
:1085A00003F03EF86946384601F01AFB684603F0CE
:1085B00021F82246294638461AF03AFA1949304637
:1085C00012F046F81849224630461AF031FA04B043
:1085D000BDE8F081FC85002018640020E4650020DF
:1085E000006000202984020030650020046600201D
:1085F000B46500206138030015950200D86400209E
:108600008064002000640020A8630020D066002061
:10861000F080040018810400786600206C66002059
:1086200040810400688C04006DA803008C65002064
:10863000E86600202DE9F0418CB0874903A812F0CC
:1086400007F803A9854811F089FD854803F0F2FC7D
:1086500009AC002840F0948003A812F007F94FF409
:108660007A7012F0A7FA12F099FA0025DFF8188252
:1086700007462E4603E00BF027F900285AD112F0E6
:108680008DFAC31BB3F57A6F4046F4D3002D61D148
:10869000744E75493560204611F0DAFF6F48214667
:1086A00011F038FD6E4803F0C5FC002840F09A80B8
:1086B000204612F0DBF831680A2203A812F064F8B1
:1086C000664803A911F04AFD654803F0B3FC002891
:1086D0006FD103A812F0CAF8644965480BF050FE48
:1086E0006249644801220CF007F8002835D031684F
:1086F0000A22684612F048F8029A00995D480BF089
:1087000059FE5C480CF0B2F85B4903A811F0A0FFD9
:10871000524803A911F022FD514803F08BFC0028B8
:1087200067D103A812F0A2F8684612F09FF80CB0C7
:10873000BDE8F08140460BF0CFF807EE906AF8EE06
:10874000E77A013537EE800AC82DFDEEC07A17EEC4
:10875000906A94D196FBF5F59AE7484903A811F081
:1087600077FF3E4803A911F0F9FC3D4803F062FC95
:10877000002857D103A812F079F80CB0BDE8F081B9
:1087800003A9204611F07EFF3D49204612F0C2F8B1
:10879000014606A811F076FF204612F067F8BDF8F2
:1087A00020200699374801F0D1FA06A812F05EF8A9
:1087B00052E703A9204611F065FF3149204612F027
:1087C000A9F8014606A811F05DFF204612F04EF808
:1087D000BDF8202006992B4801F0B8FA06A812F03F
:1087E00045F876E7BDF82C200999264801F0AEFA45
:1087F0005EE703A9204611F045FF2149204612F00B
:1088000089F8014606A811F03DFF204612F02EF827
:10881000BDF8202006991B4801F098FA06A812F02E
:1088200025F87EE703A9204611F02CFF14492046C5
:1088300012F070F8014606A811F024FF204612F04D
:1088400015F8BDF8202006990E4801F07FFA06A819
:1088500012F00CF88EE700BFC8810400D46F00202E
:108860005C67002040670020E8810400E87F040086
:10887000FC85002004660020688104007C810400DF
:10888000488C0400E8660020E46500207BB330B526
:1088900013780C2B83B004460ED02025022201460B
:1088A00013488DF805308DF804508DF8062001F03E
:1088B0005FFAA0B903B030BD0E490F4811F094FC27
:1088C000FFF7B8FE0D4B0A481B68ADF8043021468F
:1088D0001B0C8DF8063001F04BFA0028EAD0214637
:1088E000032301AA024801F073FA03B030BD7047B8
:1088F00080640020FC810400D46F00201C820400EE
:108900002DE9F0412DED028B8AB0BD4901A8B0EEF2
:10891000408A11F09DFEBB4801A911F01FFCBA4826
:1089200003F088FB002840F02A8101A811F09EFF87
:1089300012F034F90024B54F0646254641F2873837
:1089400004E00AF0C1FF002840F0FA8012F026F996
:10895000831B43453846F4D9002C40F002819FED3B
:10896000AC0AAC4E28EE008A3568B5EEC08AF1EE4E
:1089700010FAA4EB050540F2F780002D00F0F4801A
:1089800007EE905AF8EEE77AA34FA44987EE887A6B
:1089900007A887ED007A11F05BFE9A4807A911F04D
:1089A000B9FB994803F046FB002840F0098107A86D
:1089B00011F05CFF21460A2201A811F0E5FE914862
:1089C00001A911F0CBFB904803F034FB002840F0E4
:1089D000AA8101A811F04AFF914907A811F038FEB9
:1089E000884807A911F096FB874803F023FB00286D
:1089F00040F0928107A811F039FF31680A2201A8DE
:108A000011F0C2FE7F4801A911F0A8FB7E4803F0D7
:108A100011FB002840F0678101A811F027FF814970
:108A200007A811F015FE774807A911F073FB7648E7
:108A300003F000FB002840F04F8107A811F016FF5B
:108A400029460A2201A811F09FFE6E4801A911F0E3
:108A500085FB6D4803F0EEFA002840F0248101A860
:108A600011F004FF704907A811F0F2FD654807A94D
:108A700011F050FB644803F0DDFA002840F00C814F
:108A800007A811F0F3FEB0EE480A062101A811F084
:108A9000AFFE5C4801A911F061FB5B4803F0CAFA24
:108AA000002840F0E08001A811F0E0FE5F4907A82F
:108AB00011F0CEFD534807A911F02CFB524803F0EA
:108AC000B9FA002840F0C88007A811F0CFFE97ED52
:108AD000000A062101A811F08BFE4A4801A911F0F5
:108AE0003DFB494803F0A6FA002870D101A811F017
:108AF000BDFE4F48FEF7F4FB4E494F480BF040FCDB
:108B00004C494E4801220BF0F7FD002850D097ED5C
:108B1000000A062107A811F06BFE099A0799474839
:108B20000BF048FC45480BF0A1FE4548FEF7D8FB8A
:108B300007A811F09BFE0AB0BDEC028BBDE8F081E6
:108B400038460AF0C9FE07EE905AF8EEE77A01348B
:108B500037EE800AC82CFDEEC07A17EE905A7FF4EB
:108B6000F5AE95FBF4F4FAE63648FEF7B9FB364B62
:108B700000221A700AB0BDEC028BBDE8F08101A999
:108B800007A811F07FFD314907A811F0C3FE014687
:108B900004A811F077FD07A811F068FEBDF81820B1
:108BA00004992B4801F0D2F804A811F05FFEBCE64E
:108BB0002848FEF795FB0AB0BDEC028BBDE8F081BA
:108BC000BDF824200799224801F0C0F8EFE601A97A
:108BD00007A811F057FD1D4907A811F09BFE01469B
:108BE00004A811F04FFD07A811F040FEBDF81820B1
:108BF0000499174801F0AAF804A811F037FE75E7A8
:108C000020820400D46F00205C670020E46500200F
:108C10000AE81C41406700200860002060820400D0
:108C2000E881040070820400808204008C820400C9
:108C3000A8820400947F0400FC85002018640020B2
:108C4000908104003C8204007C640020488C040075
:108C5000E8660020AC810400BDF8242007993E4856
:108C600001F074F830E701A907A811F00BFD3B49AA
:108C700007A811F04FFE014604A811F003FD07A854
:108C800011F0F4FDBDF818200499334801F05EF8A6
:108C900004A811F0EBFD06E7BDF8242007992E4843
:108CA00001F054F8ECE601A907A811F0EBFC2B4900
:108CB00007A811F02FFE014604A811F0E3FC07A855
:108CC00011F0D4FDBDF818200499234801F03EF8B6
:108CD00004A811F0CBFDC2E6BDF8242007991E4878
:108CE00001F034F8A9E601A907A811F0CBFC1B4953
:108CF00007A811F00FFE014604A811F0C3FC07A855
:108D000011F0B4FDBDF818200499134801F01EF8C5
:108D100004A811F0ABFD7FE6BDF8242007990E48AA
:108D200001F014F866E601A907A811F0ABFC0B49A5
:108D300007A811F0EFFD014604A811F0A3FC07A855
:108D400011F094FDBDF818200499034800F0FEFFCF
:108D500004A811F08BFD3CE6E8660020488C040076
:108D600030B587B0044611F0C7FE6F4903A811F073
:108D70006FFC6E4803A911F0CDF96D4803F05AF964
:108D800000286ED103A811F071FD6848214611F04A
:108D9000E5F9674803F04EF9002849D1654903A871
:108DA00011F056FC03A9204611F0E4FD054603A886
:108DB00011F05CFD2DB1B2EE040AFFF7A1FD07B082
:108DC00030BD5D4903A811F043FC03A9204611F012
:108DD000D1FD054603A811F049FD1DB1FFF72AFC9E
:108DE00007B030BD554903A811F032FC03A9204655
:108DF00011F0E2FD054603A811F038FD002D37D033
:108E0000A3682146012203A811F0FAFD03A811F07E
:108E100073FE03A811F09AFEB5EEC00AF1EE10FA47
:108E200065DDFFF76DFD03A811F020FD07B030BD33
:108E3000214603A811F026FC414903A811F06AFD60
:108E40000146684611F01EFC03A811F00FFDBDF8A5
:108E5000082000993B4800F079FF684611F006FDB4
:108E60009CE7BDF814200399364800F06FFF89E7AE
:108E7000354903A811F0ECFB03A9204611F07AFD57
:108E8000054603A811F0F2FC002D3BD12F4903A8A1
:108E900011F0DEFB254803A911F03CF9244803F04A
:108EA000C9F840BB03A811F0E1FC2048214611F0AD
:108EB00055F91F4803F0BEF8002880D0214603A8CA
:108EC00011F0E0FB1E4903A811F024FD014668469D
:108ED00011F0D8FB03A811F0C9FCBDF808200099D7
:108EE000184800F033FF684611F0C0FC67E71848E7
:108EF000FEF7F6F997E7BDF814200399114800F042
:108F000025FFCFE74FF08043A822C3F81C25BFF30D
:108F10004F8F1049104BCA6802F4E0621343CB60D4
:108F2000BFF34F8F00BFFDE7C4820400D46F002061
:108F30005C670020DC820400F0860400E08204000C
:108F4000488C0400E8660020F8820400FC820400DB
:108F5000E482040000ED00E00400FA05002B3AD0A2
:108F600070B5013B1C4E86B012FA83F5541E14F8FE
:108F7000011F304611F0ACFCA542F8D1174E16483F
:108F800001230A21337011F02BFD041E1FDB124D4B
:108F9000234600222946684611F032FD621C00215A
:108FA000284611F05BFD694603A811F06BFB03A88E
:108FB000FFF7D6FE03A811F059FC0A21284611F04C
:108FC0000FFD0446684611F051FC002CE0DA002346
:108FD000337006B070BD70476C6600207C64002062
:108FE00072DF704773DF704774DF704777DF704759
:108FF00038B5054608460C4602F032FB102803D06F
:1090000080280ED0012038BDEB7FA2881B2B0EDC00
:10901000E9180320E85448704A80EB7F0433EB776B
:10902000F0E7A368002BEDD0E97F0D2901DD0020DA
:1090300038BD6A18112068540721517058681C689F
:109040009968DB68C2F80E30C2F80600C2F8024028
:10905000C2F80A10EB7F1233EB77012038BD00BF56
:109060000022C2770270704730B5D1E9042485B080
:10907000CD68074B00936946CDE902240195FFF7BF
:10908000B7FF0446684602F0B5FA204605B030BD89
:1090900068830400F0B589B006462022134869466B
:1090A00002F03CFFF37FC2181D2A0CDDC3F11D0442
:1090B000E4B2E2181D2A4FF00005D8BF082705DDED
:1090C000284609B0F0BD044601250927F218601CA6
:1090D000F05469465770901C22461AF08FFBF27FBD
:1090E000023214442846F47709B0F0BD5C670020D2
:1090F00010B50446094802F06FFFE37F1C2B01DD29
:10910000002010BDE2180221E1540A239070537030
:10911000E37F0333E377012010BD00BF5C670020CD
:10912000C27F1C2A01DD0020704710B403469C1842
:10913000022098540120A1706070DA7F0332DA7740
:109140005DF8044B704700BF10B4084A084C094949
:1091500002620022C0E90A41C0E90C225DF8044B1A
:109160000270C27742628263704700BFFF01010054
:109170002000F40020001E00C18570470185818514
:109180004285704780F82210704700BFF0B5154641
:1091900005EB8503274A89B0044603EB83030020CF
:1091A0000E469B0011680290CDE90460ADF81430C2
:1091B00094F821308DF80830CB07CDE906000390F4
:1091C00009D41D491D4BC87FE77F988101201C6091
:1091D00099609F801060194902AA04F12000FFF7EE
:1091E000FFFE10B1002009B0F0BD94F82010144823
:1091F000019102F0F1FE019902460120FFF7F6FE0F
:109200000028EFD194F820000121FFF7EBFE0028A1
:10921000E8D10B4802F050FF628EA68595424FF0D0
:10922000010094BF521B921A628684F8230009B091
:10923000F0BD00BF44670020D86D002048670020C3
:109240005C670020F0B5002361F30F032D4D044649
:1092500061F31F4389B00363FA21284602F0C4FE7C
:10926000E68D2949278D0868049706EB860303EBF2
:10927000830300229B000592ADF8143094F821304E
:1092800002928DF80830C307CDE9062203920BD471
:109290001E4BE27F95F89B069A8005F27C650122C1
:1092A0001C609D6098810A60184902AA04F12000A0
:1092B000FFF796FE10B1002009B0F0BD94F8201021
:1092C0001048019102F088FE019902460120FFF743
:1092D0008DFE0028EFD194F820000121FFF782FED7
:1092E0000028E8D1074802F0E7FE638EA7859E427A
:1092F0004FF0010094BF9B1BDB1A638684F82300A8
:1093000009B0F0BD5C67002044670020486700207A
:1093100010B5044690F82000FFF766FE08B1002063
:1093200010BD84F82300024802F0DAFE012010BDCF
:109330005C67002030B50B888D88112B85B0044602
:1093400005D0262B33D0102B25D005B030BD436A75
:10935000EB40DB07F9D52E4801F0FEF90028F4D1E7
:10936000636A94F82310012202FA05F523EA050343
:1093700063620029E9D194F82230002BE5D0238ED6
:1093800023486386FA2102F02FFEE28D218D2046CC
:10939000FFF7FCFED9E7CB7B012BD6D1426A03FA5B
:1093A00005F515430023456280F82330CDE70B7A9D
:1093B000012BCAD1002380F823304FF4FA711448EE
:1093C00002F012FE238E5BB1658E95B1A36B0BB1DB
:1093D0009847658E618D2A462046FFF7D7FEB4E791
:1093E000A36B03B19847618D00222046FFF7CEFEA4
:1093F000ABE7074802F074FE626B002AA5D0009527
:1094000003AB29462846039514F0CCFC9DE700BF2A
:109410005C67002075DF704710B44FF010144FF4F4
:1094200048010022C0E90041C0E902225DF8044B76
:10943000704700BF014800F095BF00BF4C6E002090
:10944000F8B500250D4F2E4601E0142D14D0A9B219
:10945000384602F019FE013504460028F5D000F028
:109460001BFE0028F1D0204600F020FE022804BF99
:109470000136F6B2142DEAD13046F8BD5C67002003
:1094800070B58E881B480C4694B0314602F0FCFD46
:1094900023881A2B05D01F2B1CD0102B0FD014B0F3
:1094A00070BD054600F0FAFD0028F8D0284600F00F
:1094B000F7FD0028F3D1284600F058FEEFE7694693
:1094C00000F03CFE0028EAD06A4631460A4801F026
:1094D000F1FCE4E754F8080F61686B4603C33046BB
:1094E000BDF80030ADF802306946FFF793FF14B0C5
:1094F00070BD00BF5C6700207C670020AADF70475A
:10950000ABDF7047ACDF7047ADDF7047AEDF704751
:10951000B0DF704710B5044B044640F8043B02F03E
:1095200069F8204610BD00BF2083040010B5054B2C
:10953000044640F8043B02F05DF8204613F004FFB7
:10954000204610BD2083040070B57B4B04461B6889
:10955000836196B0043002F093F894F82E30A0693D
:1095600013F0320208BF84F82F2013F00C0308BF59
:1095700084F830300DF10102694602F031F894F8B8
:109580002F209DF8010015070DD09DF8001002F066
:109590000F0301F00F059D424FEA12126DD243EA0C
:1095A000021284F82F2094F8303019070BD003F002
:1095B0000F0100F00F058D424FEA131369D241EA03
:1095C000031384F8303094F82E1011F0300340F07B
:1095D00096800FAD0F93C5E90133C5E903338DF8CC
:1095E0003C10AB610021ADF809109DF80A10206A0B
:1095F0001493012363F342018DF808208DF80A10BB
:1096000008B1037873BB94F8263013B104F1260334
:10961000129394F831200023D2070893079358BF80
:10962000E38AADF81C3004F1080004F12F01CDE904
:10963000050154BF1846E08AADF82000294604F120
:109640003203E569099505AA0020FFF757FF054693
:1096500028B994F8253043BB237D002B64D02846DD
:1096600016B070BD10901AF0D4FF02AB80B2ADF806
:109670004400ADF846001393C5E74FEA111101D13C
:1096800091428CD30A462B4643EA021284F82F20DB
:1096900089E74FEA101001D1984290D3034629463A
:1096A00041EA031384F830308DE7ADF80D009DF8E2
:1096B0000E2094F82F600C90012363F3420242F6CF
:1096C00008118DF80E208DF8123004AA0223ADF88F
:1096D000101003A90D90ADF83030ADF834300A9277
:1096E00004F124030B910DF102020AA98DF80C601C
:1096F0000E93FFF705FF0028AED00546AFE70F4BEE
:109700008DF805200FAD1B788DF804300220002362
:109710000F938DF80600C5E90133C5E90333AB614A
:109720008DF83C1001AB5DE72146054800F0D6FFFF
:10973000284616B070BD00BF58670020148304008F
:109740009C6B00202DE9F0410B888E88502B8AB04D
:109750000C46054609D0512B04D18B79012B19D029
:10976000022B26D00AB0BDE8F081CB88428E9A4207
:1097700035D0EA8E9A42F5D16B6D002BF2D095F878
:109780004420648A920700F18A80224629463046A6
:109790009847E7E7836C002BE4D090F84420520709
:1097A00001F108076CD43A46294630469847A37918
:1097B000D6E7A27B042A46D0062A20D0012AD1D19E
:1097C000EB6C002BCED095F84420170704F1080469
:1097D00000F1A5802246294630469847C2E7076D2A
:1097E000002FC6D090F84430D90768D404F112088D
:1097F000238A424629463046B847E388B9E7EA6BF0
:10980000002AAFD0002202A93046CDE90222CDE9DC
:109810000422ADF80C208DF80830FFF779FE2C6D8E
:1098200054B195F84430D80700F19280B5F8423031
:10983000EA6B30462946A047E86B11F0F1F90023A6
:10984000C5E90F338EE7E86B002878D0B5F84010F3
:10985000278A628A07EB020C00234FF0020E8C4528
:10986000CDE90633CDE908338DF818E039DD40F253
:109870000913ADF81C3006A93046FFF749FE71E721
:1098800003211A46009106AB08213846CDE906654A
:10989000089714F087FA002889D1AB6C83E703207E
:1098A00000211A46009006AB0846CDE906650894EB
:1098B00014F078FA00287FF455AF6B6D65E7218AC4
:1098C000069604F11208042300933A46404606AB7C
:1098D000CDE90881079514F065FA00288DD12F6D28
:1098E00086E79DF81EC0ADF81C3004F114014CF061
:1098F00001033844ADF822208DF81E300991ADF8EF
:10990000207019F07BFF238A618AB5F842200B444E
:109910009BB2934238BF1346A5F84230ABE7032110
:109920001A46009106AB0E212046CDE90665089443
:1099300014F038FA00287FF415AFEB6C4AE74FF4C7
:10994000806011F053F94FF48061C5E90F017FE7A2
:10995000E86BB5F84210069604230093224606AB46
:10996000CDE90750099114F01DFA00287FF464AF87
:109970002C6D5BE72DE9F04F0F464FF6FF718F42DC
:1099800089B0064615461C4627D0F18A96F82E3037
:109990008C4228BF0C469B0615D40DF1100B8C424F
:1099A00028BF0C464FF00008718EADF810405A46A3
:1099B0004FF6FF700595ADF81280FFF7A3FD404606
:1099C00009B0BDE8F08F3648394602F045FB8046C5
:1099D00008B1F18E31B9F18ADFE7314802F048FB76
:1099E0000746D2E7002002230DF1100BADF812005C
:1099F000ADF810305A460DF10E0338460593FFF7C7
:109A000083FD43F20143984247D008B9BDF80E00E8
:109A100000F00200002840D02148394602F034FB13
:109A2000824688B300F044FB033883B2002CC6D0D2
:109A3000CDF804804FF00009984608E000F0A0FB44
:109A400010B3BDF80E30E41AA4B21D4414B34FF0A5
:109A50000200A0458DF812000DF10E00738EADF8D6
:109A600010304246CDE9060528BF22465946384601
:109A7000CDF813908DF81790ADF80E20FFF746FD46
:109A800003465046002BD9D04FF00008404609B09D
:109A9000BDE8F08FDDF8048091E7F18A7FE700BF31
:109AA0005C6700202DE9F04F0F464FF6FF718F42A3
:109AB00089B0064615461C4626D0F18A96F82E3007
:109AC0008C4228BF0C46DB0615D40DF1100B8C42DE
:109AD00028BF0C464FF00008718EADF810405A4672
:109AE0004FF6FF700595ADF81280FFF70BFD40466D
:109AF00009B0BDE8F08F3948394602F0ADFA08B137
:109B0000F18E31B9F18AE0E7344802F0B1FA074644
:109B1000D3E7002002230DF1100BADF81200ADF8D1
:109B200010305A460DF10E0338460593FFF7ECFC52
:109B300043F2014398424FD000284AD19DF80E804D
:109B400008F00108B8F1000F46D02448394602F069
:109B50009BFA8246A0B300F0ABFA033883B2002C24
:109B6000C5D0CDF804804FF00009984605E0BDF857
:109B70000E30E41AA4B21D4444B3504600F0ACFACF
:109B8000A04503464246594628BF22463846BBB147
:109B9000ADF80E204FF00102738E8DF812200DF1FA
:109BA0000E02CDE90625CDF813908DF81790ADF88B
:109BB0001030FFF7ABFC0028D9D0504600F096FAE1
:109BC0004FF00008404609B0BDE8F08FDDF8048092
:109BD0008DE700F00108B5E7F18A78E75C670020BF
:109BE00070B44E68164A86600260D1E90262154B75
:109BF000154D1C7845600261142500220321C0E93F
:109C00000F22C0E91222C0E91422C660C58280F882
:109C1000311080F844200275826102628284C0F8AB
:109C20002620C0F82A2080F82E20C2614286426396
:109C3000028780F82F4080F8304070BC704700BF2A
:109C400020830400148304006883040080F82E102D
:109C5000704700BFC182704741B190F83130C18276
:109C6000002262F3000380F83130704790F8313001
:109C7000012262F3000380F83130704780F82F1022
:109C800080F83020704700BF90F84430016562F3DF
:109C9000000380F84430704751F8322F0260496861
:109CA0004160704730B5C48A83B0944223460D4664
:109CB00028BF1346418E019500246A464FF6FF7077
:109CC000ADF80030ADF80240FFF71CFC18B9BDF844
:109CD000000003B030BD204603B030BD30B50446AF
:109CE00085B0194802F0C4F994F82E3013F010032F
:109CF00002D1184605B030BD05460146124802F0B3
:109D0000ABF90028F6D0E18E11B9084605B030BD98
:109D10000DF1060328460024022502AA0393ADF89C
:109D20000A40ADF80850FFF7EFFB43F201439842B9
:109D300005D030B99DF8063003F00100DAE720467F
:109D4000D8E700F00100D5E75C67002010B490F878
:109D50002E4014F0100407D013465DF8044B0A4659
:109D60004FF6FF71FFF79EBE20465DF8044B70472B
:109D700090F82E3013F0200301D11846704730B50B
:109D8000044685B011480D4602F066F910B1E18E27
:109D900011B9084605B030BD0DF106032846002470
:109DA000022502AA0393ADF80A40ADF80850FFF768
:109DB000ABFB43F20143984206D008B9BDF8060058
:109DC000C0F3400005B030BD2046E3E75C670020EB
:109DD00010B490F82E4014F0200403D05DF8044B2A
:109DE000FFF7C8BD20465DF8044B7047A1DF704700
:109DF000A3DF7047A4DF704700238383704700BF51
:109E0000006A00F0E3B800BF808B70472DE9F04195
:109E10000B88CE88382B86B00C46054606D0392BE9
:109E200066D0362B43D006B0BDE8F08100F12407A0
:109E3000002E36D10A8A3846314602F0E5F994F808
:109E40000C80B8F1010F2CD0B8F1040FEBD1286AC7
:109E500000F0BCF801465C4802F016F900F028F961
:109E60002A8E053883B2934228BF1346002B00F098
:109E70009A80218AE289286AAC8B8DF80D600A44A9
:109E8000E96A05918DF80C80ADF81230ADF810201C
:109E9000ADF80E4000F09AF803A9FFF7A9FF0028DB
:109EA000C1D0384602F0C8F906B0BDE8F081006ABA
:109EB00000F08CF80146444802F0E6F800F0F8F8AB
:109EC00007466EBB05F12406E289304604F1100115
:109ED00002F09AF92B8E2BB1F81EE38980B201387B
:109EE000834255DA304602F0A7F906B0BDE8F081AA
:109EF0000B7B012B1AD0022B95D1836B002B92D0B8
:109F000090F83C208F8892071FD401F11006E28957
:109F100031462846984761893846FFF76BFF82E74C
:109F200005F12407384602F087F9BDE7436B002BA3
:109F30003FF479AF90F83C20D10717D404F1100614
:109F4000E2893146284698476DE7C989039004F1B4
:109F5000100603201A46009003AB3046CDE9046199
:109F600013F020FF0028D6D1AB6BD0E7E189039036
:109F700004F1100603201A46009003AB3046CDE9E9
:109F8000046113F00FFF00287FF44DAF6B6BD7E730
:109F9000286A00F01BF86A8EA98B92B2FFF726FFA1
:109FA00000289FD13FE7AA8B286AADF80E2040F227
:109FB0000511ADF80C10CDE9043300F007F803A942
:109FC000FFF716FF6DE700BF5C67002080887047D1
:109FD0008FDF704790DF7047B1DF7047B5DF7047A4
:109FE00010B5074B03600446806A11F06DFCE06A0F
:109FF00011F06AFC206B08B111F066FC204610BD20
:10A000003883040010B5094B03600446806A11F0E0
:10A010005BFCE06A11F058FC206B08B111F054FCB5
:10A02000204613F091F9204610BD00BF388304008C
:10A0300070B504460D4692E80300A5800E0CA061A1
:10A04000A183144DA67717201B2156892560E08037
:10A050009589D089E181D1796581012222752274A7
:10A06000A08161741846194626819DF8105010F0A1
:10A0700081FE2946A062284610F07CFE4FF48851EC
:10A0800000234FF6FF72E182E06262822363637510
:10A09000204670BD38830400007D7047407D7047C6
:10A0A000C07D113818BF0120704700BF407C704749
:10A0B000C0887047008970474B7D10B44BB11F3189
:10A0C0000C688A888B79046082805DF8044B837108
:10A0D00070471831F4E700BF08B56621806A11F0B7
:10A0E0006BFA003818BF012008BD00BF08B5002377
:10A0F0001A461946806A10F06FFE003818BF01201A
:10A1000008BD00BF818800F11F02407C02F0DAB870
:10A1100038B50A4605460C468188407C02F0BEF8F8
:10A120002146012051F8483FC5F81F308B888A79B5
:10A1300085F82520A5F82330687538BD38B50A465E
:10A1400004460D4600F11801407C02F0F1F86075FC
:10A1500050B1294651F8483FC4F81F308B888A799E
:10A1600084F82520A4F8233038BD00BF10B5447D05
:10A1700024B100F11F01407C02F0B8F8204610BD68
:10A1800038B5032204460021012010F0B1FD00255E
:10A190004FF0FF312063A57511F00EFA206B11F01E
:10A1A00093FBA07D256338BD70B50B88113B82B051
:10A1B0000C460546462B2BD8DFE803F0383B2A2A0D
:10A1C0002A2A2A2A2A422A2A2A2A2A2A50585E6415
:10A1D0002A2A2A2A2A2A2A2A2A2A2A2A2A2A2A2ADF
:10A1E0002A2A2A2A2A672A942A2A2A2A2A2A2A2A28
:10A1F0002A2A2A2A2A2A2A2A2A2A2A2A2A246A2A85
:10A20000752C84000023A8881A461946FFF7E4FE3F
:10A2100002B070BD8B79002BFAD1006BAB750028B2
:10A22000F6D01A46194610F0D7FDF1E70023037562
:10A23000EEE74B8903818B894381CB898381E7E7F3
:10A240000B7AC375112BE3D0818800F11F02407C8B
:10A2500002F026F903460028DAD1D4E7002301A949
:10A260008088ADF80430FFF7B3FED1E70B7A002BFE
:10A27000CED14B7A0374CBE7002211468088FFF7DA
:10A28000A9FEC5E70B89C381C2E74B89C380BFE73D
:10A29000006B0123AB750028BAD000231A4619467B
:10A2A00010F09AFDB4E7417C164801F0E5FEE38822
:10A2B0000146994228BF194689B2A888E980FFF76C
:10A2C0008DFEA5E78B79002BA2D0002600231A462D
:10A2D0001946A86A10F080FD0136A279F3B29A42BD
:10A2E000F4D895E78B7A002B92D0002600231A46EB
:10A2F0001946E86A10F070FD0136A27AF3B29A426C
:10A30000F4D885E75C67002070B58AB086880B4674
:10A3100006A84FF42851144605934FF6FF7501F037
:10A3200071F90120CDE90105059B0094314606AA8B
:10A33000044800F06FF8044606A801F05BF92046D7
:10A340000AB070BD9C6B002010B50446043001F0CB
:10A35000F7FE034B236000232375204610BD00BF8A
:10A360000100FFFF017D01B1704710B504460430C4
:10A3700001F0F0FE0123237510BD00BF007D704782
:10A380000B88322B10B504D0332B17D0302B08D0CC
:10A3900010BDCB88DBB1041D2046BDE8104001F0A4
:10A3A0004BBFCB88041D002BF6D14B89002BF3D07B
:10A3B0000A3120460A2201F027FFEDE7CB88002B67
:10A3C000E9D14A89002AE6D002EB420204E04A8938
:10A3D000002AE0D002EB82025200041D023292B247
:10A3E0000A31204601F010FFD6E700BFA0DF70471A
:10A3F00010B5044600F5F87001F0A2FE2046F822E0
:10A40000002119F023FAF822A018002119F01EFAF1
:10A41000204610BD2DE9F04782B00546BDF82C60FE
:10A42000BDF830402048ADF80460BDF828A0ADF874
:10A430000640904699460F4601F026FE05F5F87550
:10A44000064603E0FFF736FE10F0B4FB284601F0A5
:10A45000D9FE04463046002CF4D10121284601F0F3
:10A4600079FE52464946284601F090FE08F1040163
:10A47000384601AAFFF7BAFF30B1284601F074FE52
:10A48000204602B0BDE8F0874FF4FA71284601F08B
:10A4900083FE20EAE074284601F066FEA4B220465E
:10A4A00002B0BDE8F08700BF5C6700202DE9F04FE7
:10A4B0008F880D8885B0884604463946864801F065
:10A4C000E3FDA5F11003012B814640F2908094F842
:10A4D00054203AB3002633461633502D54F823A0A7
:10A4E00069D0512D1AD198F80630B8F808B0022B6F
:10A4F00053D0BBF1000F11D051466846FFF7CCFB9B
:10A50000BDF800305B4559D0514602A8FFF7C4FBA7
:10A51000BDF80C305B4551D094F854200136F3B2AD
:10A520009342D9D394F84C31002B00F0D18004F53C
:10A53000A679002604E094F84C310136B34220DDC0
:10A5400059F8040FFFF75CFCB842F4D1382D03D062
:10A55000392D01D0362DEED1B8F80AA0BAF1000F8E
:10A56000E9D0D9F800B05846FFF74EFC5045E2D18B
:10A5700058464146FFF74AFC94F84C310136B34245
:10A58000DEDC112D55D0352D04D1B8F80A30002B62
:10A5900040F08F8005B0BDE8F08F98F80E30062BA4
:10A5A000A7D1DAF800305046DB6841469847484664
:10A5B000FFF776FDB0E7B8F806B09AE7DAF80030B2
:10A5C0005046DB68414698474846FFF769FD00283A
:10A5D000A2D0502DA0D1514602A8FFF75DFBBDF8D7
:10A5E0000C305B4598D14846FFF78CFD94E7237803
:10A5F000002B3FF46CAF0026112D33460CD004EB3A
:10A6000083033946586803685B68984701362278A7
:10A61000F3B29A42F3D85AE704EB830339465868F9
:10A6200003681B68984701362278F3B29A42F3D840
:10A630004DE7D3B10026334605E094F84C210136AE
:10A64000F3B29A4211D904EB8305D5F85001FFF714
:10A65000D7FBB842F1D1D5F85001FFF7CDFB013659
:10A6600094F84C21F3B29A42EDD894F8F820002ADD
:10A6700090D000252B4604EB8303D3F8FC0083889D
:10A68000BB420AD00135EBB2934283D204EB830381
:10A69000D3F8FC008388BB42F4D103681B68984759
:10A6A000013594F8F820EBB29342E4D305B0BDE84D
:10A6B000F08F04F5F874B8F80C20204608F110016A
:10A6C00001F0A2FD204605B0BDE8F04F01F0B4BD99
:10A6D000112D7FF458AFC8E75C67002090F8542034
:10A6E000272A0CD810B4034602F11604013280F870
:10A6F000542043F8241001205DF8044B70470020DB
:10A70000704700BF0378132B06D800EB8302013398
:10A7100003700120516070470020704778DF704758
:10A720007ADF7047054A034692E80300002283E877
:10A730000300C3E902221846704700BF40830400AB
:10A7400008B5FFF7EDFF08B1002008BDFFF7E6FFF1
:10A75000B0FA80F0400908BDF8B500250D4F2E462F
:10A7600001E0142D14D0A9B2384601F08DFC01355A
:10A7700004460028F5D0FFF78FFC0028F1D02046D2
:10A78000FFF794FC012804BF0136F6B2142DEAD17C
:10A790003046F8BD5C67002008B501804280FFF7B5
:10A7A000BFFFB0FA80F0400908BD00BF08B5818046
:10A7B000FFF7B6FFB0FA80F0400908BD08B5C180C8
:10A7C000FFF7AEFFB0FA80F0400908BD704700BF48
:10A7D0008ADF704730B40D4CC4621F25002250241C
:10A7E0008584A025C0E91122C0E90F22A0F84650B7
:10A7F000A0F84840006230BC8262028680F83820AF
:10A800004263C264A0F85020704700BF000180007E
:10A810002DE9F04F10468DB016460C4600F020FF93
:10A82000C5B2102D4FD0B66807220623A16994F84F
:10A830001C9001918DF80D208DF80C30ED080DF174
:10A840000C080DF10E0A0027B9F1010F0A97CDE9A6
:10A850000477CDE90677CDE90877CDF82B700ED9CE
:10A8600098F8000001994B464A7882420FD00A7846
:10A87000D4432344013213F0FF031144F4D108F10F
:10A880000108C245E0D100200DB0BDE8F08F11F8FD
:10A89000024B013CE4B2224604A818F0AFFF0DF1D0
:10A8A000100B1CB9EBE714F0FF04E8D058462A4619
:10A8B000314618F095FF641BAB440028F3D101200A
:10A8C0000DB0BDE8F08F043603220223AEE700BFCF
:10A8D0002DE9F0430B888E88103B87B00D46044667
:10A8E0000D2B2CD8DFE803F077072B2B2B2B2B2BF2
:10A8F0002B2B2B842B2E836AF340DB071FD5564866
:10A90000FEF79EFDD8B9A36A94F82C20012505FA1C
:10A9100006F623EA0606A6628AB994F82D3073B1CA
:10A920001F232462A38404F1200104F14400FFF7F3
:10A930004FFF20B9494801F0BFFB84F82C5007B005
:10A94000BDE8F08390F92E2091F91B309A423ADC51
:10A9500090F8383001F108080BB3DFF804910026B5
:10A9600002E0D6B2B34218D9636BCDF8089003EB7E
:10A97000061302AA59680391D3E90273414620469F
:10A9800005930497FFF744FF074602A800F032FE44
:10A9900094F83830721C002FE3D09E4213D094F804
:10A9A0002F30002B49D095F82430012B0BD9296A80
:10A9B0004A78FF2A30D00A78D0430344013213F09A
:10A9C000FF031144F4D104F120010020FFF700FF40
:10A9D00007B0BDE8F083CB7B022BB0D1836A0122A4
:10A9E00002FA06F633430022836280F82C20A6E7A1
:10A9F0000B7A012BA3D1002580F82C50174801F0C9
:10AA00006FFB226C002A9AD0009502AB294628469B
:10AA1000029513F0C7F992E711F8025B6A1ED2B2F1
:10AA2000022A28BF022202A818F0E8FE012DCAD08F
:10AA3000228EBDF808309A42C5D1E26B002A3FF45D
:10AA40007EAF01230093404602AB2421CDF808805D
:10AA500013F0A8F973E700BF6C6700205C67002063
:10AA60006883040046DF70477FDF704780DF7047F0
:10AA700081DF704785DF704786DF704738B51C4639
:10AA80000D460346114628462246984734B10146F2
:10AA900000222846BDE83840FFF7E8BF38BD00BFB8
:10AAA00010B50C4682B003466946204698476A4670
:10AAB00020460121FFF7DAFF02B010BD10B50446B1
:10AAC000083001F017FF074B236003220023227197
:10AAD000C4F81034C4F81434C4F81834C4F81C345E
:10AAE000204610BD3507100330B50446ADF55F7D37
:10AAF00000F108058F4801F091FE0821284601F079
:10AB0000FDFE684601F004FF6846082101F004FFDD
:10AB10006946284601F0A2FE04F54F7141226846BD
:10AB200001F008FF684601F001FF94F85C0394F817
:10AB30005B2394F83D1394F83E3384F83D0384F886
:10AB40003E2394F85A0394F8592394F83F5384F819
:10AB50005C1384F85B3394F8401394F8413384F821
:10AB60003F0384F8402394F8580394F8572384F85B
:10AB70005A5384F8591394F8425394F8431384F8C1
:10AB8000410384F8583394F8560394F8443384F816
:10AB9000422394F8552384F8575384F8430384F8E8
:10ABA000442384F8553384F8561394F8451394F8E5
:10ABB000540394F8532394F8463384F8450384F8F7
:10ABC000462394F8520394F8512394F8475384F899
:10ABD000541384F8533394F8481394F8493384F8A1
:10ABE000470384F8482394F8500394F84F2384F8DB
:10ABF000525384F8511394F84A5394F84B1384F841
:10AC0000490384F8503394F84E0394F84C3384F895
:10AC10004A2394F84D2384F84F5384F84B0384F867
:10AC20004C2384F84D3384F84E1394F85D1394F854
:10AC30007C0394F87B2394F85E3384F85D0384F8F6
:10AC40005E2394F87A0394F8792394F85F5384F898
:10AC50007C1384F87B3394F8601394F8613384F8A0
:10AC60005F0384F8602394F8780394F8772384F8DA
:10AC70007A5384F8791394F8625394F8631384F840
:10AC8000610384F8783394F8760394F8643384F895
:10AC9000622394F8752384F8775384F8630384F867
:10ACA000642384F8753384F8761394F8651394F864
:10ACB000740394F8732394F8663384F8650384F876
:10ACC000662394F8720394F8712394F8675384F818
:10ACD000741384F8733394F8681394F8693384F820
:10ACE000670384F8682394F8700394F86F2384F85A
:10ACF000725384F8711394F86A5394F86B1384F8C0
:10AD0000690384F8703394F86E0394F86C3384F814
:10AD10006A2394F86D2384F86B03012084F86F5341
:10AD200084F86E1384F86C2384F86D330DF55F7D21
:10AD300030BD00BFE86E00200B7803F0FE03042B4B
:10AD400001D00020704770B515468CB00C4620220B
:10AD5000002104A818F07AFD28686968AA68EB68E1
:10AD60006D460FC59DF800109DF80F209DF80160FD
:10AD70009DF80E509DF802008DF80F1023469DF8A7
:10AD80000D108DF800209DF803208DF80E608DF8D1
:10AD900001509DF80C609DF804508DF80D008DF861
:10ADA00002109DF80B009DF805108DF80C209DF801
:10ADB0000A208DF803608DF80B508DF804008DF893
:10ADC00005208DF80A109DF8061033F8042FADF811
:10ADD00010209B789DF809209DF81D009DF81060BB
:10ADE0009DF81F508DF809108DF806209DF8111060
:10ADF0009DF81E208DF81D309DF807308DF812004B
:10AE00008DF81F609DF808009DF813608DF81050B4
:10AE10008DF81E109DF81C509DF814108DF811200F
:10AE20008DF808309DF81B209DF81A308DF807002A
:10AE30008DF81C608DF813509DF815608DF81B106F
:10AE40008DF8142068468DF815309DF819109DF87E
:10AE500017209DF818309DF816508DF818208DF8A1
:10AE600016108DF817308DF81A608DF81950FFF70D
:10AE7000F9FD62789DF82F309DF82E009DF82D1079
:10AE80008DF821009A428DF8221004F1010404D0BB
:10AE9000012080F001000CB070BD6278C3B29A420C
:10AEA00004F10104F4D16278CBB29A42F0D10020CF
:10AEB000EFE700BF08B5137CDB0758BF1C3208461C
:10AEC00002F11201FFF7D6FDB0FA80F0400908BD8B
:10AED000F0B58F880E46ADF56B7D04463946464881
:10AEE00001F0D2F83388133B0546072B2FD8DFE853
:10AEF00013F03E005F006D002E002803870008005D
:10AF00003100337AB3B9737B9B070ED4294602A86C
:10AF1000FFF7D2F80299BDF80C209DF80E3084F8A6
:10AF20000C34C4F80614A4F80A24284604F2BE31EE
:10AF3000FFF7EEF8D4F818244AB1307A0D900223C6
:10AF40000021009308460CAB0C9712F02BFF0DF577
:10AF50006B7DF0BDD4F81C24002AF8D00123002119
:10AF6000009308460CAB0C9712F01CFFEFE704F2BD
:10AF7000BE3304F2DA320C9304F2F6330025109259
:10AF8000119304F23D3204F27E330F921393CDE914
:10AF90000D551295FFF78AF801280CBF22462A4664
:10AFA0000CAB29463846FFF75FFD0DF56B7DF0BD14
:10AFB0000CA9FFF7C3F80346002800F0D2820CA9C1
:10AFC000384600231AAAFFF757FDC0E7D4F810143B
:10AFD0000029BCD0B37B094A03F001030F9304237B
:10AFE000CDE90C1706F10800009306210CAB0E907A
:10AFF00012F0D8FEABE700BF5C6700207DAA02001C
:10B0000094F87E3394F89D2394F87FC394F89C635E
:10B0100094F8805394F89B0384F89D33042194F8AA
:10B020009A3384F87D1384F87E2394F8811394F87E
:10B03000822384F89CC384F87F6394F899C394F8BE
:10B04000836384F89B5384F8800394F8985394F8AE
:10B05000840384F89A1384F8813394F8971394F84E
:10B06000853384F8992394F8962384F882C384F86E
:10B07000986384F8835384F8970384F8841384F8DE
:10B08000852384F8963394F8862394F8953394F8BE
:10B0900087C394F8946394F8885394F8930394F8CE
:10B0A000891384F8952384F8863394F8922394F8CE
:10B0B0008A3384F894C384F8876394F891C394F82E
:10B0C0008B6384F8935384F8880394F8905394F82E
:10B0D0008C0384F8921384F8892394F88F1394F8DE
:10B0E0008D2384F8913394F88E3384F88AC384F8DE
:10B0F000906384F88B5384F88F0384F88C1384F85E
:10B100008D3384F88E2394F89E2394F8BD3394F8FD
:10B110009FC394F8BC6394F8A05394F8BB0394F8CD
:10B12000A11384F8BD2384F89E3394F8BA2394F8CD
:10B13000A23384F8BCC384F89F6394F8B9C394F82D
:10B14000A36384F8BB5384F8A00394F8B85394F82D
:10B15000A40384F8BA1384F8A12394F8B71394F8DD
:10B16000A52384F8B93394F8B63384F8A2C384F8DD
:10B17000B86384F8A35384F8A41384F8B62384F83E
:10B18000A53384F8B70394F8A60394F8B51394F89C
:10B19000A72394F8B43394F8A86394F8B35384F8CD
:10B1A000B50384F8A61394F8A90394F8B21384F8AD
:10B1B000B42384F8A73394F8AA2394F8B13384F81D
:10B1C000B36384F8A85394F8AB6394F8B05384F84D
:10B1D000B20384F8A91394F8AC0394F8AF1384F87D
:10B1E000B12384F8AA3394F8AD2394F8AE3384F8ED
:10B1F000AD3384F8AE2384F8B06384F8AB5384F89D
:10B20000AF0384F8AC130CA801F082FB0CA8082152
:10B2100001F082FB04F27D310CA8412201F09CFB7D
:10B220000CA904AA202304F1080001F045FB0CA896
:10B2300001F07CFB9DF810109DF82F009DF8113057
:10B240009DF82E209DF812609DF82D508DF810006D
:10B250008DF82F109DF813009DF82C108DF81120FB
:10B260008DF82E309DF814209DF82B308DF812505B
:10B270008DF82D609DF815509DF82A608DF81310FB
:10B280008DF82C009DF816109DF829008DF81430CB
:10B290008DF82B209DF817309DF828208DF815602B
:10B2A0008DF82A508DF816008DF817208DF828306B
:10B2B0008DF829109DF818109DF827009DF8193079
:10B2C0009DF826209DF81A609DF825508DF81800ED
:10B2D0008DF827109DF81B009DF824108DF819207B
:10B2E0008DF826309DF81C209DF823308DF81A50DB
:10B2F0008DF825609DF81D509DF822608DF81B107B
:10B300008DF824009DF81E109DF821008DF81C304A
:10B310008DF823209DF81F309DF820208DF81D60AA
:10B320008DF822508DF821108DF81F208DF82030D7
:10B330008DF81E0094F87E0394F89D1394F87F23F3
:10B3400094F89C3394F8806394F89B5384F89D039D
:10B3500084F87E1394F8810394F89A1384F89C235C
:10B3600084F87F3394F8822394F8993384F89B63AC
:10B3700084F8805394F8836394F8985384F89A037C
:10B3800084F8811394F8840394F8971384F899232C
:10B3900084F8823394F8852394F8963384F898637C
:10B3A00084F8835384F8841384F8962384F88533CF
:10B3B00084F8970394F8860394F8951394F88723F8
:10B3C00094F8943394F8886394F8935384F895032D
:10B3D00084F8861394F8890394F8921384F89423DC
:10B3E00084F8873394F88A2394F8913384F893632C
:10B3F00084F8885394F88B6394F8905384F89203FC
:10B4000084F8891394F88C0394F88F1384F89123AB
:10B4100084F88A3394F88D2394F88E3384F89063FB
:10B4200084F88B5384F88C1384F88E2384F88D333E
:10B4300084F88F0394F89E0394F8BD1394F89F2327
:10B4400094F8BC3394F8A06394F8BB5384F8BD031C
:10B4500084F89E1394F8A10394F8BA1384F8BC23DB
:10B4600084F89F3394F8A22394F8B93384F8BB632B
:10B4700084F8A05394F8A36394F8B85384F8BA03FB
:10B4800084F8A11394F8A40394F8B71384F8B923AB
:10B4900084F8A23394F8A52394F8B63384F8B863FB
:10B4A00084F8B70384F8A41384F8B62384F8A5338A
:10B4B00084F8A35394F8A65394F8A72394F8B433CC
:10B4C00094F8B50394F8A81394F8B36384F8B553CB
:10B4D00084F8B42394F8A95394F8AA2384F8A733E2
:10B4E00094F8B13394F8B0C384F8A60384F8B31386
:10B4F00094F8B20394F8AB1384F8A86384F8B253B9
:10B5000094F8AC6394F8AF5384F8B12384F8AA3369
:10B5100094F8AD2394F8AE3384F8A90384F8B013FB
:10B52000384604A984F8ABC384F8AF6384F8AC53FD
:10B5300084F8AE2384F8AD33FFF79AFA0DF56B7DEE
:10B54000F0BDD4F81424002A3FF401AD02230021F9
:10B5500000930C920CAB064A0D97084612F022FCA1
:10B56000F5E438461A461946FFF786FAEFE400BFBD
:10B57000A1AA0200A8DF7047704700BF30B504469B
:10B5800083B0083000F07CF804F10C010DF10602E4
:10B590000120FFF7EFFF054628B9044B04481C6063
:10B5A0002146FFF7AFF8284603B030BD58670020AA
:10B5B0009C6B002030B44C68C460D1E90241054A5C
:10B5C000054D0260054A8560C0E90441426030BC17
:10B5D000704700BF5083040068830400000011110D
:10B5E00083790B70C3791370704700BF62DF7047B7
:10B5F00063DF7047704700BF10B5044611F0A4FE2A
:10B60000204610BD10B4054C818000220121046049
:10B61000C0E902225DF8044B817170476883040021
:10B6200038B50E4B0360044608460D4618F0F1FF8E
:10B63000042806D00023A371E560A380A360204600
:10B6400038BD28461022002119F068FF012200238E
:10B65000A271A080C4E90233204638BD688304008B
:10B660008379012B0AD0826832B9C26822B9012BD2
:10B670008CBF8020002070478020704710207047CA
:10B680002DE9F047857982B0002D47D1C76806467D
:10B69000002F47D010200FF0A9FA8246384618F044
:10B6A000B8FF441E30B3DFF88490A84604E00134AC
:10B6B000023C1FD4102D1DD017F804C0BCF12D0F73
:10B6C00007EB0402F3D099F80030ADF805808DF84F
:10B6D000043012F8013C8DF804301022002101A83A
:10B6E0008DF805C019F01AFF6B1C023C0AF8050022
:10B6F000DDB2DFD5C6F808A0BAF1000F0ED0B11D3B
:10B700005046FFF773FFB168321D1020FFF770FF3E
:10B71000B0FA80F0400902B0BDE8F087012002B025
:10B72000BDE8F087D0F808A0E6E700BF5C8304001E
:10B730004DDF70474EDF70474FDF704750DF704777
:10B740004BDF704710DF70477CDF70477DDF70474D
:10B7500060DF704769DF704761DF704766DF704701
:10B7600067DF7047704700BF0C2012F0ADBD00BF0F
:10B7700030B5224C224D83B0D4F828074FF0FF316A
:10B780000FF01AFF0028F7D0C5B101A8FFF7D8FFC6
:10B790000528F1D00028F8D1019B032B1BD8012BE1
:10B7A000F3D918460EF006FCEFE70A2B04D0092B5C
:10B7B00021D00B2B02D1012007F0BEF801A8FFF722
:10B7C000BFFF0528D8D00028F8D1019BA3F10902BA
:10B7D000022AF3D8E9E7A3F10902022AD5D80A2BF5
:10B7E00004D0092B05D00B2BCFD1012007F0A4F8F2
:10B7F000CBE70220FAE70220DEE700BF5C6700200B
:10B80000B59F03002DE9F04F2DED028B4FF4FA7038
:10B8100089B00FF0EBF9B24E00F1080308EE103AD0
:10B82000054606F5F06706F5C86AD6F824074FF016
:10B83000FF310FF0C1FE0028F7D04FF4FA730DF17D
:10B8400016012846ADF81630FFF786FF10B105281F
:10B85000F3D1EAE7B5F80490B9F1130F00F239819A
:10B8600006EB8903D3F834473CB129462046FEF75E
:10B870009BFC9C482946FFF72BFB2B88013B1B2B8D
:10B880005AD8DFE813F01601590059005900590041
:10B8900059005900590059005900590059005900E0
:10B8A00059005900B4001C005900590059005900B2
:10B8B000590059005900590059005900A200DFF8F9
:10B8C00038824FF0000B58F8040F30B1FEF7E4FB5C
:10B8D00018B10BF1010B5FFA8BFBB845F3D1BBF14B
:10B8E000000F06D196F830371BB159460C2012F0E4
:10B8F000ABFC2046FEF7DAFB012800F0EC80F26991
:10B9000062B10223002195F808C00093084606ABF7
:10B91000CDF81890CDF81CC012F044FA09F5E6787D
:10B9200006EB8803586810B103685B68984706EB1C
:10B9300088080023C8F8043029465046FDF7FAFC71
:10B9400069482946FEF7C4FFB6F832374B452B88C5
:10B9500000F0B480102B1ED02CB32046FEF7A6FBBF
:10B96000012803D15E482946FEF730FF2046FEF746
:10B970009DFB02281BD05D48FEF700FD00BB5C4824
:10B980002946FEF793FDD6F88837002B3FF455AFD4
:10B990002846984751E7EB7B012BDDD1AB88A6F811
:10B9A0003237002CD9D14E482946FEF70FFF5148B7
:10B9B0002946FDF765FD4D48FEF7E0FC0028DED086
:10B9C0004A482946FEF7DCFCD9E7D6F88427002A46
:10B9D000B2D00223002195F908C00093084606ABB7
:10B9E000CDF81890CDF81CC012F0DCF9A4E74FF0A8
:10B9F0000008D6F82C07CDF80080434642460321C4
:10BA00003D4C11F05FF954F8040F30B1FEF744FBE0
:10BA100018B108F101085FFA88F8BC42F3D196F832
:10BA200030376BB1B8F1000118BF01210C2012F0C2
:10BA30000BFC96F830371BB101210C2012F004FCEE
:10BA400009F5E67806EB8804606820B103685B6856
:10BA5000984700236360EB7B012B0BBF96F81237EE
:10BA600096F8183796F8134796F819470393342039
:10BA700011F068FC06EB8808039B009418EE102A6E
:10BA800004464946FEF7D4FA2046C8F80440FEF7BB
:10BA90000DFB012832D0B269002A3FF44DAF0123DB
:10BAA00000210093084606ABCDF8189012F07AF901
:10BAB00042E700214846FFF751FE3DE7102B3FF4D7
:10BAC0006AAF112B7FF448AF4FF6FF73A6F83237F9
:10BAD00042E70446D1E6F268002A7FF412AF1DE780
:10BAE0005C6700207C670020F86D00204C6E002011
:10BAF0009C6B00206C6700208C6E0020B268002ACE
:10BB00003FF41AAF0021009006AB0846CDF818901C
:10BB100012F048F910E700BF38B50446FEF702FE00
:10BB200004F11000FDF778FC04F12000FEF7C6FFD9
:10BB300004F58860FEF75CFC04F5C860FDF704FBC3
:10BB400004F27C60FDF78CFA04F29C60FEF742FE82
:10BB500004F5DE60FEF7F8FB4FF480530025C4F8CF
:10BB6000083716481649174AC4F80C0740F2011363
:10BB7000C4F81017C4F81427A4F81837A4F81A57F3
:10BB800004F234702946502217F060FE01224FF66D
:10BB9000FF73A4F81C5784F81E57C4F82457C4F840
:10BBA0002857C4F82C57C4F88857C4F8845784F829
:10BBB0003027A4F83237204638BD00BF010A1700ED
:10BBC0000300010117000300F0B5BF4E80F81C17F9
:10BBD0008DB080F81D27044611F032FC11F038FCBE
:10BBE00011F0F6FB3369B949039303A8FFF7AAFDE7
:10BBF00018B1002528460DB0F0BD0120FFF79AFDD1
:10BC00000120FFF795FD0120FFF796FD09A8FFF73A
:10BC100095FD099B9B0705D5AD4BD3F80435002B4B
:10BC200000F0FE800023AB4A94F80D57049209A956
:10BC30000120CDE909330B938DF82450FFF78AFDDD
:10BC40000028D6D194F81D370B90CDE90900181EB5
:10BC500018BF012094F81C578DF82700049A8DF81E
:10BC6000263009A940208DF82550FFF773FD0028E4
:10BC7000BFD194F80C170990034661F30003CDE996
:10BC80000A00049A8DF8243009A9A020FFF762FD6C
:10BC90000028AED1D4F808370A900B90049A099383
:10BCA00009A9A120FFF756FD0028A2D194F81C375E
:10BCB000002B40F0B98094F81D37002B48D00023AA
:10BCC000B4F81477049A0993022509A92320CDE931
:10BCD0000A338DF82450ADF82670FFF73BFD00289D
:10BCE00087D1CDE9090094F81D77B4F816370B9089
:10BCF000049A8DF8245009A920208DF82670ADF8FB
:10BD00002830FFF727FD00287FF473AF0990CDE9B5
:10BD10000A0094F81837049A8DF8245009A92220B3
:10BD20008DF82630FFF716FD00287FF462AFCDE9CD
:10BD3000090094F819370B90049A8DF8245009A93A
:10BD400021208DF82630FFF705FD00287FF451AF44
:10BD500004A8FFF7FDFC00287FF44BAFCDE90700F6
:10BD600040F0010307A902208DF81C30FFF7F8FC12
:10BD700000287FF43EAF2046FEF7E2FC054600288F
:10BD80003FF437AF04F12000FEF7AEFE337D524999
:10BD90008DF80830182202A8FFF7D6FC00287FF49F
:10BDA00028AF94F81D37002B40F088800322002133
:10BDB00001200EF09DFFC4F8240700283FF419AFBE
:10BDC00005AB0326CDE900634449454800234FF401
:10BDD000A0620FF017FF3246002101200EF088FF0D
:10BDE000C4F8280700283FF404AF06ABCDE9006390
:10BDF0003C493D480023C8220FF004FF3B4B4FF461
:10BE000080021A603A4B00930023184601224FF437
:10BE1000807110F001FFC4F82C0700F019FAE9E670
:10BE2000022006F089FDFDE60990CDE90A00B4F88C
:10BE30000E37049AADF82630012509A923208DF884
:10BE40002450FFF787FC00287FF4D3AECDE909002A
:10BE500094F81C77B4F810370B90049A8DF824509E
:10BE600009A920208DF82670ADF82830FFF772FC64
:10BE700000287FF4BEAE0990CDE90A0094F812378D
:10BE8000049A8DF8245009A922208DF82630FFF756
:10BE900061FC00287FF4ADAECDE9090094F81337BA
:10BEA0000B90049A8DF8245009A921208DF8263092
:10BEB000FFF750FC00283FF4FEAE9AE604F11000B4
:10BEC000FDF7B8FA72E700BFD083040065B702003F
:10BED0000070024000600020AC830400C8830400AE
:10BEE00005B80200CC83040071B7020000E100E055
:10BEF00069B7020000B5084B85B01B7D019108466B
:10BF00008DF80C3018F085FB019982B203A8FFF779
:10BF10001BFC05B05DF804FBD083040000B583B0C2
:10BF200008460DF10601ADF80620FFF70FFC20B919
:10BF30009DF8060003B05DF804FB002003B05DF837
:10BF400004FB00BF70B4234B0E4605460FCB85B0F3
:10BF50006C4607C49DF900202380B24234D09DF97D
:10BF60000130B34230D09DF90230B3422CD09DF95C
:10BF70000330B34228D09DF90430B34224D09DF958
:10BF80000530B34220D0FEB19DF90730B3421BD03B
:10BF90009DF90830B34217D09DF90930B34213D050
:10BFA0009DF90A30B3420FD09DF90B30B3420BD04C
:10BFB0009DF90C30B34207D09DF90D30B34203D048
:10BFC000002005B070BC7047012085F81E6705B0E1
:10BFD00070BC7047E883040090F91E07704700BFEB
:10BFE00080F83017704700BF70B5044682B0D0F8B3
:10BFF0002C070D4610F092FE4FF47A72064600238D
:10C00000A90DA80217F0C0F9002302460421D4F8B4
:10C010002C07009310F056FE0EB102B070BD0096D2
:10C02000D4F82C0733463246032110F04BFE02B001
:10C0300070BD00BF70B500F5E66400F5F065002640
:10C0400054F8040F20B1FEF727F808B10136F6B214
:10C05000AC42F5D1304670BD132906D800EB810102
:10C06000D1F8340708B1FEF717B80020704700BFB9
:10C07000B0F83207704700BF01290CBFB0F80E07B7
:10C08000B0F81407704700BF13299ABF00EB810175
:10C09000D1F834070020704710B5064C0021D4F8C1
:10C0A00028070FF0FDF8D4F824070021BDE8104060
:10C0B0000FF0F6B85C67002090F8303703B970478E
:10C0C00010B582B0D0F82C470FF08CFF0023024649
:10C0D00000932046012110F0F5FD02B010BD00BF15
:10C0E000F0B583B0002405462346D0F82C07009411
:10C0F0002246032110F0E6FD05F5E66605F5F0673A
:10C1000056F8040F20B1FDF7C7FF08B10134E4B2BF
:10C11000BE42F5D195F8303743B1211E18BF012139
:10C120000C2003B0BDE8F04012F08EB803B0F0BDB3
:10C130000148FFF7F1BC00BF5C670020002070479A
:10C14000002201214270C0E901220170C281828176
:10C15000704700BF10B50446017001B110BD0A2040
:10C160000EF008FE606010BD037810B5044643B1C0
:10C17000002301226370C4E90133E381A3812270AB
:10C1800010BD40680FF0A0FBF2E700BF0023816004
:10C190008281C381704700BF037870B504460D46A5
:10C1A000B3B94668012363704FF47A720023A80282
:10C1B000A90D17F0E9F8014630460FF0FDF998B9DE
:10C1C000237800264FF0FF356670A3B9284670BD6E
:10C1D0000322002101200EF08BFD0646606000283E
:10C1E000E0D14FF0FF35F1E7E58923780026ADB2C5
:10C1F0006670002BEAD060680FF066FB6660284628
:10C2000070BD00BF4078704738B5044680898242CF
:10C2100028BF0246154619B1A06817F0EFFAA089A9
:10C22000E389A26815FA83F3401B9BB22A44A081DC
:10C23000E381A260284638BD406820B100231A4639
:10C2400019460EF0C9BD7047B1DF7047B2DF7047C5
:10C2500008B50F480DF03CFD0E490D4808F01CF8DC
:10C2600028B10D490A4808F017F850B108BD09492E
:10C27000074808F02DF80849054808F00DF800288F
:10C28000F4D1BDE808400449014808F021B800BFD6
:10C29000FC850020F88304000C84040070B586B08F
:10C2A0000E4603230021054614460093044A0496D3
:10C2B000084603AB0395059411F074FD06B070BDFC
:10C2C00089C5020070B586B00323144606460D46A4
:10C2D0000093104603AB044A05940721CDE903659A
:10C2E00011F060FD06B070BDB9C6020030B50A4657
:10C2F00091B089795379039111790293D378094DDB
:10C30000094C019100939378527801280CBF29467B
:10C31000214604A818F028F904A9044808F030F8C8
:10C3200011B030BD2084040050840400FC8500203E
:10C330002DE9F043D1B00B78032B04AF0D46044632
:10C34000904668D95A08022A5ED14F4A4F49504B4D
:10C35000DFF84891012818BF11460022381D08F067
:10C36000E7F94B4907F1680008F018F907F1CC0626
:10C3700011E00246414607F1680008F001FA08F1B1
:10C38000380229464846FEF7D7FC044678BB07F139
:10C39000680008F06BFA0022391D304608F098FA60
:10C3A00007F1D0000DC8D7F8DC10D7F8E4407B6760
:10C3B000D7F8E83097F8E0C0F8663A67B9674122E5
:10C3C00007F1EC0107F18800C7E9204387F87CC03A
:10C3D00017F014FA07F1680008F074FA044607F140
:10C3E000680044B108F07AF85028D0D1C1E707F1CD
:10C3F000680008F03BFA381D08F038FA204607F5C7
:10C400009A77BD46BDE8F0830024204607F59A7769
:10C41000BD46BDE8F083E9468CB08979AB786A788F
:10C42000039169790291297901911A4E1A49E878A4
:10C43000009004AD012C08BF3146284607F1CC0618
:10C4400018F092F81249304608F0A8F8294630460C
:10C45000002208F051F9044650B90024304608F093
:10C4600005FA2046CD4607F59A77BD46BDE8F0832C
:10C47000304608F033F8021EEFDD92B241463046F6
:10C4800008F07EF9EAE700BF0C840400F88304009A
:10C49000FC85002020840400508404007C67002078
:10C4A000F0B5ADB095799378344E14465278039533
:10C4B0006579029594F804C0CDF804C0304DE47855
:10C4C000009404AF0C4601280CBF3146294607F101
:10C4D0000C0018F049F82B4B07F10C0107F13C0058
:10C4E000002208F025F907F13C0008F0EBF940B90B
:10C4F000002407F13C0008F0B9F92046A437BD46F6
:10C50000F0BD07F13C0007F0E9FF051E08DD07F16B
:10C510003C0008F073F9291807F13C0008F050F9C5
:10C5200007F13C0007F0DAFF051E08DD07F13C00CB
:10C5300008F064F9291807F13C0008F041F907F107
:10C540003C0007F0CBFF0028D2DDC31D23F007031A
:10C550006D46ADEB030D82B204A907F13C00C7E9BB
:10C56000001208F00DF92046D7E900120323FFF767
:10C570006BFEB0FA80F46409AD46BAE7208404008B
:10C5800050840400FC850020F0B5B5B092F84E5000
:10C5900092F84A30434E144692F84920039594F895
:10C5A0004D50029594F84C50019594F84B500095DD
:10C5B0000D463D4904AF012818BF314607F12C0054
:10C5C00017F0D2FF394807F12C0107F065FE6E46DF
:10C5D00000284AD1354B07F12C0107F15C000122FC
:10C5E00008F0A6F807F15C0008F06CF918B9C43738
:10C5F000B546BD46F0BD502107F15C0007F09CFF39
:10C600005022214607F15C0007F0D4FE00232946A2
:10C6100027487B61C7E90333C7E90633C7E9083315
:10C62000BB62FFF731FD07F10C012022FDF76CFE24
:10C630003B7B03B307F10C0017F0EBFF013082B234
:10C64000C1B207F15C007A6007F076FF7A6807F103
:10C650000C0107F15C0007F0ADFE07F15C0008F08B
:10C6600005F9C437B546BD46F0BD07F12C010F48AA
:10C6700007F086FEAEE794F8491094F84D3094F830
:10C680004E20039194F84A10029194F84B100191B6
:10C6900094F84C10009107F10C00064917F064FF64
:10C6A000C8E700BF5084040020840400FC850020FB
:10C6B0005C670020808404002DE9F043ADB00C4697
:10C6C00004AF0021032306461546204607F10A025F
:10C6D0007981FFF7BBFD7B89E84623B9A437C546BE
:10C6E000BD46BDE8F0830733DB08A8EBC3039D46D6
:10C6F0000DF11009204607F10A0249460323FFF70E
:10C70000A5FD04460028E9D1A979AB786A780391A0
:10C7100069790291297901913D483E49ED7800956A
:10C72000012E08BF014607F10C0017F01DFF3A4B20
:10C7300007F10C0107F13C00012207F0F9FF07F1B6
:10C740003C0008F0BFF80028C8D0214607F13C00A3
:10C7500008F036F807F13C0007F0C0FE041E08DDC3
:10C7600007F13C0008F04AF8211807F13C0008F0F6
:10C7700027F807F13C0007F0B1FE041E08DD07F1C1
:10C780003C0008F03BF8211807F13C0008F018F8CD
:10C7900007F13C0007F0A2FE7C8980B2A04213D0D2
:10C7A000E1B207F13C0007F0C7FE2246494607F117
:10C7B0003C0007F0FFFD07F13C0008F057F8A437F4
:10C7C000C546BD46BDE8F083E31D6D46DB08A5EB1D
:10C7D000C3039D4604A9224607F13C00796007F097
:10C7E000CFFF79687A89484616F0FAFF08B9AD4656
:10C7F000E1E707F13C0008F01DF87B89DB431918DD
:10C8000007F13C0007F0DCFFAD467C89C8E700BFBC
:10C810002084040050840400FC85002038B590F882
:10C82000E8500DB1284638BD012380F8E8300446B1
:10C8300013F006FB0028F5D12046BDE8384000F093
:10C84000ADB800BF10B5044C204600F0A3F800239B
:10C8500084F8E83010BD00BFE86E002003680A6865
:10C860009A4201D00020704770B5044684B04FF45E
:10C8700053700D460EF0BAF90646B0B10C4800F000
:10C88000ABF823460435002153F8042B0095CDE97D
:10C890000161084913F06EF9044630460EF0C0F904
:10C8A000B4FA84F0400904B070BD002004B070BD3B
:10C8B000E86E002051E90300F0B585B006464FF45C
:10C8C00053700D46174603930EF090F978B1044665
:10C8D00000903A46281D311D03AB13F0C9F90546F7
:10C8E00020460EF09DF915B9039805B0F0BD002063
:10C8F00005B0F0BD00220260704700BF10B50446CD
:10C90000084613F027FA2060003818BF012010BD38
:10C9100000220260704700BF10B50446084613F0BD
:10C9200019FA2060003818BF012010BD00230360F1
:10C93000704700BF00B583B00430019201AB0A46D6
:10C94000042113F091F818B9019803B05DF804FBC5
:10C95000002003B05DF804FBF0B5044683B04FF44B
:10C9600063700E4617460EF041F9054678B1019006
:10C9700054F8040B00943A463146012312F0B0FFFC
:10C98000044628460EF04CF9B4FA84F0400903B08E
:10C99000F0BD00BF002280F8E420704770B590F829
:10C9A000E4400CB1204670BD012380F8E430054618
:10C9B0004FF4BF500EF01AF906460028F2D0314667
:10C9C000284612F0B1F90446B4FA84F430466409FA
:10C9D0000EF026F9204670BD704700BF01460148A1
:10C9E00000F0FCBAF46F002038B5064B1D783DB15D
:10C9F00000242046013400F069FEE0B28542F9D8F7
:10CA000038BD00BFF06F0020007EFF280AD010B5AF
:10CA100000F0F6FD044608B1204610BD11F0E2F822
:10CA2000204610BD00207047007EFF280ED000B5C4
:10CA300083B00DF1070100F03FFE20B19DF8070023
:10CA400003B05DF804FB4FF0FF30F9E74FF0FF3023
:10CA5000704700BF007EFF280FD000B583B00122D1
:10CA60000DF1070100F0D8FD20B19DF8070003B0DB
:10CA70005DF804FB4FF0FF30F9E74FF0FF307047EF
:10CA8000007EFF2801D000F021BE7047007EFF2805
:10CA900001D000F089BE0020704700BFF8B50646FF
:10CAA000007EFF281CD017465AB10D46144600F0F0
:10CAB00083FD2946224680B1307E00F051FE241AC3
:10CAC00001D13846F8BD054411F08CF8307E00F0F5
:10CAD00073FD294622460028EED13F1B3846F1E778
