:020000022000DC
:10700000000004205DD803009DD803009FD8030032
:10701000A1D80300A3D80300A5D8030000000000F6
:10702000000000000000000000000000E5D60300A2
:10703000A9D803000000000005D70300ADD8030065
:10704000B1DA0300AFD80300AFD80300E13D03007D
:10705000953E0300AFD80300BDAB0300AFD80300DB
:10706000AFD80300AFD80300AFD80300AFD80300F8
:10707000AFD80300AFD80300AFD80300AFD80300E8
:10708000AFD8030035D40300AFD80300AFD8030056
:10709000AFD80300AFD8030029C80200AFD803005F
:1070A000AFD80300AFD80300AFD80300AFD80300B8
:1070B000AFD80300AFD803000000000000000000BC
:1070C000AFD80300AFD80300AFD80300C5DF03007B
:1070D000AFD80300AFD80300AFD8030061DC0200D3
:1070E000AFD80300AFD80300AFD803000000000002
:1070F00000000000AFD80300000000003DE00300E6
:10710000000000000000000000000000000000007F
:10711000000000000000000000000000000000006F
:10712000000000000000000000000000000000005F
:10713000000000000000000000000000000000004F
:10714000000000000000000000000000000000003F
:10715000000000000000000000000000000000002F
:10716000000000000000000000000000000000001F
:10717000000000000000000000000000000000000F
:1071800000000000000000000000000000000000FF
:1071900000000000000000000000000000000000EF
:1071A00000000000000000000000000000000000DF
:1071B00000000000000000000000000000000000CF
:1071C00000000000000000000000000000000000BF
:1071D00000000000000000000000000000000000AF
:1071E000000000000000000000000000000000009F
:1071F000000000000000000000000000000000008F
:10720000F1EE103A43F08073E1EE103A704700BFA0
:1072100010B5054C237833B9044B13B10448AFF3D0
:1072200000800123237010BD7C630020000000005B
:10723000A4BE040008B5034B1BB103490348AFF3D8
:10724000008008BD0000000080630020A4BE040090
:10725000154B002B08BF134B9D46A3F5803A002128
:107260008B460F461348144A121A1CF013FE0F4B9C
:10727000002B00D098470E4B002B00D098470020E1
:10728000002104000D000D48002802D00C48AFF387
:1072900000801CF08DFD2000290016F037FB1CF04B
:1072A00061FD00BF00000800000004200000000095
:1072B000000000007C630020ECA100200000000022
:1072C0000000000033DF70473FDF704741DF704749
:1072D00012DF7047014B01221A7070470C660020C4
:1072E00083B170B5013B084E12FA83F5541E14F8B1
:1072F000011F304613F0E4FDAC42F8D1034B0122EC
:107300001A7070BD704700BFDC660020E866002080
:1073100070B510EE100A10EE106A1CF017F864A396
:10732000D3E9002304460D461CF0EEFA002840F095
:107330009C8061A3D3E90023204629461CF0E4FA8F
:10734000002840F096805EA3D3E90023204629461A
:107350001CF0DAFA002840F08A805BA3D3E900230E
:10736000204629461CF0D0FA002840F0848007EE21
:10737000106AF1EE007AB4EEE77AF1EE10FA7CDAF8
:1073800053A3D3E90023204629461CF0BDFA002868
:1073900075D151A3D3E90023204629461CF0B4FA45
:1073A00000286ED14EA3D3E90023204629461CF0C5
:1073B000ABFA002869D14CA3D3E900232046294623
:1073C0001CF0A2FA002862D107EE106AF0EE0E7AE5
:1073D000B4EEE77AF1EE10FA5BDA45A3D3E90023C5
:1073E000204629461CF090FA002854D142A3D3E944
:1073F0000023204629461CF087FA00284DD140A3DF
:10740000D3E90023204629461CF07EFA00283AD111
:107410003DA3D3E90023204629461CF075FA002835
:107420003DD107EE106AF0EE0C7AB4EEE77AF1EE99
:1074300010FA36DA36A3D3E90023204629461CF099
:1074400063FA80BB34A3D3E90023204629461CF00D
:107450005BFA50BB32A3D3E90023204629461CF037
:1074600053FA003818BF012070BD642070BD5A2047
:1074700070BD5F2070BD552070BD502070BD46208E
:1074800070BD3C2070BD0A2070BD322070BD282028
:1074900070BD1E2070BD142070BD0F2070BD072070
:1074A00070BD052070BD032070BD022070BD00BFFF
:1074B000CDCCCCCCCCCC10409A99999999991040CC
:1074C0006666666666661040333333333333104086
:1074D0009A99999999990F403333333333330F4045
:1074E000CDCCCCCCCCCC0E406666666666660E40D3
:1074F0009A99999999990D403333333333330D4029
:10750000CDCCCCCCCCCC0C406666666666660C40B6
:107510009A99999999990B403333333333330B400C
:107520006666666666660A40D0B52DED028B42A798
:10753000D7E900679FED388A8AB00A24232017F024
:10754000F5F81BF0F1FE32463B461BF057FF1CF0EE
:10755000EFF907EE900A013C38EE278AEED1DFED15
:107560002F8A2F4907A813F06BFB2E4868EE288A54
:1075700005F028F978BB07A813F070FC01A80221D8
:10758000B0EE680A13F02CFC264805F01BF948BB46
:1075900001A813F063FCDFED247AB4EEE78AF1EE84
:1075A00010FA0FDBB1EE010AF4EEC08AF1EE10FA28
:1075B00098BFB0EE680A0AB0BDEC028BBDE8D040BF
:1075C000FFF7A6BE9FED190A0AB0BDEC028BBDE81D
:1075D000D040FFF79DBEBDF824200799144802F063
:1075E0007DFFC8E701A907A813F044FB114907A8CC
:1075F00013F0B4FC014604A813F03CFB07A813F0F9
:107600002DFCBDF818200499094802F067FF04A872
:1076100013F024FCBCE700BF00000000CDCCCC3D43
:10762000CC8C0400D0670020000004423333534068
:107630005C670020E89A0400C64B378941605D3FD3
:1076400010B58AB013F0CEFD2A4A136842F6DF6106
:10765000C31A8B4201D80AB010BD1060FFF764FF57
:10766000254C2649207007A813F0EAFA244805F0B3
:10767000A9F8002837D107A813F0F0FB217801A85A
:107680000A2213F011FB1E4805F09CF890B901A8DE
:1076900013F0E4FB1B4802F0E9FE1749012220B178
:1076A000184802F01BFF0AB010BD164802F0C2FED7
:1076B0000AB010BD01A907A813F0DCFA124907A807
:1076C00013F04CFC014604A813F0D4FA07A813F0F9
:1076D000C5FBBDF8182004990C4802F0FFFE04A871
:1076E00013F0BCFBD3E7BDF824200799074802F04C
:1076F000F5FEC0E71066002004600020E08C040066
:10770000D0670020A4630020E89A04005C67002092
:107710002DE9F043B64EB74A33682DED028B002BAE
:107720008BB00546106040F3FC80B34F07EE903AF3
:1077300097ED007AF8EEE77A87EE278AAF4907A837
:1077400013F07EFAAE4805F03DF8002840F00D81B8
:1077500007A813F083FB31680A2207A813F0D8FAB0
:10776000A74805F02FF8002840F0F88007A813F08C
:1077700075FBA44907A813F063FAA14805F022F8A5
:10778000002840F00E8107A813F068FB0121B0EE3D
:10779000480A07A813F024FB994805F013F80028BD
:1077A00040F0F88007A813F059FB974907A813F099
:1077B00047FA934805F006F8002840F0E48007A84F
:1077C00013F04CFB914B022193ED000A07A813F034
:1077D00007FB8B4804F0F6FF002840F0CD80DFF86F
:1077E000688207A813F03AFBD8F8004084B32B1B3B
:1077F00007EE903A9FED867AF8EE677AF4EEC77A54
:10780000F1EE10FA00F18880DFED826A9FED827A56
:1078100067EEA66AC7EE278A16EE900A1BF096FD61
:1078200002460B4670A1D1E900011BF011FF1CF0CC
:107830007FF807EE900A38EE088A28EE278AFDEED8
:10784000C87A17EE903A5FFA83F9C3F3072404E08D
:107850009FED728AA146F0EE488A714BC8F800503D
:107860001A6802F10108C3F800806E4A0023A802DA
:10787000A90D1CF0ADF86C49ADF82080034620221C
:107880006A48ADF822308DF81E908DF81F400B80AD
:10789000ADF81C2002F0EAFD002840F09E80002395
:1078A0003B606349002307A8336013F0C9F95448CB
:1078B00004F088FF002840F0898007A813F0CEFA72
:1078C0000121B0EE680A07A813F08AFA4C4804F0C8
:1078D00079FF002873D107A813F0C0FA554907A80B
:1078E00013F0AEF9464804F06DFF002860D107A8F8
:1078F00013F0B4FAB0EE480A01A8012113F070FAAF
:107900003F4804F05FFF80B901A813F0A7FA0BB05D
:10791000BDEC028BBDE8F083DFED477ADFED478AEF
:1079200089E79FED3E8A344F08E701A907A813F0C5
:10793000A1F9434907A813F011FB014604A813F06D
:1079400099F907A813F08AFABDF8182004993D4860
:1079500002F0C4FD04A813F081FAD5E7BDF8242095
:107960000799384802F0BAFD00E7BDF824200799CE
:10797000344802F0B3FDEBE6BDF824200799314806
:1079800002F0ACFD2BE7BDF8242007992D4802F04A
:10799000A5FD14E7BDF8242007992A4802F09EFDB2
:1079A00000E7BDF824200799264802F097FDEAE693
:1079B000BDF824200799234802F090FD97E7BDF811
:1079C000242007991F4802F089FD84E7BDF8242090
:1079D00007991C4802F082FD6FE7082207A91348A7
:1079E00002F07CFD5BE700BF182D4454FB211940D9
:1079F000D86600201C66002070660020F88C040009
:107A0000D06700200C8D04001C8D04001866002037
:107A100000504348BD378635C0E1644C000000008B
:107A20008465002040420F00146600202C65002071
:107A3000248D0400308D0400D153FB410000964397
:107A4000E89A04005C6700204C66002030B5214CA9
:107A500083B0002520462571A57325730CF01EFC0C
:107A60004FF47A7013F0CAFB20460CF0E5FC2A466E
:107A700020465C210CF0E0FB204608225B210CF044
:107A8000DBFB2046802258210CF0D6FB702210210F
:107A900020460CF0D1FB042013F0B0FB102211465D
:107AA00020460CF0C9FB2046102215210CF0C4FB27
:107AB000204620225E210CF0BFFB1B220DF10701A6
:107AC00020460CF019FC0521122016F05DFE03B0D3
:107AD00030BD00BF2066002010B54C488AB001F0D0
:107AE000DFFF00214A4804F043FE0020FFF7ECFBD3
:107AF0000121032016F0CCFE01210C2016F044FEDB
:107B000001210C2016F0C4FE01210B2016F03CFED2
:107B100001210B2016F0BCFE01210D2016F034FED1
:107B200001210D2016F0B4FE00230D220DF10201FB
:107B300038488DF802300CF0DFFB9DF80220354804
:107B400002F0F7020D218DF802200CF075FB1220D7
:107B500012F0DAFFFFF77AFF1B220DF103012D4827
:107B60000CF0CAFB0A2013F049FB0321122016F087
:107B70000BFE322013F042FB274B28499B6C1F2B36
:107B800086BF03F01F03264A4FF0A04203F5E073BF
:107B9000322042F8231013F031FB224901A813F0E0
:107BA0004FF81B4804F00EFE07AC90B901A813F083
:107BB00055F9002320468DF81C30FFF789FB9DF80E
:107BC0001C30FBB94FF080430122C3F800250AB0F6
:107BD00010BD01A9204613F04DF81349204613F0BB
:107BE000BDF9014604A813F045F8204613F036F914
:107BF000BDF8182004990D4802F070FC04A813F099
:107C00002DF9D3E7FFF75EFB0AB010BD106E002020
:107C1000D0670020206600205C9804000400020069
:107C200000030050408D0400E89A04005C670020C7
:107C30003D4B3E4AD3ED007A13689FED3D6A9FEDC0
:107C40003D7A1060C31A06EE903A70EE677AF8EE4D
:107C5000666A67EE867A384B67EEA67AB0EEE76A18
:107C6000B4EEC76AF1EE10FA2DDAD3ED007A9FED8B
:107C7000336AF4EEC67AF1EE10FA34DA9FED307A18
:107C8000F4EEC77AF1EE10FA01D9002070472D49C1
:107C90002D4AD1ED005A77EE867A07EE100A75EE7E
:107CA000E74AB7EE005A84EEA56A0120C3ED007AD8
:107CB000B8EE477A76EE457AA6EEA77AFCEEC77A5A
:107CC000C2ED007A704793ED007A1E4A9FED1B6A61
:107CD000C2ED007A77EE877AF4EEC67AF1EE10FA0A
:107CE000C3ED007ACADB1749174AD1ED004A34EEDA
:107CF000865A07EE100A35EE675AB8EE477AC5EE97
:107D0000245A012077EEC67AB7EE004A35EEC46AEF
:107D1000C3ED007AF0EE477AE6EE867AFCEEE77A7B
:107D2000C2ED007A704700BFA46500209C6300206C
:107D3000BD3786350AD7233CA06300200000B4433A
:107D40000000B4C3986300205066002070B5BA48A4
:107D50009AB012F085FBB949B94800220DF094F8A9
:107D6000B7480DF077F9002800F0B88000241F22F2
:107D70000AA9B3480C94CDE90A44CDE90D44CDE9F4
:107D80000F4411940DF0C4F81AAB03440AA803F889
:107D9000404C1BF0CBFF51EC100B1BF0C9FDA94E62
:107DA000A949306007AC204612F04AFFA74804F00A
:107DB00009FD002840F0CA80204601AD13F04EF8BE
:107DC00096ED000A2846062113F00AF89F4804F0B1
:107DD000F9FC002840F05E81284613F03FF89848EF
:107DE0000DF00CF99A499B4800220DF04DF8994886
:107DF0000DF030F9002800F0988000240AA91F2215
:107E000094480C94CDE90A44CDE90D44CDE90F44E2
:107E100011940DF07DF81AAB03440AA803F8404C06
:107E20001BF087FF8C4E8D49306007AC204612F066
:107E300007FF864804F0C6FC002840F0F680204684
:107E400001AD13F00BF8316828460A2212F094FFB6
:107E50007E4804F0B7FC002840F0CE80284612F09F
:107E6000FDFF7C480DF0CAF87D497E4800220DF0E8
:107E70000BF87C480DF0EEF8002841D00024214694
:107E80003C220BA80A941CF005F80AA93F22754869
:107E9000754E764D0DF03CF81AAB19182A4601F8CC
:107EA000404C0AA8724933461CF0A2FE022854D066
:107EB00000232B6001AD6F493360284612F0C0FEED
:107EC000624804F07FFC002840F04881284612F008
:107ED000C5FF64480DF092F81AB070BD594B664961
:107EE00004AC002220461A6012F0AAFE574804F0A3
:107EF00069FC002840F01981204612F0AFFF71E7BD
:107F00005A48594A5D49002304AC03602046136077
:107F100012F096FE4D4804F055FC002840F0EC802D
:107F2000204612F09BFF1AB070BD4B4B54491860AD
:107F300004AC204612F084FE444804F043FC0028C0
:107F400040F0C180204612F089FF8DE7BDF8242063
:107F500007994C4802F0C2FA2EE707AC4A4920467E
:107F600012F06EFE394804F02DFC002840F012811A
:107F7000204612F073FF95ED000A0621204612F00C
:107F80002FFF324804F01EFC002840F0FC80204601
:107F900012F064FF3D49204612F052FE2B4804F0D7
:107FA00011FC002840F0E880204601AD12F056FF99
:107FB00096ED000A2846062112F012FF234804F02D
:107FC00001FC002882D02946204612F053FE304999
:107FD000204612F0C3FF014604A812F04BFE2046D3
:107FE00012F03CFFBDF818200499264802F076FAFA
:107FF00004A812F033FF69E72946204612F03AFE42
:108000002349204612F0AAFF014604A812F032FECE
:10801000204612F023FFBDF818200499194802F0F9
:108020005DFA04A812F01AFF18E7BDF8242007999A
:10803000144802F053FA02E770860020588D0400BD
:1080400014640020086000206C8D0400D0670020BC
:10805000AC8D040074660020B4670020B88D040065
:10806000E48D0400A8650020A4650020A065002020
:10807000F48D0400188E0400848D04003C8E0400EE
:10808000C88D04005C670020FC8D0400148E040081
:10809000E89A04002946204612F0ECFD41492046AA
:1080A00012F05CFF014604A812F0E4FD204612F035
:1080B000D5FEBDF8182004993B4802F00FFA04A839
:1080C00012F0CCFE88E621460AA812F0D3FD35490D
:1080D0000AA812F043FF014607A812F0CBFD0AA838
:1080E00012F0BCFEBDF8242007992F4802F0F6F9E3
:1080F00007A812F0B3FE25E721460AA812F0BAFD40
:1081000028490AA812F02AFF014607A812F0B2FD7A
:108110000AA812F0A3FEBDF824200799224802F015
:10812000DDF907A812F09AFEFAE621460AA812F035
:10813000A1FD1C490AA812F011FF014607A812F080
:1081400099FD0AA812F08AFEBDF824200799164866
:1081500002F0C4F907A812F081FECDE6294607A86F
:1081600012F088FD0F4907A812F0F8FE014604A896
:1081700012F080FD07A833E7BDF8242007990A48CC
:1081800002F0ACF910E7BDF824200799064802F088
:10819000A5F9FCE6BDF824200799034802F09EF9F2
:1081A000E6E600BFE89A04005C6700202DE9F04392
:1081B0006C4CDFF8DC816C4F6C4E6D4DDFF8D49168
:1081C00083B000222046012104F0C6F82046012198
:1081D00004F0CEFA2046002104F07CFA20466549DE
:1081E00004F050FA4FF4207220464FF4A07102F0D0
:1081F0009BFE20464FF47A6102F0A8FE042120463F
:1082000002F09CFE404603F081FD3846102102F04A
:10821000E5F800223846112102F0F8F83846082126
:1082200002F0E2F8384601F057FD3046022102F034
:10823000D5F800223046112102F0E8F8304604213A
:1082400002F0D2F8304601F047FD042221230DEB65
:1082500002013046019302F0EDF82846282102F091
:10826000BDF811221146284602F0D0F82846142104
:1082700002F0B8F801224049404E414F284602F032
:10828000CBF8284601F028FD484603F03FFD304674
:10829000122102F0A3F800223046112102F0B6F8B4
:1082A0003046012102F0A0F8304601F015FD6423AC
:1082B00001220DF1030130468DF8033002F0BAF8C7
:1082C0003048314D03F022FD3846102102F086F887
:1082D00000223846112102F099F83846142102F0A4
:1082E00081F8384601F0F8FC28460C2102F076F8B7
:1082F00011221146284602F089F82846142102F07E
:1083000071F801222149284602F086F804F5C86474
:10831000284601F0E1FC0621204601F0C9FA20467A
:1083200001F0AEFA204601F07DFA4146204601F008
:1083300063FA4946204601F05FFA2046012101F028
:10834000E9FAF4222046202101F0E0FA20461E211D
:1083500001F0DAFA2046002101F03CFB03B0BDE851
:10836000F08300BFD06700202C650020D46400207B
:108370007C640020608E0400A98D0200A4630020AC
:108380005C67002044670020EC660020E172020078
:1083900088650020FC63002030B58DB09E4903A89D
:1083A00012F04EFC9D4804F00DFA09AC002840F094
:1083B000E18003A812F052FD99480BF009FC0C2053
:1083C00016F07EF9032016F081F90121162016F02F
:1083D000DBF90021162016F05BFA01210E2016F0C1
:1083E000D3F900210E2016F053FA0021232016F0B5
:1083F000CBF90121032016F0C7F90021032016F064
:1084000047FA0221084616F0BFF901230322022190
:108410008448009300230BF0EDFD4B2012F0EEFE9C
:1084200081490322022012F06BFA4FF47A7012F0A5
:10843000E5FE7E4903A812F003FC784804F0C2F977
:1084400000287ED103A812F009FD794800230122FB
:108450008381C382027183730376837783830BF0F6
:10846000EBFF74490546204612F0EAFB6B4804F026
:10847000A9F900285ED1204612F0F0FC0A22294614
:1084800003A812F045FC654804F09CF9002838D197
:1084900003A812F0E3FC6DB1674903A812F0D0FB0A
:1084A0005E4804F08FF9002840F09A8003A812F08B
:1084B000D5FCFEE7FFF74AFCFFF778FE5F4BDB6871
:1084C000D90117D414F0B2F85D4BA0FB0301830A65
:1084D00043EA81535B4A5C49136003A812F0B0FB86
:1084E0004E4804F06FF900285DD103A812F0B6FCE5
:1084F0000DB030BD554B1A68D207E3D55B689B09B8
:10850000E8E703A9204612F0B5FB5149204612F0D6
:1085100025FD014606A812F0ADFB204612F09EFC98
:10852000BDF8202006994B4801F0D8FF06A812F0AC
:1085300095FCADE7BDF82C200999464801F0CEFF27
:1085400099E703A9204612F095FB4149204612F015
:1085500005FD014606A812F08DFB204612F07EFCB8
:10856000BDF8202006993B4801F0B8FF06A812F09C
:1085700075FC67E703A9204612F07CFB34492046CE
:1085800012F0ECFC014606A812F074FB204612F033
:1085900065FCBDF8202006992E4801F09FFF06A833
:1085A00012F05CFC05E703A9204612F063FB2849A2
:1085B000204612F0D3FC014606A812F05BFB2046D1
:1085C00012F04CFCBDF820200699224801F086FFED
:1085D00006A812F043FC03A812F040FC0DB030BD19
:1085E00003A9204612F046FB1949204612F0B6FCBA
:1085F000014606A812F03EFB204612F02FFCBDF803
:1086000020200699134801F069FF06A812F026FC05
:1086100003A812F023FC4CE7708E0400D067002002
:10862000F884002054660020D57202008C8E04006D
:10863000206600209C8E0400B08E0400F0ED00E067
:1086400040420F001C660020C48E0400001000E0B1
:10865000E89A04005C67002010B5044B044640F81B
:10866000083B03F08FFB204610BD00BFE4910400DF
:108670002DE9F04165496648664D674CDFF8E881B1
:10868000664E674F84B00CF051FB604965480CF0B2
:108690004DFB5E4964480CF049FB6A2200216348A7
:1086A0000BF09EFD28460BF091FC224660492846BF
:1086B0001AF0E2FC684641F6180103F06BFB6946CC
:1086C000404603F03FFB684603F05CFB2246314620
:1086D00040461AF0D1FC684642F66321554DDFF85A
:1086E0008C8103F057FB6946384601F041FE68462D
:1086F00003F048FB2246294638464F4F1AF0BCFC8F
:10870000684642F6652103F045FB6946384601F0AC
:108710002FFE684603F036FB224629463846474F6F
:108720001AF0AAFC684642F6662103F033FB69465C
:10873000384601F01DFE684603F024FB2246294618
:1087400038463F4F1AF098FC684641F60F0103F097
:1087500021FB6946384603F0F5FA684603F012FB40
:10876000224631463846374F1AF086FC684642F6B4
:10877000192103F00FFB6946384601F0F9FD684600
:1087800003F000FB2246294638462F4F1AF074FCAE
:108790002E49684603F00CFB6946384603F0D2FACE
:1087A000684603F0EFFA2246314638461AF064FC78
:1087B0002749284F284E684603F0FAFA6946404692
:1087C00001F0D6FD684603F0DDFA22462946404610
:1087D0001AF052FC2149684603F0EAFA6946384625
:1087E00001F0C6FD684603F0CDFA22462946384618
:1087F0001AF042FC1A49304612F022FA1949224670
:1088000030461AF039FC04B0BDE8F08170860020D3
:108810001464002054660020006000205986020085
:108820002C65002074660020A865002020660020CA
:10883000F13F0300A59C0200D46400207C6400206A
:10884000FC630020A4630020446700200C8F040018
:10885000348F0400EC660020DC6600205C8F04008E
:10886000089B04005DAE0300886500205C67002063
:1088700030B5484948488DB00CF04AF94549474859
:1088800001220CF001FB002840D0454B03AC93EDD6
:10889000000A062106A812F0A3FA06A9204612F043
:1088A000E9F94049204612F059FB3F4B054693ED4C
:1088B000000A062109A812F093FA09A9284612F025
:1088C00021FB0146684612F0D5F909A812F0C6FA54
:1088D000204612F0C3FA06A812F0C0FA029A0099D4
:1088E0002E480CF02FF92D480CF088FB2F4920461C
:1088F00012F0A6F92E4803F065FF88BB204612F05F
:10890000ADFA684612F0AAFA0DB030BD03AC2949A1
:10891000204612F095F9264803F054FF20B920466E
:1089200012F09CFA0DB030BD214609A812F0A2F950
:10893000214909A812F012FB014606A812F09AF983
:1089400009A812F08BFABDF8202006991B4801F007
:10895000C5FD06A812F082FA204612F07FFAE1E780
:10896000214609A812F086F9134909A812F0F6FA6F
:10897000014606A812F07EF909A812F06FFABDF8B8
:10898000202006990D4801F0A9FD06A812F066FA0C
:10899000B4E700BFE48D040070860020A8650020C5
:1089A000A0650020C48D0400A4650020E48F0400AD
:1089B000D067002000900400E89A04005C67002063
:1089C00070B52DED028B8AB0624901A812F038F91A
:1089D000614803F0F7FE07AE002861D101A812F04C
:1089E0003DFA4FF47A709FED5D8A5D4D12F006FC02
:1089F000F0EE488AC82428460BF00AFF284678EE95
:108A0000808A0BF051FF052038EE008A12F0F6FB49
:108A1000013CF0D1DFED537A534D544C544968EE8C
:108A2000A78A28EE278A3046C5ED008A84ED008AA1
:108A300012F006F9484803F0C5FE002840F0828095
:108A4000304612F00BFA95ED000A062101A812F04B
:108A5000C7F9414803F0B6FE00285AD101A812F028
:108A6000FDF94449304612F0EBF83B4803F0AAFE0A
:108A7000002847D1304612F0F1F994ED000A0621A2
:108A800001A812F0ADF9344803F09CFE08BB01A820
:108A900012F0E4F9FFF7ECFE0AB0BDEC028B70BDFA
:108AA00001A9304612F0E6F83349304612F056FA82
:108AB000014604A812F0DEF8304612F0CFF9BDF8F6
:108AC000182004992D4801F009FD04A812F0C6F9F8
:108AD00084E701A9304612F0CDF82749304612F05C
:108AE0003DFA014604A812F0C5F8304612F0B6F976
:108AF000BDF818200499214801F0F0FC04A812F0F8
:108B0000ADF9C4E7BDF8242007991C4801F0E6FC44
:108B1000B0E701A9304612F0ADF81749304612F01F
:108B20001DFA014604A812F0A5F8304612F096F995
:108B3000BDF818200499114801F0D0FC04A812F0E7
:108B40008DF98BE7BDF8242007990C4801F0C6FC8D
:108B500076E700BF1C900400D067002000000000F2
:108B6000206600200AD7A33BA0650020A465002052
:108B7000389004004C900400E89A04005C670020E0
:108B80002DE9F0418CB07C4903A812F059F87B48DC
:108B900003F018FE09AD002840F0838003A812F00E
:108BA0005DF94FF47A7012F029FB12F01BFB0024E0
:108BB000DFF8F0810746264603E00BF04DFA002867
:108BC0004DD112F00FFBC31BB3F57A6F4046F4D3BF
:108BD000002C54D16A4E6B493460284612F030F8AC
:108BE000664803F0EFFD002840F08D80284612F023
:108BF00035F931680A2203A812F0BEF85F4803F085
:108C0000E1FD002866D103A812F028F95E495F480B
:108C10000BF07EFF5C495E4801220CF035F988B309
:108C200031680A22684612F0A7F8029A009958485B
:108C30000BF088FF56480CF0E1F9564903A811F0F3
:108C4000FFFF4E4803F0BEFD002863D103A812F0D9
:108C500005F9684612F002F90CB0BDE8F081404613
:108C60000BF002FA07EE906AF8EEE77A013437EE7D
:108C7000800AC82CFDEEC07A17EE906AA1D196FB4F
:108C8000F4F4A7E7444903A811F0DAFF3B4803F0E6
:108C900099FD002857D103A812F0E0F80CB0BDE808
:108CA000F08103A9284611F0E5FF3C49284612F05F
:108CB00055F9014606A811F0DDFF284612F0CEF85E
:108CC000BDF820200699364801F008FC06A812F0ED
:108CD000C5F863E703A9284611F0CCFF2F492846C1
:108CE00012F03CF9014606A811F0C4FF284612F024
:108CF000B5F8BDF820200699294801F0EFFB06A839
:108D000012F0ACF87FE7BDF82C200999244801F057
:108D1000E5FB6BE703A9284611F0ACFF1F49284685
:108D200012F01CF9014606A811F0A4FF284612F023
:108D300095F8BDF820200699194801F0CFFB06A848
:108D400012F08CF882E703A9284611F093FF13492B
:108D5000284612F003F9014606A811F08BFF2846B9
:108D600012F07CF8BDF8202006990D4801F0B6FB02
:108D700006A812F073F88EE760900400D067002018
:108D8000B467002080900400AC8D04007086002041
:108D900074660020848F0400988F0400E89A040011
:108DA0005C670020546600205BB330B513780C2B51
:108DB00083B004460ED020250222014611488DF8CA
:108DC00005308DF804508DF8062001F099FB80B92C
:108DD00003B030BDFFF7D4FE0B4B0A481B68ADF85B
:108DE000043021461B0C8DF8063001F089FB002869
:108DF000EED02146032301AA024801F0B1FB03B0E3
:108E000030BD70477C640020949004002DE9F0414F
:108E10002DED028B8CB0B74903A8B0EE408A11F05B
:108E20000FFFB54803F0CEFC002840F0218103A8D5
:108E300012F014F812F0D6F90024B04F0646254679
:108E400041F2873804E00BF007F9002840F0E78092
:108E500012F0C8F9831B43453846F4D9002C40F082
:108E6000EF809FEDA70AA74E28EE008A3568B5EE81
:108E7000C08AF1EE10FAA4EB050540F2E480002D63
:108E800000F0E18007EE905AF8EEE77A9E4F9F4996
:108E900087EE887A09A887ED007A11F0D1FE96480E
:108EA00003F090FC002840F0338209A811F0D6FFAF
:108EB00021460A2203A811F05FFF8F4803F082FCCD
:108EC000002840F00C8203A811F0C8FF904909A8BF
:108ED00011F0B6FE884803F075FC002840F0F881D8
:108EE00009A811F0BBFF31680A2203A811F044FF62
:108EF000814803F067FC002840F0D18103A811F0FD
:108F0000ADFF844909A811F09BFE7B4803F05AFC91
:108F1000002840F0BD8109A811F0A0FF29460A22CF
:108F200003A811F029FF744803F04CFC002840F01E
:108F3000968103A811F092FF774909A811F080FEED
:108F40006D4803F03FFC002840F0828109A811F031
:108F500085FFB0EE480A062103A811F041FF6648DC
:108F600003F030FC002840F05A8103A811F076FF8E
:108F70006A4909A811F064FE5F4803F023FC002849
:108F800040F0468109A811F069FF97ED000A06211B
:108F900003A811F025FF584803F014FC002840F006
:108FA0001E8103A811F05AFF5D4903A811F048FE85
:108FB000514803F007FC002840F0F88003A811F0A6
:108FC0004DFF584958480BF0A3FD56495748012218
:108FD0000BF05AFF002864D097ED000A062168467E
:108FE00011F0FEFE029A009950480BF0ABFD4F487D
:108FF0000CF004F84E4903A811F022FE3E4803F09D
:10900000E1FB002840F0A08003A811F027FF68468C
:1090100011F024FF0CB0BDEC028BBDE8F0813846A6
:109020000BF022F807EE905AF8EEE77A013437EEAB
:10903000800AC82CFDEEC07A17EE905A7FF408AF74
:1090400095FBF4F40DE73B4903A811F0F9FD2A481C
:1090500003F0B8FB002840F0908003A811F0FEFE5A
:10906000354B00221A700CB0BDEC028BBDE8F081CC
:1090700003A909A811F0FEFD304909A811F06EFFFF
:10908000014606A811F0F6FD09A811F0E7FEBDF8AB
:10909000202006992A4801F021FA06A811F0DEFEE8
:1090A000C5E6284903A811F0CBFD134803F08AFB5D
:1090B00038B903A811F0D2FE0CB0BDEC028BBDE8AC
:1090C000F08103A909A811F0D5FD1C4909A811F0E8
:1090D00045FF014606A811F0CDFD09A811F0BEFE1E
:1090E000BDF820200699164801F0F8F906A811F0FD
:1090F000B5FEDEE798900400D0670020546600209B
:109100000AE81C41B467002008600020D8900400E1
:1091100080900400E8900400F8900400049104009A
:1091200020910400588D04007086002014640020F3
:10913000AC8F0400B490040078640020E89A040026
:109140005C670020C88F040003A909A811F092FDF4
:10915000734909A811F002FF014606A811F08AFD23
:1091600009A811F07BFEBDF8202006996D4801F09A
:10917000B5F906A811F072FE46E703A909A811F097
:1091800079FD674909A811F0E9FE014606A811F02A
:1091900071FD09A811F062FEBDF820200699614812
:1091A00001F09CF906A811F059FE56E703A909A899
:1091B00011F060FD5A4909A811F0D0FE014606A839
:1091C00011F058FD09A811F049FEBDF820200699BC
:1091D000544801F083F906A811F040FEEEE603A919
:1091E00009A811F047FD4E4909A811F0B7FE014644
:1091F00006A811F03FFD09A811F030FEBDF82020AF
:109200000699484801F06AF906A811F027FEC8E659
:10921000BDF82C200999434801F060F9B2E603A992
:1092200009A811F027FD3E4909A811F097FE014653
:1092300006A811F01FFD09A811F010FEBDF82020AE
:109240000699384801F04AF906A811F007FE8CE6A5
:10925000BDF82C200999334801F040F976E603A9BE
:1092600009A811F007FD2E4909A811F077FE014663
:1092700006A811F0FFFC09A811F0F0FDBDF82020B0
:109280000699284801F02AF906A811F0E7FD50E6F2
:10929000BDF82C200999234801F020F93BE603A9E9
:1092A00009A811F0E7FC1E4909A811F057FE014674
:1092B00006A811F0DFFC09A811F0D0FDBDF82020B0
:1092C0000699184801F00AF906A811F0C7FD15E63D
:1092D000BDF82C200999134801F000F900E603A914
:1092E00009A811F0C7FC0E4909A811F037FE014684
:1092F00006A811F0BFFC09A811F0B0FDBDF82020B0
:109300000699084801F0EAF806A811F0A7FDDAE589
:10931000BDF82C200999034801F0E0F8C5E500BF2D
:10932000E89A04005C67002030B58DB0044611F067
:1093300007FF794909A811F083FC784803F042FA45
:1093400000286CD109A811F089FD744803F03AFA9D
:1093500000284BD1724909A811F072FC09A92046D6
:1093600011F02CFE054609A811F078FD2DB1B2EEE2
:10937000040AFFF74BFD0DB030BD6A4909A811F092
:109380005FFC09A9204611F019FE054609A811F055
:1093900065FD2DB1FFF7F4FBFFF712FB0DB030BDFB
:1093A000614909A811F04CFC09A9204611F028FEDA
:1093B000054609A811F052FD002D37D0A3682146BB
:1093C0000122684611F040FE684611F0B9FE684679
:1093D00011F0E0FEB5EEC00AF1EE10FA5EDDFFF727
:1093E00015FD684611F03AFD0DB030BD214609A8C3
:1093F00011F040FC4D4909A811F0B0FD014606A846
:1094000011F038FC09A811F029FDBDF820200699BB
:10941000474801F063F806A811F020FD9AE7BDF86F
:109420002C200999424801F059F88BE7414909A8D5
:1094300011F006FC09A9204611F0C0FD054609A857
:1094400011F00CFD002D55D13B4909A811F0F8FB96
:10945000324803F0B7F9002845D109A811F0FEFC05
:109460002E4803F0AFF9002885D0214609A811F055
:1094700001FC2E4909A811F071FD014606A811F062
:10948000F9FB09A811F0EAFCBDF82020069928484C
:1094900001F024F806A811F0E1FC6CE7274903A8C5
:1094A00011F0CEFB1D4803F08DF918B903A811F097
:1094B000D5FC96E703A909A811F0DCFB1B4909A814
:1094C00011F04CFD014606A811F0D4FB09A811F0DB
:1094D000C5FCBDF820200699154800F0FFFF06A83E
:1094E00011F0BCFCE2E7BDF82C200999104800F00F
:1094F000F5FFB2E74FF08043A822C3F81C25BFF365
:109500004F8F0F490F4BCA6802F4E0621343CB60E0
:10951000BFF34F8F00BFFDE73C910400D0670020F0
:10952000549104009095040058910400E89A0400B6
:109530005C67002070910400749104005C91040049
:1095400000ED00E00400FA0570B51B4E1B48012336
:1095500086B00A21337011F067FD041E1FDB174D22
:10956000234600222946684611F06EFD621C002148
:10957000284611F097FD694603A811F07BFB03A86C
:10958000FFF7D2FE03A811F069FC0A21284611F06A
:109590004BFD0446684611F061FC002CE0DA002324
:1095A0000A210648337011F03FFD054BC043C00F40
:1095B000187006B070BD00BF78640020DC66002023
:1095C000E866002010B5544B1B788AB00BB1FFF74A
:1095D000BBFF524B1A7812BB514BDB68D90103D544
:1095E000504B1A68D20717D413F020F84E4BA0FB4B
:1095F0000301830A43EA81534C494D4A09685B1AC7
:10960000934203D94B4B1B78002B58D0FEF718F828
:10961000FDF75CFE0AB010BD5B689B09ECE7002219
:1096200045481A700AF020FD444B9FED457AD3ED72
:10963000007AF0EEE76AF4EEC76AF1EE10FA1BDD8D
:10964000404B414A186892ED007ADFED406A40498C
:10965000BDEEC00A0B6810EE104A201A00EE100A88
:10966000B8EEC00A013380EE276A0B60F0EE477A4D
:10967000E6EE267AC2ED007A294BDB68DC0106D5DE
:10968000284B1A68D00702D55C68A40907E012F0DD
:10969000CDFF254BA0FB0301840A44EA81542D48E9
:1096A0000BF002F92C4B204683ED000AFEF7C0FABE
:1096B000002891D0294B1868FEF72AF88CE7284932
:1096C00001A811F0BDFA274803F07CF850B901A8B1
:1096D00011F0C4FBFEF700FAFDF7B2FFFDF7F6FD4F
:1096E0000AB010BD01A907A811F0C4FA1E4907A8C5
:1096F00011F034FC014604A811F0BCFA07A811F0DF
:10970000ADFBBDF818200499184800F0E7FE04A846
:1097100011F0A4FBDBE700BFE86600200C66002028
:10972000F0ED00E0001000E040420F001C66002059
:1097300000879303786400205466002008600020AE
:10974000BD378635B467002070660020D7A3303E51
:10975000D866002020660020186600205066002091
:109760008C910400D0670020E89A04005C67002018
:1097700072DF704773DF704774DF704777DF7047C1
:1097800038B5054608460C4602F032FB102803D0D7
:1097900080280ED0012038BDEB7FA2881B2B0EDC69
:1097A000E9180320E85448704A80EB7F0433EB77D4
:1097B000F0E7A368002BEDD0E97F0D2901DD002043
:1097C00038BD6A18112068540721517058681C6808
:1097D0009968DB68C2F80E30C2F80600C2F8024091
:1097E000C2F80A10EB7F1233EB77012038BD00BFBF
:1097F0000022C2770270704730B5D1E9042485B0E9
:10980000CD68074B00936946CDE902240195FFF727
:10981000B7FF0446684602F0B5FA204605B030BDF1
:10982000FC910400F0B589B0064620221348694631
:1098300002F03CFFF37FC2181D2A0CDDC3F11D04AA
:10984000E4B2E2181D2A4FF00005D8BF082705DD55
:10985000284609B0F0BD044601250927F218601C0E
:10986000F05469465770901C22461AF0EBFAF27FCA
:10987000023214442846F47709B0F0BDD0670020C6
:1098800010B50446094802F06FFFE37F1C2B01DD91
:10989000002010BDE2180221E1540A239070537099
:1098A000E37F0333E377012010BD00BFD0670020C2
:1098B000C27F1C2A01DD0020704710B403469C18AB
:1098C000022098540120A1706070DA7F0332DA77A9
:1098D0005DF8044B704700BF10B4084A084C0949B2
:1098E00002620022C0E90A41C0E90C225DF8044B83
:1098F0000270C27742628263704700BFFF010100BD
:109900002000F40020001E00C1857047018581857C
:109910004285704780F82210704700BFF0B51546A9
:1099200005EB8503274A89B0044603EB8303002037
:109930000E469B0011680290CDE90460ADF814302A
:1099400094F821308DF80830CB07CDE9060003905C
:1099500009D41D491D4BC87FE77F988101201C60F9
:1099600099609F801060194902AA04F12000FFF756
:10997000FFFE10B1002009B0F0BD94F8201014488B
:10998000019102F0F1FE019902460120FFF7F6FE77
:109990000028EFD194F820000121FFF7EBFE00280A
:1099A000E8D10B4802F050FF628EA68595424FF039
:1099B000010094BF521B921A628684F8230009B0FA
:1099C000F0BD00BFB86700204C6E0020BC670020CF
:1099D000D0670020F0B5002361F30F032D4D04463E
:1099E00061F31F4389B00363FA21284602F0C4FEE5
:1099F000E68D2949278D0868049706EB860303EB5B
:109A0000830300229B000592ADF8143094F82130B6
:109A100002928DF80830C307CDE9062203920BD4D9
:109A20001E4BE27F95F89B069A8005F27C65012229
:109A30001C609D6098810A60184902AA04F1200008
:109A4000FFF796FE10B1002009B0F0BD94F8201089
:109A50001048019102F088FE019902460120FFF7AB
:109A60008DFE0028EFD194F820000121FFF782FE3F
:109A70000028E8D1074802F0E7FE638EA7859E42E2
:109A80004FF0010094BF9B1BDB1A638684F8230010
:109A900009B0F0BDD0670020B8670020BC67002087
:109AA00010B5044690F82000FFF766FE08B10020CC
:109AB00010BD84F82300024802F0DAFE012010BD38
:109AC000D067002030B50B888D88112B85B00446F7
:109AD00005D0262B33D0102B25D005B030BD436ADE
:109AE000EB40DB07F9D52E4801F0FEF90028F4D150
:109AF000636A94F82310012202FA05F523EA0503AC
:109B000063620029E9D194F82230002BE5D0238E3E
:109B100023486386FA2102F02FFEE28D218D204634
:109B2000FFF7FCFED9E7CB7B012BD6D1426A03FAC3
:109B300005F515430023456280F82330CDE70B7A05
:109B4000012BCAD1002380F823304FF4FA71144856
:109B500002F012FE238E5BB1658E95B1A36B0BB143
:109B60009847658E618D2A462046FFF7D7FEB4E7F9
:109B7000A36B03B19847618D00222046FFF7CEFE0C
:109B8000ABE7074802F074FE626B002AA5D000958F
:109B900003AB29462846039514F028FC9DE700BF37
:109BA000D067002075DF704710B44FF010144FF4E9
:109BB00048010022C0E90041C0E902225DF8044BDF
:109BC000704700BF014800F095BF00BFC06E002085
:109BD000F8B500250D4F2E4601E0142D14D0A9B282
:109BE000384602F019FE013504460028F5D000F091
:109BF0001BFE0028F1D0204600F020FE022804BF02
:109C00000136F6B2142DEAD13046F8BDD0670020F7
:109C100070B58E881B480C4694B0314602F0FCFDAE
:109C200023881A2B05D01F2B1CD0102B0FD014B05B
:109C300070BD054600F0FAFD0028F8D0284600F077
:109C4000F7FD0028F3D1284600F058FEEFE76946FB
:109C500000F03CFE0028EAD06A4631460A4801F08E
:109C6000F1FCE4E754F8080F61686B4603C3304623
:109C7000BDF80030ADF802306946FFF793FF14B02D
:109C800070BD00BFD0670020F0670020AADF7047DA
:109C9000ABDF7047ACDF7047ADDF7047AEDF7047BA
:109CA000B0DF704710B5044B044640F8043B02F0A7
:109CB00069F8204610BD00BFB491040010B5054BF3
:109CC000044640F8043B02F05DF8204613F060FEC5
:109CD000204610BDB491040070B57B4B04461B6850
:109CE000836196B0043002F093F894F82E30A069A6
:109CF00013F0320208BF84F82F2013F00C0308BFC2
:109D000084F830300DF10102694602F031F894F820
:109D10002F209DF8010015070DD09DF8001002F0CE
:109D20000F0301F00F059D424FEA12126DD243EA74
:109D3000021284F82F2094F8303019070BD003F06A
:109D40000F0100F00F058D424FEA131369D241EA6B
:109D5000031384F8303094F82E1011F0300340F0E3
:109D600096800FAD0F93C5E90133C5E903338DF834
:109D70003C10AB610021ADF809109DF80A10206A73
:109D80001493012363F342018DF808208DF80A1023
:109D900008B1037873BB94F8263013B104F126039D
:109DA000129394F831200023D2070893079358BFE9
:109DB000E38AADF81C3004F1080004F12F01CDE96D
:109DC000050154BF1846E08AADF82000294604F189
:109DD0003203E569099505AA0020FFF757FF0546FC
:109DE00028B994F8253043BB237D002B64D0284646
:109DF00016B070BD10901AF0A1FF02AB80B2ADF8A2
:109E00004400ADF846001393C5E74FEA111101D1A4
:109E100091428CD30A462B4643EA021284F82F2043
:109E200089E74FEA101001D1984290D303462946A2
:109E300041EA031384F830308DE7ADF80D009DF84A
:109E40000E2094F82F600C90012363F3420242F637
:109E500008118DF80E208DF8123004AA0223ADF8F7
:109E6000101003A90D90ADF83030ADF834300A92DF
:109E700004F124030B910DF102020AA98DF80C6084
:109E80000E93FFF705FF0028AED00546AFE70F4B56
:109E90008DF805200FAD1B788DF8043002200023CB
:109EA0000F938DF80600C5E90133C5E90333AB61B3
:109EB0008DF83C1001AB5DE72146054800F0D6FF68
:109EC000284616B070BD00BFCC670020A8910400E2
:109ED000106C00202DE9F0410B888E88502B8AB041
:109EE0000C46054609D0512B04D18B79012B19D092
:109EF000022B26D00AB0BDE8F081CB88428E9A4270
:109F000035D0EA8E9A42F5D16B6D002BF2D095F8E0
:109F10004420648A920700F18A802246294630460E
:109F20009847E7E7836C002BE4D090F84420520771
:109F300001F108076CD43A46294630469847A37980
:109F4000D6E7A27B042A46D0062A20D0012AD1D106
:109F5000EB6C002BCED095F84420170704F10804D1
:109F600000F1A5802246294630469847C2E7076D92
:109F7000002FC6D090F84430D90768D404F11208F5
:109F8000238A424629463046B847E388B9E7EA6B58
:109F9000002AAFD0002202A93046CDE90222CDE945
:109FA0000422ADF80C208DF80830FFF779FE2C6DF7
:109FB00054B195F84430D80700F19280B5F842309A
:109FC000EA6B30462946A047E86B11F04DF90023B3
:109FD000C5E90F338EE7E86B002878D0B5F840105C
:109FE000278A628A07EB020C00234FF0020E8C4591
:109FF000CDE90633CDE908338DF818E039DD40F2BC
:10A000000913ADF81C3006A93046FFF749FE71E789
:10A0100003211A46009106AB08213846CDE90665B2
:10A02000089714F0E3F9002889D1AB6C83E703208B
:10A0300000211A46009006AB0846CDE90665089453
:10A0400014F0D4F900287FF455AF6B6D65E7218AD1
:10A05000069604F11208042300933A46404606ABE4
:10A06000CDE90881079514F0C1F900288DD12F6D35
:10A0700086E79DF81EC0ADF81C3004F114014CF0C9
:10A0800001033844ADF822208DF81E300991ADF857
:10A09000207019F0D7FE238A618AB5F842200B445C
:10A0A0009BB2934238BF1346A5F84230ABE7032179
:10A0B0001A46009106AB0E212046CDE906650894AC
:10A0C00014F094F900287FF415AFEB6C4AE74FF4D5
:10A0D000806011F0AFF84FF48061C5E90F017FE7B0
:10A0E000E86BB5F84210069604230093224606ABAF
:10A0F000CDE90750099114F079F900287FF464AF95
:10A100002C6D5BE72DE9F04F0F464FF6FF718F4244
:10A1100089B0064615461C4627D0F18A96F82E309F
:10A120008C4228BF0C469B0615D40DF1100B8C42B7
:10A1300028BF0C464FF00008718EADF810405A460B
:10A140004FF6FF700595ADF81280FFF7A3FD40466E
:10A1500009B0BDE8F08F3648394602F045FB80462D
:10A1600008B1F18E31B9F18ADFE7314802F048FBDE
:10A170000746D2E7002002230DF1100BADF81200C4
:10A18000ADF810305A460DF10E0338460593FFF72F
:10A1900083FD43F20143984247D008B9BDF80E0051
:10A1A00000F00200002840D02148394602F034FB7C
:10A1B000824688B300F044FB033883B2002CC6D03B
:10A1C000CDF804804FF00009984608E000F0A0FBAD
:10A1D00010B3BDF80E30E41AA4B21D4414B34FF00E
:10A1E0000200A0458DF812000DF10E00738EADF83F
:10A1F00010304246CDE9060528BF2246594638466A
:10A20000CDF813908DF81790ADF80E20FFF746FDAE
:10A2100003465046002BD9D04FF00008404609B005
:10A22000BDE8F08FDDF8048091E7F18A7FE700BF99
:10A23000D06700202DE9F04F0F464FF6FF718F4297
:10A2400089B0064615461C4626D0F18A96F82E306F
:10A250008C4228BF0C46DB0615D40DF1100B8C4246
:10A2600028BF0C464FF00008718EADF810405A46DA
:10A270004FF6FF700595ADF81280FFF70BFD4046D5
:10A2800009B0BDE8F08F3948394602F0ADFA08B19F
:10A29000F18E31B9F18AE0E7344802F0B1FA0746AD
:10A2A000D3E7002002230DF1100BADF81200ADF83A
:10A2B00010305A460DF10E0338460593FFF7ECFCBB
:10A2C00043F2014398424FD000284AD19DF80E80B6
:10A2D00008F00108B8F1000F46D02448394602F0D2
:10A2E0009BFA8246A0B300F0ABFA033883B2002C8D
:10A2F000C5D0CDF804804FF00009984605E0BDF8C0
:10A300000E30E41AA4B21D4444B3504600F0ACFA37
:10A31000A04503464246594628BF22463846BBB1AF
:10A32000ADF80E204FF00102738E8DF812200DF162
:10A330000E02CDE90625CDF813908DF81790ADF8F3
:10A340001030FFF7ABFC0028D9D0504600F096FA49
:10A350004FF00008404609B0BDE8F08FDDF80480FA
:10A360008DE700F00108B5E7F18A78E7D0670020B3
:10A3700070B44E68164A86600260D1E90262154BDD
:10A38000154D1C7845600261142500220321C0E9A7
:10A390000F22C0E91222C0E91422C660C58280F8EB
:10A3A000311080F844200275826102628284C0F814
:10A3B0002620C0F82A2080F82E20C26142864263FF
:10A3C000028780F82F4080F8304070BC704700BF93
:10A3D000B4910400A8910400FC91040080F82E10B0
:10A3E000704700BFC182704741B190F83130C182DF
:10A3F000002262F3000380F83130704790F831306A
:10A40000012262F3000380F83130704780F82F108A
:10A4100080F83020704700BF90F84430016562F347
:10A42000000380F84430704751F8322F02604968C9
:10A430004160704730B5C48A83B0944223460D46CC
:10A4400028BF1346418E019500246A464FF6FF70DF
:10A45000ADF80030ADF80240FFF71CFC18B9BDF8AC
:10A46000000003B030BD204603B030BD30B5044617
:10A4700085B0194802F0C4F994F82E3013F0100397
:10A4800002D1184605B030BD05460146124802F01B
:10A49000ABF90028F6D0E18E11B9084605B030BD01
:10A4A0000DF1060328460024022502AA0393ADF805
:10A4B0000A40ADF80850FFF7EFFB43F20143984222
:10A4C00005D030B99DF8063003F00100DAE72046E8
:10A4D000D8E700F00100D5E7D067002010B490F86D
:10A4E0002E4014F0100407D013465DF8044B0A46C2
:10A4F0004FF6FF71FFF79EBE20465DF8044B704794
:10A5000090F82E3013F0200301D11846704730B573
:10A51000044685B011480D4602F066F910B1E18E8F
:10A5200011B9084605B030BD0DF1060328460024D8
:10A53000022502AA0393ADF80A40ADF80850FFF7D0
:10A54000ABFB43F20143984206D008B9BDF80600C0
:10A55000C0F3400005B030BD2046E3E7D0670020DF
:10A5600010B490F82E4014F0200403D05DF8044B92
:10A57000FFF7C8BD20465DF8044B7047A1DF704768
:10A58000A3DF7047A4DF704700238383704700BFB9
:10A59000006A00F0E3B800BF808B70472DE9F041FE
:10A5A0000B88CE88382B86B00C46054606D0392B52
:10A5B00066D0362B43D006B0BDE8F08100F1240709
:10A5C000002E36D10A8A3846314602F0E5F994F871
:10A5D0000C80B8F1010F2CD0B8F1040FEBD1286A30
:10A5E00000F0BCF801465C4802F016F900F028F9CA
:10A5F0002A8E053883B2934228BF1346002B00F001
:10A600009A80218AE289286AAC8B8DF80D600A4411
:10A61000E96A05918DF80C80ADF81230ADF8102084
:10A62000ADF80E4000F09AF803A9FFF7A9FF002843
:10A63000C1D0384602F0C8F906B0BDE8F081006A22
:10A6400000F08CF80146444802F0E6F800F0F8F813
:10A6500007466EBB05F12406E289304604F110017D
:10A6600002F09AF92B8E2BB1F81EE38980B20138E3
:10A67000834255DA304602F0A7F906B0BDE8F08112
:10A680000B7B012B1AD0022B95D1836B002B92D020
:10A6900090F83C208F8892071FD401F11006E289C0
:10A6A00031462846984761893846FFF76BFF82E7B5
:10A6B00005F12407384602F087F9BDE7436B002B0C
:10A6C0003FF479AF90F83C20D10717D404F110067D
:10A6D000E2893146284698476DE7C989039004F11D
:10A6E000100603201A46009003AB3046CDE9046102
:10A6F00013F07CFE0028D6D1AB6BD0E7E189039044
:10A7000004F1100603201A46009003AB3046CDE951
:10A71000046113F06BFE00287FF44DAF6B6BD7E73D
:10A72000286A00F01BF86A8EA98B92B2FFF726FF09
:10A7300000289FD13FE7AA8B286AADF80E2040F28F
:10A740000511ADF80C10CDE9043300F007F803A9AA
:10A75000FFF716FF6DE700BFD067002080887047C5
:10A760008FDF704790DF7047B1DF7047B5DF70470C
:10A7700010B5074B03600446806A11F0C9FBE06A1C
:10A7800011F0C6FB206B08B111F0C2FB204610BDD2
:10A79000CC91040010B5094B03600446806A11F0A7
:10A7A000B7FBE06A11F0B4FB206B08B111F0B0FB0D
:10A7B000204613F0EDF8204610BD00BFCC910400F8
:10A7C00070B504460D4692E80300A5800E0CA0610A
:10A7D000A183144DA67717201B2156892560E080A0
:10A7E0009589D089E181D179658101222275227410
:10A7F000A08161741846194626819DF8105010F00A
:10A80000DDFD2946A062284610F0D8FD4FF488519E
:10A8100000234FF6FF72E182E06262822363637578
:10A82000204670BDCC910400007D7047407D70478C
:10A83000C07D113818BF0120704700BF407C7047B1
:10A84000C0887047008970474B7D10B44BB11F31F1
:10A850000C688A888B79046082805DF8044B837170
:10A8600070471831F4E700BF08B56621806A11F01F
:10A87000C7F9003818BF012008BD00BF08B5002384
:10A880001A461946806A10F0CBFD003818BF012027
:10A8900008BD00BF818800F11F02407C02F0DAB8D9
:10A8A00038B50A4605460C468188407C02F0BEF861
:10A8B0002146012051F8483FC5F81F308B888A791E
:10A8C00085F82520A5F82330687538BD38B50A46C7
:10A8D00004460D4600F11801407C02F0F1F8607565
:10A8E00050B1294651F8483FC4F81F308B888A7907
:10A8F00084F82520A4F8233038BD00BF10B5447D6E
:10A9000024B100F11F01407C02F0B8F8204610BDD0
:10A9100038B5032204460021012010F00DFD00256A
:10A920004FF0FF312063A57511F06AF9206B11F02B
:10A93000EFFAA07D256338BD70B50B88113B82B05E
:10A940000C460546462B2BD8DFE803F0383B2A2A75
:10A950002A2A2A2A2A422A2A2A2A2A2A50585E647D
:10A960002A2A2A2A2A2A2A2A2A2A2A2A2A2A2A2A47
:10A970002A2A2A2A2A672A942A2A2A2A2A2A2A2A90
:10A980002A2A2A2A2A2A2A2A2A2A2A2A2A246A2AED
:10A99000752C84000023A8881A461946FFF7E4FEA8
:10A9A00002B070BD8B79002BFAD1006BAB7500281B
:10A9B000F6D01A46194610F033FDF1E7002303756F
:10A9C000EEE74B8903818B894381CB898381E7E75C
:10A9D0000B7AC375112BE3D0818800F11F02407CF4
:10A9E00002F026F903460028DAD1D4E7002301A9B2
:10A9F0008088ADF80430FFF7B3FED1E70B7A002B67
:10AA0000CED14B7A0374CBE7002211468088FFF742
:10AA1000A9FEC5E70B89C381C2E74B89C380BFE7A5
:10AA2000006B0123AB750028BAD000231A461946E3
:10AA300010F0F6FCB4E7417C164801F0E5FEE3882F
:10AA40000146994228BF194689B2A888E980FFF7D4
:10AA50008DFEA5E78B79002BA2D0002600231A4695
:10AA60001946A86A10F0DCFC0136A279F3B29A42CA
:10AA7000F4D895E78B7A002B92D0002600231A4653
:10AA80001946E86A10F0CCFC0136A27AF3B29A4279
:10AA9000F4D885E7D067002070B58AB086880B4669
:10AAA00006A84FF42851144605934FF6FF7501F0A0
:10AAB00071F90120CDE90105059B0094314606AAF4
:10AAC000044800F06FF8044606A801F05BF9204640
:10AAD0000AB070BD106C002010B50446043001F0BF
:10AAE000F7FE034B236000232375204610BD00BFF3
:10AAF0000100FFFF017D01B1704710B5044604302D
:10AB000001F0F0FE0123237510BD00BF007D7047EA
:10AB10000B88322B10B504D0332B17D0302B08D034
:10AB200010BDCB88DBB1041D2046BDE8104001F00C
:10AB30004BBFCB88041D002BF6D14B89002BF3D0E3
:10AB40000A3120460A2201F027FFEDE7CB88002BCF
:10AB5000E9D14A89002AE6D002EB420204E04A89A0
:10AB6000002AE0D002EB82025200041D023292B2AF
:10AB70000A31204601F010FFD6E700BFA0DF704782
:10AB800010B5044600F5F87001F0A2FE2046F82248
:10AB9000002119F07FF9F822A018002119F07AF9A4
:10ABA000204610BD2DE9F04782B00546BDF82C6067
:10ABB000BDF830402048ADF80460BDF828A0ADF8DD
:10ABC0000640904699460F4601F026FE05F5F875B9
:10ABD000064603E0FFF736FE10F010FB284601F0B2
:10ABE000D9FE04463046002CF4D10121284601F05C
:10ABF00079FE52464946284601F090FE08F10401CC
:10AC0000384601AAFFF7BAFF30B1284601F074FEBA
:10AC1000204602B0BDE8F0874FF4FA71284601F0F3
:10AC200083FE20EAE074284601F066FEA4B22046C6
:10AC300002B0BDE8F08700BFD06700202DE9F04FDB
:10AC40008F880D8885B0884604463946864801F0CD
:10AC5000E3FDA5F11003012B814640F2908094F8AA
:10AC600054203AB3002633461633502D54F823A00F
:10AC700069D0512D1AD198F80630B8F808B0022BD7
:10AC800053D0BBF1000F11D051466846FFF7CCFB03
:10AC9000BDF800305B4559D0514602A8FFF7C4FB10
:10ACA000BDF80C305B4551D094F854200136F3B216
:10ACB0009342D9D394F84C31002B00F0D18004F5A5
:10ACC000A679002604E094F84C310136B34220DD29
:10ACD00059F8040FFFF75CFCB842F4D1382D03D0CB
:10ACE000392D01D0362DEED1B8F80AA0BAF1000FF7
:10ACF000E9D0D9F800B05846FFF74EFC5045E2D1F4
:10AD000058464146FFF74AFC94F84C310136B342AD
:10AD1000DEDC112D55D0352D04D1B8F80A30002BCA
:10AD200040F08F8005B0BDE8F08F98F80E30062B0C
:10AD3000A7D1DAF800305046DB68414698474846CC
:10AD4000FFF776FDB0E7B8F806B09AE7DAF800301A
:10AD50005046DB68414698474846FFF769FD0028A2
:10AD6000A2D0502DA0D1514602A8FFF75DFBBDF83F
:10AD70000C305B4598D14846FFF78CFD94E723786B
:10AD8000002B3FF46CAF0026112D33460CD004EBA2
:10AD900083033946586803685B6898470136227810
:10ADA000F3B29A42F3D85AE704EB83033946586862
:10ADB00003681B68984701362278F3B29A42F3D8A9
:10ADC0004DE7D3B10026334605E094F84C21013617
:10ADD000F3B29A4211D904EB8305D5F85001FFF77D
:10ADE000D7FBB842F1D1D5F85001FFF7CDFB0136C2
:10ADF00094F84C21F3B29A42EDD894F8F820002A46
:10AE000090D000252B4604EB8303D3F8FC00838805
:10AE1000BB420AD00135EBB2934283D204EB8303E9
:10AE2000D3F8FC008388BB42F4D103681B689847C1
:10AE3000013594F8F820EBB29342E4D305B0BDE8B5
:10AE4000F08F04F5F874B8F80C20204608F11001D2
:10AE500001F0A2FD204605B0BDE8F04F01F0B4BD01
:10AE6000112D7FF458AFC8E7D067002090F8542028
:10AE7000272A0CD810B4034602F11604013280F8D8
:10AE8000542043F8241001205DF8044B7047002043
:10AE9000704700BF0378132B06D800EB8302013301
:10AEA00003700120516070470020704778DF7047C1
:10AEB0007ADF7047054A034692E80300002283E8E0
:10AEC0000300C3E902221846704700BFD491040072
:10AED00008B5FFF7EDFF08B1002008BDFFF7E6FF5A
:10AEE000B0FA80F0400908BDF8B500250D4F2E4698
:10AEF00001E0142D14D0A9B2384601F08DFC0135C3
:10AF000004460028F5D0FFF78FFC0028F1D020463A
:10AF1000FFF794FC012804BF0136F6B2142DEAD1E4
:10AF20003046F8BDD067002008B501804280FFF7A9
:10AF3000BFFFB0FA80F0400908BD00BF08B58180AE
:10AF4000FFF7B6FFB0FA80F0400908BD08B5C18030
:10AF5000FFF7AEFFB0FA80F0400908BD704700BFB0
:10AF60008ADF704730B40D4CC4621F250022502484
:10AF70008584A025C0E91122C0E90F22A0F846501F
:10AF8000A0F84840006230BC8262028680F8382017
:10AF90004263C264A0F85020704700BF00018000E7
:10AFA0002DE9F04F10468DB016460C4600F020FFFC
:10AFB000C5B2102D4FD0B66807220623A16994F8B8
:10AFC0001C9001918DF80D208DF80C30ED080DF1DD
:10AFD0000C080DF10E0A0027B9F1010F0A97CDE90F
:10AFE0000477CDE90677CDE90877CDF82B700ED937
:10AFF00098F8000001994B464A7882420FD00A78AF
:10B00000D4432344013213F0FF031144F4D108F177
:10B010000108C245E0D100200DB0BDE8F08F11F865
:10B02000024B013CE4B2224604A818F00BFF0DF1DC
:10B03000100B1CB9EBE714F0FF04E8D058462A4681
:10B04000314618F0F1FE641BAB440028F3D1012017
:10B050000DB0BDE8F08F043603220223AEE700BF37
:10B060002DE9F0430B888E88103B87B00D460446CF
:10B070000D2B2CD8DFE803F077072B2B2B2B2B2B5A
:10B080002B2B2B842B2E836AF340DB071FD55648CE
:10B09000FEF79EFDD8B9A36A94F82C20012505FA85
:10B0A00006F623EA0606A6628AB994F82D3073B133
:10B0B0001F232462A38404F1200104F14400FFF75C
:10B0C0004FFF20B9494801F0BFFB84F82C5007B06E
:10B0D000BDE8F08390F92E2091F91B309A423ADCBA
:10B0E00090F8383001F108080BB3DFF8049100261E
:10B0F00002E0D6B2B34218D9636BCDF8089003EBE7
:10B10000061302AA59680391D3E902734146204607
:10B1100005930497FFF744FF074602A800F032FEAC
:10B1200094F83830721C002FE3D09E4213D094F86C
:10B130002F30002B49D095F82430012B0BD9296AE8
:10B140004A78FF2A30D00A78D0430344013213F002
:10B15000FF031144F4D104F120010020FFF700FFA8
:10B1600007B0BDE8F083CB7B022BB0D1836A01220C
:10B1700002FA06F633430022836280F82C20A6E709
:10B180000B7A012BA3D1002580F82C50174801F031
:10B190006FFB226C002A9AD0009502AB2946284604
:10B1A000029513F023F992E711F8025B6A1ED2B2FE
:10B1B000022A28BF022202A818F044FE012DCAD09C
:10B1C000228EBDF808309A42C5D1E26B002A3FF4C6
:10B1D0007EAF01230093404602AB2421CDF80880C6
:10B1E00013F004F973E700BFE0670020D067002088
:10B1F000FC91040046DF70477FDF704780DF7047B7
:10B2000081DF704785DF704786DF704738B51C46A1
:10B210000D460346114628462246984734B101465A
:10B2200000222846BDE83840FFF7E8BF38BD00BF20
:10B2300010B50C4682B003466946204698476A46D8
:10B2400020460121FFF7DAFF02B010BD10B5044619
:10B25000083001F017FF074B2360032200232271FF
:10B26000C4F81034C4F81434C4F81834C4F81C34C6
:10B27000204610BD3507100330B50446ADF55F7D9F
:10B2800000F108058F4801F091FE0821284601F0E1
:10B29000FDFE684601F004FF6846082101F004FF46
:10B2A0006946284601F0A2FE04F54F714122684626
:10B2B00001F008FF684601F001FF94F85C0394F880
:10B2C0005B2394F83D1394F83E3384F83D0384F8EF
:10B2D0003E2394F85A0394F8592394F83F5384F882
:10B2E0005C1384F85B3394F8401394F8413384F88A
:10B2F0003F0384F8402394F8580394F8572384F8C4
:10B300005A5384F8591394F8425394F8431384F829
:10B31000410384F8583394F8560394F8443384F87E
:10B32000422394F8552384F8575384F8430384F850
:10B33000442384F8553384F8561394F8451394F84D
:10B34000540394F8532394F8463384F8450384F85F
:10B35000462394F8520394F8512394F8475384F801
:10B36000541384F8533394F8481394F8493384F809
:10B37000470384F8482394F8500394F84F2384F843
:10B38000525384F8511394F84A5394F84B1384F8A9
:10B39000490384F8503394F84E0394F84C3384F8FE
:10B3A0004A2394F84D2384F84F5384F84B0384F8D0
:10B3B0004C2384F84D3384F84E1394F85D1394F8BD
:10B3C0007C0394F87B2394F85E3384F85D0384F85F
:10B3D0005E2394F87A0394F8792394F85F5384F801
:10B3E0007C1384F87B3394F8601394F8613384F809
:10B3F0005F0384F8602394F8780394F8772384F843
:10B400007A5384F8791394F8625394F8631384F8A8
:10B41000610384F8783394F8760394F8643384F8FD
:10B42000622394F8752384F8775384F8630384F8CF
:10B43000642384F8753384F8761394F8651394F8CC
:10B44000740394F8732394F8663384F8650384F8DE
:10B45000662394F8720394F8712394F8675384F880
:10B46000741384F8733394F8681394F8693384F888
:10B47000670384F8682394F8700394F86F2384F8C2
:10B48000725384F8711394F86A5394F86B1384F828
:10B49000690384F8703394F86E0394F86C3384F87D
:10B4A0006A2394F86D2384F86B03012084F86F53AA
:10B4B00084F86E1384F86C2384F86D330DF55F7D8A
:10B4C00030BD00BF5C6F00200B7803F0FE03042B3F
:10B4D00001D00020704770B515468CB00C46202274
:10B4E000002104A818F0D6FC28686968AA68EB68EF
:10B4F0006D460FC59DF800109DF80F209DF8016066
:10B500009DF80E509DF802008DF80F1023469DF80F
:10B510000D108DF800209DF803208DF80E608DF839
:10B5200001509DF80C609DF804508DF80D008DF8C9
:10B5300002109DF80B009DF805108DF80C209DF869
:10B540000A208DF803608DF80B508DF804008DF8FB
:10B5500005208DF80A109DF8061033F8042FADF879
:10B5600010209B789DF809209DF81D009DF8106023
:10B570009DF81F508DF809108DF806209DF81110C8
:10B580009DF81E208DF81D309DF807308DF81200B3
:10B590008DF81F609DF808009DF813608DF810501D
:10B5A0008DF81E109DF81C509DF814108DF8112078
:10B5B0008DF808309DF81B209DF81A308DF8070093
:10B5C0008DF81C608DF813509DF815608DF81B10D8
:10B5D0008DF8142068468DF815309DF819109DF8E7
:10B5E00017209DF818309DF816508DF818208DF80A
:10B5F00016108DF817308DF81A608DF81950FFF776
:10B60000F9FD62789DF82F309DF82E009DF82D10E1
:10B610008DF821009A428DF8221004F1010404D023
:10B62000012080F001000CB070BD6278C3B29A4274
:10B6300004F10104F4D16278CBB29A42F0D1002037
:10B64000EFE700BF08B5137CDB0758BF1C32084684
:10B6500002F11201FFF7D6FDB0FA80F0400908BDF3
:10B66000F0B58F880E46ADF56B7D044639464648E9
:10B6700001F0D2F83388133B0546072B2FD8DFE8BB
:10B6800013F03E005F006D002E00280387000800C5
:10B690003100337AB3B9737B9B070ED4294602A8D5
:10B6A000FFF7D2F80299BDF80C209DF80E3084F80F
:10B6B0000C34C4F80614A4F80A24284604F2BE3157
:10B6C000FFF7EEF8D4F818244AB1307A0D9002232F
:10B6D0000021009308460CAB0C9712F087FE0DF585
:10B6E0006B7DF0BDD4F81C24002AF8D00123002182
:10B6F000009308460CAB0C9712F078FEEFE704F2CB
:10B70000BE3304F2DA320C9304F2F63300251092C1
:10B71000119304F23D3204F27E330F921393CDE97C
:10B720000D551295FFF78AF801280CBF22462A46CC
:10B730000CAB29463846FFF75FFD0DF56B7DF0BD7C
:10B740000CA9FFF7C3F80346002800F0D2820CA929
:10B75000384600231AAAFFF757FDC0E7D4F81014A3
:10B760000029BCD0B37B094A03F001030F930423E3
:10B77000CDE90C1706F10800009306210CAB0E90E2
:10B7800012F034FEABE700BFD06700200DB202001C
:10B7900094F87E3394F89D2394F87FC394F89C63C7
:10B7A00094F8805394F89B0384F89D33042194F813
:10B7B0009A3384F87D1384F87E2394F8811394F8E7
:10B7C000822384F89CC384F87F6394F899C394F827
:10B7D000836384F89B5384F8800394F8985394F817
:10B7E000840384F89A1384F8813394F8971394F8B7
:10B7F000853384F8992394F8962384F882C384F8D7
:10B80000986384F8835384F8970384F8841384F846
:10B81000852384F8963394F8862394F8953394F826
:10B8200087C394F8946394F8885394F8930394F836
:10B83000891384F8952384F8863394F8922394F836
:10B840008A3384F894C384F8876394F891C394F896
:10B850008B6384F8935384F8880394F8905394F896
:10B860008C0384F8921384F8892394F88F1394F846
:10B870008D2384F8913394F88E3384F88AC384F846
:10B88000906384F88B5384F88F0384F88C1384F8C6
:10B890008D3384F88E2394F89E2394F8BD3394F866
:10B8A0009FC394F8BC6394F8A05394F8BB0394F836
:10B8B000A11384F8BD2384F89E3394F8BA2394F836
:10B8C000A23384F8BCC384F89F6394F8B9C394F896
:10B8D000A36384F8BB5384F8A00394F8B85394F896
:10B8E000A40384F8BA1384F8A12394F8B71394F846
:10B8F000A52384F8B93394F8B63384F8A2C384F846
:10B90000B86384F8A35384F8A41384F8B62384F8A6
:10B91000A53384F8B70394F8A60394F8B51394F804
:10B92000A72394F8B43394F8A86394F8B35384F835
:10B93000B50384F8A61394F8A90394F8B21384F815
:10B94000B42384F8A73394F8AA2394F8B13384F885
:10B95000B36384F8A85394F8AB6394F8B05384F8B5
:10B96000B20384F8A91394F8AC0394F8AF1384F8E5
:10B97000B12384F8AA3394F8AD2394F8AE3384F855
:10B98000AD3384F8AE2384F8B06384F8AB5384F805
:10B99000AF0384F8AC130CA801F082FB0CA80821BB
:10B9A00001F082FB04F27D310CA8412201F09CFBE6
:10B9B0000CA904AA202304F1080001F045FB0CA8FF
:10B9C00001F07CFB9DF810109DF82F009DF81130C0
:10B9D0009DF82E209DF812609DF82D508DF81000D6
:10B9E0008DF82F109DF813009DF82C108DF8112064
:10B9F0008DF82E309DF814209DF82B308DF81250C4
:10BA00008DF82D609DF815509DF82A608DF8131063
:10BA10008DF82C009DF816109DF829008DF8143033
:10BA20008DF82B209DF817309DF828208DF8156093
:10BA30008DF82A508DF816008DF817208DF82830D3
:10BA40008DF829109DF818109DF827009DF81930E1
:10BA50009DF826209DF81A609DF825508DF8180055
:10BA60008DF827109DF81B009DF824108DF81920E3
:10BA70008DF826309DF81C209DF823308DF81A5043
:10BA80008DF825609DF81D509DF822608DF81B10E3
:10BA90008DF824009DF81E109DF821008DF81C30B3
:10BAA0008DF823209DF81F309DF820208DF81D6013
:10BAB0008DF822508DF821108DF81F208DF8203040
:10BAC0008DF81E0094F87E0394F89D1394F87F235C
:10BAD00094F89C3394F8806394F89B5384F89D0306
:10BAE00084F87E1394F8810394F89A1384F89C23C5
:10BAF00084F87F3394F8822394F8993384F89B6315
:10BB000084F8805394F8836394F8985384F89A03E4
:10BB100084F8811394F8840394F8971384F8992394
:10BB200084F8823394F8852394F8963384F89863E4
:10BB300084F8835384F8841384F8962384F8853337
:10BB400084F8970394F8860394F8951394F8872360
:10BB500094F8943394F8886394F8935384F8950395
:10BB600084F8861394F8890394F8921384F8942344
:10BB700084F8873394F88A2394F8913384F8936394
:10BB800084F8885394F88B6394F8905384F8920364
:10BB900084F8891394F88C0394F88F1384F8912314
:10BBA00084F88A3394F88D2394F88E3384F8906364
:10BBB00084F88B5384F88C1384F88E2384F88D33A7
:10BBC00084F88F0394F89E0394F8BD1394F89F2390
:10BBD00094F8BC3394F8A06394F8BB5384F8BD0385
:10BBE00084F89E1394F8A10394F8BA1384F8BC2344
:10BBF00084F89F3394F8A22394F8B93384F8BB6394
:10BC000084F8A05394F8A36394F8B85384F8BA0363
:10BC100084F8A11394F8A40394F8B71384F8B92313
:10BC200084F8A23394F8A52394F8B63384F8B86363
:10BC300084F8B70384F8A41384F8B62384F8A533F2
:10BC400084F8A35394F8A65394F8A72394F8B43334
:10BC500094F8B50394F8A81394F8B36384F8B55333
:10BC600084F8B42394F8A95394F8AA2384F8A7334A
:10BC700094F8B13394F8B0C384F8A60384F8B313EE
:10BC800094F8B20394F8AB1384F8A86384F8B25321
:10BC900094F8AC6394F8AF5384F8B12384F8AA33D2
:10BCA00094F8AD2394F8AE3384F8A90384F8B01364
:10BCB000384604A984F8ABC384F8AF6384F8AC5366
:10BCC00084F8AE2384F8AD33FFF79AFA0DF56B7D57
:10BCD000F0BDD4F81424002A3FF401AD0223002162
:10BCE00000930C920CAB064A0D97084612F07EFBAF
:10BCF000F5E438461A461946FFF786FAEFE400BF26
:10BD000031B20200A8DF7047704700BF30B504466B
:10BD100083B0083000F07CF804F10C010DF106024C
:10BD20000120FFF7EFFF054628B9044B04481C60CB
:10BD30002146FFF7AFF8284603B030BDCC6700209E
:10BD4000106C002030B44C68C460D1E90241054A4F
:10BD5000054D0260054A8560C0E90441426030BC7F
:10BD6000704700BFE4910400FC9104000000111131
:10BD700083790B70C3791370704700BF62DF70471F
:10BD800063DF7047704700BF10B5044611F000FE36
:10BD9000204610BD10B4054C8180002201210460B2
:10BDA000C0E902225DF8044B81717047FC910400E8
:10BDB00038B50E4B0360044608460D4618F0BEFF2A
:10BDC000042806D00023A371E560A380A360204669
:10BDD00038BD28461022002119F038FF0122002327
:10BDE000A271A080C4E90233204638BDFC91040052
:10BDF0008379012B0AD0826832B9C26822B9012B3B
:10BE00008CBF802000207047802070471020704732
:10BE10002DE9F047857982B0002D47D1C7680646E5
:10BE2000002F47D010200FF005FA8246384618F050
:10BE300085FF441E30B3DFF88490A84604E0013447
:10BE4000023C1FD4102D1DD017F804C0BCF12D0FDB
:10BE500007EB0402F3D099F80030ADF805808DF8B7
:10BE6000043012F8013C8DF804301022002101A8A2
:10BE70008DF805C019F0EAFE6B1C023C0AF80500BB
:10BE8000DDB2DFD5C6F808A0BAF1000F0ED0B11DA3
:10BE90005046FFF773FFB168321D1020FFF770FFA7
:10BEA000B0FA80F0400902B0BDE8F087012002B08E
:10BEB000BDE8F087D0F808A0E6E700BFF0910400E5
:10BEC0004DDF70474EDF70474FDF704750DF7047E0
:10BED0004BDF704710DF70477CDF70477DDF7047B6
:10BEE00060DF704769DF704761DF704766DF70476A
:10BEF00067DF7047704700BF0C2012F009BD00BF1C
:10BF000030B5224C224D83B0D4F828074FF0FF31D2
:10BF10000FF076FE0028F7D0C5B101A8FFF7D8FFD3
:10BF20000528F1D00028F8D1019B032B1BD8012B49
:10BF3000F3D918460EF006FCEFE70A2B04D0092BC4
:10BF400021D00B2B02D1012007F0BEF801A8FFF78A
:10BF5000BFFF0528D8D00028F8D1019BA3F1090222
:10BF6000022AF3D8E9E7A3F10902022AD5D80A2B5D
:10BF700004D0092B05D00B2BCFD1012007F0A4F85A
:10BF8000CBE70220FAE70220DEE700BFD0670020FF
:10BF900045A703002DE9F04F2DED028B4FF4FA7009
:10BFA00089B00FF047F9B24E00F1080308EE103ADD
:10BFB000054606F5F06706F5C86AD6F824074FF07F
:10BFC000FF310FF01DFE0028F7D04FF4FA730DF18A
:10BFD00016012846ADF81630FFF786FF10B1052888
:10BFE000F3D1EAE7B5F80490B9F1130F00F2398103
:10BFF00006EB8903D3F834473CB129462046FEF7C7
:10C000009BFC9C482946FFF72BFB2B88013B1B2BF5
:10C010005AD8DFE813F016015900590059005900A9
:10C020005900590059005900590059005900590048
:10C0300059005900B4001C0059005900590059001A
:10C04000590059005900590059005900A200DFF861
:10C0500038824FF0000B58F8040F30B1FEF7E4FBC4
:10C0600018B10BF1010B5FFA8BFBB845F3D1BBF1B3
:10C07000000F06D196F830371BB159460C2012F04C
:10C0800007FC2046FEF7DAFB012800F0EC80F2699D
:10C0900062B10223002195F808C00093084606AB60
:10C0A000CDF81890CDF81CC012F0A0F909F5E6788B
:10C0B00006EB8803586810B103685B68984706EB85
:10C0C00088080023C8F8043029465046FDF7FAFCDA
:10C0D00069482946FEF7C4FFB6F832374B452B882E
:10C0E00000F0B480102B1ED02CB32046FEF7A6FB28
:10C0F000012803D15E482946FEF730FF2046FEF7AF
:10C100009DFB02281BD05D48FEF700FD00BB5C488C
:10C110002946FEF793FDD6F88837002B3FF455AF3C
:10C120002846984751E7EB7B012BDDD1AB88A6F879
:10C130003237002CD9D14E482946FEF70FFF51481F
:10C140002946FDF765FD4D48FEF7E0FC0028DED0EE
:10C150004A482946FEF7DCFCD9E7D6F88427002AAE
:10C16000B2D00223002195F908C00093084606AB1F
:10C17000CDF81890CDF81CC012F038F9A4E74FF0B4
:10C180000008D6F82C07CDF800804346424603212C
:10C190003D4C11F0BBF854F8040F30B1FEF744FBEE
:10C1A00018B108F101085FFA88F8BC42F3D196F89B
:10C1B00030376BB1B8F1000118BF01210C2012F02B
:10C1C00067FB96F830371BB101210C2012F060FBA1
:10C1D00009F5E67806EB8804606820B103685B68BF
:10C1E000984700236360EB7B012B0BBF96F8123757
:10C1F00096F8183796F8134796F8194703933420A2
:10C2000011F0C4FB06EB8808039B009418EE102A7B
:10C2100004464946FEF7D4FA2046C8F80440FEF723
:10C220000DFB012832D0B269002A3FF44DAF012343
:10C2300000210093084606ABCDF8189012F0D6F80E
:10C2400042E700214846FFF751FE3DE7102B3FF43F
:10C250006AAF112B7FF448AF4FF6FF73A6F8323761
:10C2600042E70446D1E6F268002A7FF412AF1DE7E8
:10C27000D0670020F06700206C6E0020C06E0020A8
:10C28000106C0020E0670020006F0020B268002AD8
:10C290003FF41AAF0021009006AB0846CDF8189085
:10C2A00012F0A4F810E700BF38B50446FEF702FE0E
:10C2B00004F11000FDF778FC04F12000FEF7C6FF42
:10C2C00004F58860FEF75CFC04F5C860FDF704FB2C
:10C2D00004F27C60FDF78CFA04F29C60FEF742FEEB
:10C2E00004F5DE60FEF7F8FB4FF480530025C4F838
:10C2F000083716481649174AC4F80C0740F20113CC
:10C30000C4F81017C4F81427A4F81837A4F81A575B
:10C3100004F234702946502217F0BCFD01224FF67A
:10C32000FF73A4F81C5784F81E57C4F82457C4F8A8
:10C330002857C4F82C57C4F88857C4F8845784F891
:10C340003027A4F83237204638BD00BF010A170055
:10C350000300010117000300F0B5BF4E80F81C1761
:10C360008DB080F81D27044611F08EFB11F094FB70
:10C3700011F052FB3369B949039303A8FFF7AAFDF3
:10C3800018B1002528460DB0F0BD0120FFF79AFD39
:10C390000120FFF795FD0120FFF796FD09A8FFF7A3
:10C3A00095FD099B9B0705D5AD4BD3F80435002BB4
:10C3B00000F0FE800023AB4A94F80D57049209A9BF
:10C3C0000120CDE909330B938DF82450FFF78AFD46
:10C3D0000028D6D194F81D370B90CDE90900181E1E
:10C3E00018BF012094F81C578DF82700049A8DF887
:10C3F000263009A940208DF82550FFF773FD00284D
:10C40000BFD194F80C170990034661F30003CDE9FE
:10C410000A00049A8DF8243009A9A020FFF762FDD4
:10C420000028AED1D4F808370A900B90049A0993EB
:10C4300009A9A120FFF756FD0028A2D194F81C37C6
:10C44000002B40F0B98094F81D37002B48D0002312
:10C45000B4F81477049A0993022509A92320CDE999
:10C460000A338DF82450ADF82670FFF73BFD002805
:10C4700087D1CDE9090094F81D77B4F816370B90F1
:10C48000049A8DF8245009A920208DF82670ADF863
:10C490002830FFF727FD00287FF473AF0990CDE91E
:10C4A0000A0094F81837049A8DF8245009A922201C
:10C4B0008DF82630FFF716FD00287FF462AFCDE936
:10C4C000090094F819370B90049A8DF8245009A9A3
:10C4D00021208DF82630FFF705FD00287FF451AFAD
:10C4E00004A8FFF7FDFC00287FF44BAFCDE907005F
:10C4F00040F0010307A902208DF81C30FFF7F8FC7B
:10C5000000287FF43EAF2046FEF7E2FC05460028F7
:10C510003FF437AF04F12000FEF7AEFE337D524901
:10C520008DF80830182202A8FFF7D6FC00287FF407
:10C5300028AF94F81D37002B40F08880032200219B
:10C5400001200EF0F9FEC4F8240700283FF419AFCB
:10C5500005AB0326CDE900634449454800234FF469
:10C56000A0620FF073FE3246002101200EF0E4FEBF
:10C57000C4F8280700283FF404AF06ABCDE90063F8
:10C580003C493D480023C8220FF060FE3B4B4FF46E
:10C5900080021A603A4B00930023184601224FF4A0
:10C5A000807110F05DFEC4F82C0700F019FAE9E67E
:10C5B000022006F089FDFDE60990CDE90A00B4F8F5
:10C5C0000E37049AADF82630012509A923208DF8ED
:10C5D0002450FFF787FC00287FF4D3AECDE9090093
:10C5E00094F81C77B4F810370B90049A8DF8245007
:10C5F00009A920208DF82670ADF82830FFF772FCCD
:10C6000000287FF4BEAE0990CDE90A0094F81237F5
:10C61000049A8DF8245009A922208DF82630FFF7BE
:10C6200061FC00287FF4ADAECDE9090094F8133722
:10C630000B90049A8DF8245009A921208DF82630FA
:10C64000FFF750FC00283FF4FEAE9AE604F110001C
:10C65000FDF7B8FA72E700BF64920400F5BE02006D
:10C660000070024000600020409204005C920400D0
:10C6700095BF02006092040001BF020000E100E0EB
:10C68000F9BE020000B5084B85B01B7D019108463C
:10C690008DF80C3018F052FB019982B203A8FFF715
:10C6A0001BFC05B05DF804FB6492040000B583B088
:10C6B00008460DF10601ADF80620FFF70FFC20B982
:10C6C0009DF8060003B05DF804FB002003B05DF8A0
:10C6D00004FB00BF70B4234B0E4605460FCB85B05C
:10C6E0006C4607C49DF900202380B24234D09DF9E6
:10C6F0000130B34230D09DF90230B3422CD09DF9C5
:10C700000330B34228D09DF90430B34224D09DF9C0
:10C710000530B34220D0FEB19DF90730B3421BD0A3
:10C720009DF90830B34217D09DF90930B34213D0B8
:10C730009DF90A30B3420FD09DF90B30B3420BD0B4
:10C740009DF90C30B34207D09DF90D30B34203D0B0
:10C75000002005B070BC7047012085F81E6705B049
:10C7600070BC70477C92040090F91E07704700BFB0
:10C7700080F83017704700BF70B5044682B0D0F81B
:10C780002C070D4610F0EEFD4FF47A72064600239A
:10C79000A90DA80217F01CF9002302460421D4F8C1
:10C7A0002C07009310F0B2FD0EB102B070BD0096E0
:10C7B000D4F82C0733463246032110F0A7FD02B00F
:10C7C00070BD00BF70B500F5E66400F5F0650026A9
:10C7D00054F8040F20B1FEF727F808B10136F6B27D
:10C7E000AC42F5D1304670BD132906D800EB81016B
:10C7F000D1F8340708B1FEF717B80020704700BF22
:10C80000B0F83207704700BF01290CBFB0F80E071F
:10C81000B0F81407704700BF13299ABF00EB8101DD
:10C82000D1F834070020704710B5064C0021D4F829
:10C8300028070FF059F8D4F824070021BDE810406C
:10C840000FF052B8D067002090F8303703B9704726
:10C8500010B582B0D0F82C470FF0E8FE0023024656
:10C8600000932046012110F051FD02B010BD00BF21
:10C87000F0B583B0002405462346D0F82C07009479
:10C880002246032110F042FD05F5E66605F5F06746
:10C8900056F8040F20B1FDF7C7FF08B10134E4B228
:10C8A000BE42F5D195F8303743B1211E18BF0121A2
:10C8B0000C2003B0BDE8F04011F0EABF03B0F0BDBA
:10C8C0000148FFF7F1BC00BFD0670020002070478F
:10C8D000002201214270C0E901220170C2818281DF
:10C8E000704700BF10B50446017001B110BD0A20A9
:10C8F0000EF064FD606010BD037810B5044643B1CE
:10C90000002301226370C4E90133E381A381227013
:10C9100010BD40680FF0FCFAF2E700BF0023816011
:10C920008281C381704700BF037870B504460D460D
:10C93000B3B94668012363704FF47A720023A802EA
:10C94000A90D17F045F8014630460FF059F998B98E
:10C95000237800264FF0FF356670A3B9284670BDD6
:10C960000322002101200EF0E7FC0646606000284B
:10C97000E0D14FF0FF35F1E7E58923780026ADB22D
:10C980006670002BEAD060680FF0C2FA6660284635
:10C9900070BD00BF4078704738B504468089824238
:10C9A00028BF0246154619B1A06817F04BFAA089B6
:10C9B000E389A26815FA83F3401B9BB22A44A08145
:10C9C000E381A260284638BD406820B100231A46A2
:10C9D00019460EF025BD7047B1DF7047B2DF7047D2
:10C9E00008B50F480DF03CFD0E490D4808F01CF845
:10C9F00028B10D490A4808F017F850B108BD094997
:10CA0000074808F02DF80849054808F00DF80028F7
:10CA1000F4D1BDE808400449014808F021B800BF3E
:10CA2000708600208C920400A092040070B586B03D
:10CA30000E4603230021054614460093044A04963B
:10CA4000084603AB0395059411F0D0FC06B070BD09
:10CA500019CD020070B586B00323144606460D4674
:10CA60000093104603AB044A05940721CDE9036502
:10CA700011F0BCFC06B070BD49CE020030B50A46CC
:10CA800091B089795379039111790293D378094D43
:10CA9000094C019100939378527801280CBF2946E4
:10CAA000214604A818F084F804A9044808F030F8D6
:10CAB00011B030BDB4920400E492040070860020EE
:10CAC0002DE9F043D1B00B78032B04AF0D4604469B
:10CAD000904668D95A08022A5ED14F4A4F49504BB6
