:020000022000DC
:107000000000042045D2030085D2030087D203008C
:1070100089D203008BD203008DD203000000000050
:10702000000000000000000000000000CDD00300C0
:1070300091D2030000000000EDD0030095D20300C0
:1070400099D4030097D2030097D203008D36030032
:107050004137030097D20300FDA5030097D2030038
:1070600097D2030097D2030097D2030097D2030070
:1070700097D2030097D2030097D2030097D2030060
:1070800097D203001DCE030097D2030097D20300CE
:1070900097D2030097D2030011C0020097D20300D9
:1070A00097D2030097D2030097D2030097D2030030
:1070B00097D2030097D203000000000000000000F8
:1070C00097D2030097D2030097D20300ADD90300F3
:1070D00097D2030097D2030097D2030049D402004D
:1070E00097D2030097D2030097D20300000000005C
:1070F0000000000097D203000000000025DA030022
:10710000000000000000000000000000000000007F
:10711000000000000000000000000000000000006F
:10712000000000000000000000000000000000005F
:10713000000000000000000000000000000000004F
:10714000000000000000000000000000000000003F
:10715000000000000000000000000000000000002F
:10716000000000000000000000000000000000001F
:10717000000000000000000000000000000000000F
:1071800000000000000000000000000000000000FF
:1071900000000000000000000000000000000000EF
:1071A00000000000000000000000000000000000DF
:1071B00000000000000000000000000000000000CF
:1071C00000000000000000000000000000000000BF
:1071D00000000000000000000000000000000000AF
:1071E000000000000000000000000000000000009F
:1071F000000000000000000000000000000000008F
:10720000F1EE103A43F08073E1EE103A704700BFA0
:1072100010B5054C237833B9044B13B10448AFF3D0
:1072200000800123237010BD7C630020000000005B
:10723000CCAE040008B5034B1BB103490348AFF3C0
:10724000008008BD0000000080630020CCAE040078
:10725000154B002B08BF134B9D46A3F5803A002128
:107260008B460F461348144A121A1CF003FB0F4BAF
:10727000002B00D098470E4B002B00D098470020E1
:10728000002104000D000D48002802D00C48AFF387
:1072900000801CF07DFA2000290016F02BF81CF06D
:1072A00051FA00BF000008000000042000000000A8
:1072B000000000007C630020C0A00020000000004F
:1072C0000000000041DF7047014B01221A70704737
:1072D0004C65002000B58BB0014601A813F0D0F931
:1072E000154801A912F052FF144804F05FFE28B9B6
:1072F00001A813F0D3FA0BB05DF804FB01A907A8AD
:1073000013F0D8F90E4907A813F01CFB014604A896
:1073100013F0D0F907A813F0C1FABDF818200499AA
:10732000084802F0CFFC04A813F0B8FA01A813F043
:10733000B5FA0BB05DF804FB1C6F0020A4660020BA
:10734000388B04003066002070B510EE100A10EE85
:10735000106A1BF0EFFC64A3D3E9002304460D463A
:107360001BF0C6FF002840F09C8061A3D3E90023F6
:10737000204629461BF0BCFF002840F096805EA303
:10738000D3E90023204629461BF0B2FF002840F035
:107390008A805BA3D3E90023204629461BF0A8FF7F
:1073A000002840F0848007EE106AF1EE007AB4EE17
:1073B000E77AF1EE10FA7CDA53A3D3E900232046F2
:1073C00029461BF095FF002875D151A3D3E900236E
:1073D000204629461BF08CFF00286ED14EA3D3E92E
:1073E0000023204629461BF083FF002869D14CA3C7
:1073F000D3E90023204629461BF07AFF002862D1FA
:1074000007EE106AF0EE0E7AB4EEE77AF1EE10FABB
:107410005BDA45A3D3E90023204629461BF068FF29
:10742000002854D142A3D3E90023204629461BF06B
:107430005FFF00284DD140A3D3E900232046294611
:107440001BF056FF00283AD13DA3D3E90023204684
:1074500029461BF04DFF00283DD107EE106AF0EEE3
:107460000C7AB4EEE77AF1EE10FA36DA36A3D3E905
:107470000023204629461BF03BFF80BB34A3D3E901
:107480000023204629461BF033FF50BB32A3D3E92B
:107490000023204629461BF02BFF003818BF01208F
:1074A00070BD642070BD5A2070BD5F2070BD552036
:1074B00070BD502070BD462070BD3C2070BD0A20BC
:1074C00070BD322070BD282070BD1E2070BD1420FC
:1074D00070BD0F2070BD072070BD052070BD03205A
:1074E00070BD022070BD00BFCDCCCCCCCCCC104048
:1074F0009A999999999910406666666666661040F1
:1075000033333333333310409A99999999990F4013
:107510003333333333330F40CDCCCCCCCCCC0E40D3
:107520006666666666660E409A99999999990D40C5
:107530003333333333330D40CDCCCCCCCCCC0C40B7
:107540006666666666660C409A99999999990B40A9
:107550003333333333330B406666666666660A4000
:10756000F0B52DED028B8BB013F030FB804A136821
:1075700042F6DF61C31A8B42044624D87D4D2B7836
:10758000142B18D87C4D2B78022B18D87B4A136803
:10759000E31AB3F5967F12D3794E146031780B203D
:1075A00081F00103337016F067FE33783BB92B7816
:1075B00001332B7003E001210B2016F05DFE0BB0B0
:1075C000BDEC028BF0BD68A7D7E900679FED6D8A1F
:1075D00010600A25232016F09DFD1BF099FB324612
:1075E0003B461BF0FFFB1BF097FE07EE900A013DA8
:1075F00038EE278AEED16449DFED648A07A813F0DC
:107600003FF8634807A912F09DFD624868EE288A9A
:1076100004F0CCFC002865D107A813F03FF9022143
:10762000B0EE680A01A813F0FBF8594801A912F05E
:10763000ADFD584804F0BAFC00285AD101A813F057
:107640002DF9DFED557AB4EEE78AF1EE10FA3BDA68
:107650009FED520A474DFFF777FE5149287007A862
:1076600013F00EF84A4807A912F06CFD494804F0DF
:107670009DFC00286FD107A813F010F929780A2281
:1076800001A813F031F8424801A912F07FFD4148EA
:1076900004F08CFC002845D101A813F0FFF8414804
:1076A00002F0D8FA33490122C0B13E4802F00AFB89
:1076B0003148334A0023037001210B20137016F068
:1076C000DBFD2E4B1C605AE7B1EE010AF4EEC08AD6
:1076D000F1EE10FA98BFB0EE680ABBE7314802F04D
:1076E0009DFAE5E7BDF8242007992F4802F0EAFA51
:1076F00092E701A907A812F0DDFF2C4907A813F0B3
:1077000021F9014604A812F0D5FF07A813F0C6F826
:10771000BDF818200499244802F0D4FA04A813F004
:10772000BDF88BE701A907A812F0C4FF1F4907A8FD
:1077300013F008F9014604A812F0BCFF07A813F0E3
:10774000ADF8BDF818200499174802F0BBFA04A858
:1077500013F0A4F8A0E7BDF824200799124802F01E
:10776000B1FA88E7AFF30080C64B378941605D3FCF
:10777000506500200460002018640020546500203B
:107780006065002000000000147E0400CDCCCC3DDC
:107790001C6F0020A46600200000044233335340D5
:1077A000287E0400A863002030660020388B040087
:1077B00070B5A54D2DED028B2B68002B8AB00446C9
:1077C00040F3E780A14E07EE903A96ED007AF8EE8E
:1077D000E77A87EE278A9E4907A812F051FF9D4855
:1077E00007A912F0AFFC9C4804F0E0FB002840F031
:1077F0001D8107A813F052F829680A2207A812F081
:10780000A7FF944807A912F09DFC934804F0CEFB13
:10781000002840F0048107A813F040F88F4907A81A
:1078200012F02EFF8B4807A912F08CFC8A4804F056
:10783000BDFB002840F0EC8007A813F02FF80121D1
:10784000B0EE480A07A812F0EBFF824807A912F031
:1078500079FC814804F0AAFB002840F0D28007A8F8
:1078600013F01CF87E4A9FED7F7A13681460E31AC8
:1078700007EE903AF8EE677AF4EEC77AF1EE10FA76
:1078800000F18280DFED786A9FED787A67EEA66A74
:10789000C7EE278A16EE900A1BF04CFA02460B46FA
:1078A00067A1D1E900011BF0C7FB1BF035FD07EE16
:1078B000900A6F4A6F48704928EE278AA402A0FBFD
:1078C0000434FDEEC87A13686C48A40901330C80B7
:1078D00017EE901A13602022ADF82240ADF8203048
:1078E000ADF81E10ADF81C2002F0B4F9002840F0ED
:1078F000828000236249336007A800232B6012F0C6
:10790000BFFE544807A912F01DFC534804F04EFB7B
:10791000002869D107A812F0C1FF0121B0EE680A62
:1079200007A812F07DFF4B4807A912F00BFC4A484C
:1079300004F03CFB002850D107A812F0AFFF5149DA
:1079400007A812F09DFE434807A912F0FBFB42482E
:1079500004F02CFB002839D107A812F09FFFB0EEED
:10796000480A012101A812F05BFF3A4801A912F070
:107970000DFC394804F01AFB78B901A812F08EFF0B
:107980000AB0BDEC028B70BDDFED3F7ADFED3F8AC0
:107990008FE79FED3F8A2D4E1DE701A907A812F042
:1079A00089FE3C4907A812F0CDFF014604A812F059
:1079B00081FE07A812F072FFBDF81820049936481E
:1079C00002F080F904A812F069FFD6E7BDF8242080
:1079D0000799314802F076F9BEE7BDF824200799EF
:1079E0002D4802F06FF9A7E7BDF8242007992A482F
:1079F00002F068F98EE7082207A9204802F062F930
:107A000077E7BDF824200799234802F05BF926E7C1
:107A1000BDF824200799204802F054F90CE7BDF87E
:107A2000242007991C4802F04DF9F4E6BDF8242003
:107A30000799194802F046F9DBE600BFAFF3008072
:107A4000182D4454FB211940B0650020AC6500207E
:107A5000407E04001C6F0020A4660020547E0400B9
:107A60005C650020000048436F12833AFF5F6A475D
:107A700030650020D34D621058650020D864002086
:107A8000647E0400707E0400D153FB4100009643E5
:107A900000000000388B04003066002038B51D4C13
:107AA000002520462571A57325730CF049F84FF485
:107AB0007A7013F097F820460CF010F92A46204609
:107AC0005C210CF00BF8204602225B210CF006F83A
:107AD0002046802258210CF001F870221021204607
:107AE0000BF0FCFF042013F07DF82046B02210219B
:107AF0000BF0F4FF2046102215210BF0EFFF20467B
:107B00005E2120220BF0EAFFBDE83840052112205B
:107B100016F02EBB6465002000B542488BB001F022
:107B2000B3FB4148002104F017FA0121032016F0AD
:107B3000A3FB01210C2016F01BFB01210C2016F0E9
:107B40009BFB01210B2016F013FB01210B2016F0EB
:107B500093FB01210D2016F00BFB01210D2016F0E7
:107B60008BFB00230D220DF1030130488DF803300B
:107B70000CF014F89DF803202C4802F0F7020D21B8
:107B80008DF803200BF0AAFF122012F0DDFCFFF7A6
:107B900085FF0321122016F0EBFA322013F022F8B1
:107BA000234B24499B6C1F2B86BF03F01F03224AE3
:107BB0004FF0A04203F5E073322042F8231013F097
:107BC00011F81E4901A812F05BFD1D4801A912F031
:107BD000DDFA154804F0EAF950B901A812F05EFE8A
:107BE0004FF080430122C3F800250BB05DF804FB81
:107BF00001A907A812F05EFD124907A812F0A2FE23
:107C0000014604A812F056FD07A812F047FEBDF881
:107C1000182004990C4802F055F804A812F03EFE12
:107C2000DBE700BFE46C0020A46600206465002050
:107C3000AC8804000400020000030050807E0400B1
:107C40001C6F0020388B040030660020404A4149F8
:107C5000D2ED007A0B689FED406A9FED407A086094
:107C600030EE670AF5EE006AC31AE0EE267A06EEF9
:107C7000903AF8EE666AC2ED007A67EEA67A384B63
:107C800067EE867AB0EEE76AB4EEC76AF1EE10FAF4
:107C90002DDAD3ED007A9FED336AF4EEC67AF1EE79
:107CA00010FA34DA9FED307AF4EEC77AF1EE10FA7A
:107CB00001D9002070472D492D4AD1ED005A77EEA9
:107CC000867A07EE100A75EEE74AB7EE005A84EEA0
:107CD000A56A0120C3ED007AB8EE477A76EE457AC0
:107CE000A7EEA67AFCEEC77AC2ED007A704793ED54
:107CF000007A1E4A9FED1B6AC2ED007A77EE877A02
:107D0000F4EEC67AF1EE10FAC3ED007ACADB174939
:107D1000174AD1ED004A34EE865A07EE100A35EEC6
:107D2000675AB8EE477AC5EE245A012077EEC67A34
:107D3000B7EE004A35EEC46AC3ED007AF0EE477A3A
:107D4000E6EE867AFCEEE77AC2ED007A704700BF75
:107D50009C630020A06300206F12833A0AD7233C63
:107D6000A46300200000B4430000B4C39863002063
:107D70009065002010B5364B2DED028B1A7882B03D
:107D8000AAB912F023FF334B1A684EF66023801A0B
:107D9000984203D9304B1B78002B52D0FFF7E0FB01
:107DA00002B0BDEC028BBDE81040FFF78BBA002299
:107DB0002A481A700BF0AAFD294B9FED2A7AD3EDC1
:107DC000007AF0EEE76AF4EEC76AF1EE10FA1BDD16
:107DD000254B264A186892ED007ADFED256A254981
:107DE000BDEEC00A0B6810EE104A201A00EE100A11
:107DF000B8EEC00A013380EE276A0B60F0EE477AD6
:107E0000E6EE267AC2ED007A1B480CF051F91A48CA
:107E1000B0EE408A0CF098F960EE007AE8EE087A4D
:107E2000B1EEE70A8DED010A12F0D0FE9DED010AD8
:107E3000FFF70CFF0028A4D0104B1868FFF7B8FC20
:107E40009FE70F48FFF746FAFFF766FEA6E700BF79
:107E50004C6500205C6500202464002094650020AF
:107E600008600020BD37863588660020AC6500209C
:107E7000D7A3303EB06500206465002090650020E7
:107E8000987E040070B5A2B05C4909A80CF09EFB76
:107E90005B4909A800220CF047FC002862D009A821
:107EA0000CF0E0FC082855D1564C574E574D024671
:107EB000214609A80CF07CFC09A80CF0EFFC6368D3
:107EC0002268534832602B60FFF704FA514906A834
:107ED00012F0D6FB504806A912F034F94F4804F0CE
:107EE00065F8002849D106A812F0D8FC31680A22AA
:107EF000684612F061FC4848694612F047F9474865
:107F000004F054F800285FD1684612F0C7FC4449D9
:107F100006A812F0B5FB404806A912F013F93F4835
:107F200004F044F8002848D106A812F0B7FC95EDFB
:107F3000000A0621684612F073FC3748694612F0C1
:107F400025F9364804F032F8F0B9684612F0A6FC7C
:107F500022B070BD3348FFF7BDF909A80CF09EFCB4
:107F600022B070BD04463048FFF7B4F92649274BCC
:107F70002E4A0C601A6022B070BDBDF82020069910
:107F80002B4801F09FFEAEE7694606A812F092FB6F
:107F9000284906A812F0D6FC014603A812F08AFB75
:107FA00006A812F07BFCBDF814200399204801F0CC
:107FB00089FE03A812F072FCC7E7BDF820200699DD
:107FC0001B4801F07FFEAFE7694606A812F072FB7E
:107FD000184906A812F0B6FC014603A812F06AFB85
:107FE00006A812F05BFCBDF814200399104801F0BC
:107FF00069FE03A812F052FC86E700BF448500200A
:10800000B47E04001C640020886600200860002004
:10801000007F0400147F04001C6F0020A466002071
:10802000287F0400E47E0400C87E04000000C07FB6
:1080300030660020388B04002DE9F0436E4CDFF8E9
:10804000EC816E4F6E4E6F4DDFF8E49183B00022ED
:108050002046012103F074FD2046012103F07CFF3E
:108060002046082103F02AFF2046674903F0FEFE60
:108070004FF4207220464FF4A07102F049FB2046D5
:108080004FF47A6102F056FB0421204602F04AFBCD
:10809000404603F02FFA3846102101F093FD0022EC
:1080A0003846112101F0A6FD3846082101F090FD67
:1080B000384601F005FA3046022101F083FD002226
:1080C0003046112101F096FD3046042101F080FD7B
:1080D000304601F0F5F9042221230DEB0201304670
:1080E000019301F09BFD2846282101F06BFD112230
:1080F0001146284601F07EFD2846142101F066FD58
:1081000001224249424E434F284601F079FD28465C
:1081100001F0D6F9484603F0EDF93046122101F09E
:1081200051FD00223046112101F064FD304601214D
:1081300001F04EFD304601F0C3F9642301220DF138
:10814000030130468DF8033001F068FD3248334DAD
:1081500003F0D0F93846102101F034FD00223846F2
:10816000112101F047FD3846142101F02FFD38465A
:1081700001F0A6F928460C2101F024FD1122114638
:10818000284601F037FD2846142101F01FFD012289
:108190002349284601F034FD04F5C864284601F05F
:1081A0008FF90621204600F077FF204600F05CFFA3
:1081B000204600F02BFF4146204600F011FF4946C3
:1081C000204600F00DFF2046012100F097FFF42229
:1081D0002046202100F08EFF20461E2100F088FF5F
:1081E0002046002100F0EAFF0E490F4812F014F873
:1081F00003B0BDE8F08300BFA4660020D86400206F
:108200008064002028640020447F040075860200FA
:10821000A86300203066002018660020C06500209A
:10822000E58C0200547F04001C6F002034650020A0
:108230000064002030B566488BB04FF4E13105464C
:1082400004F07EFD12F0C2FC044605E012F0BEFC14
:10825000001BB0F5FA6F04D2284604F089FD00280F
:10826000F4D05C48FFF736F85B480BF007F90C20B8
:1082700015F01AFF032015F01DFF0121162015F03F
:1082800077FF0021162015F0F7FF01210E2015F0D1
:108290006FFF00210E2015F0EFFF0021232015F0C5
:1082A00067FF0121032015F063FF0021032015F073
:1082B000E3FF0221084615F05BFF002303220221A1
:1082C00046480BF0EDFA4B2012F08CFC4449032297
:1082D000022012F035F84FF47A7012F083FC414816
:1082E000FEF7F8FF4048414BC0F806304FF480726B
:1082F00040F20111012302833224037181810023A2
:108300008373837544810BF0E9FC3949044607A85F
:1083100012F0B6F92E4807A911F014FF354803F002
:1083200045FE10BB07A812F0B9FA0A22214601A89F
:1083300012F00EFA264801A911F028FF2D4803F08B
:1083400035FEC8B901A812F0A9FA1CB12A48FEF7F7
:10835000C1FFFEE7294811F0D3FC30BB0A2012F020
:1083600041FC0A2012F03EFCF8E7BDF824200799F2
:10837000234801F0A7FCD5E701A907A812F09AF954
:10838000204907A812F0DEFA014604A812F092F97B
:1083900007A812F083FABDF818200499184801F0D4
:1083A00091FC04A812F07AFACCE71749084811F0BA
:1083B00033FFFFF767FDFFF73FFE12F007FC134B9B
:1083C000024613481A60FEF785FF0BB030BD00BFB0
:1083D0001C6F0020787F0400CC830020946500206F
:1083E000C9720200947F040064650020D007680011
:1083F000A47F0400A4660020B87F04004485002008
:1084000030660020388B0400CC7F04005C650020BF
:10841000E07F040010B5344A344B354C12681B68B9
:1084200034496260A2B009A823600CF0CFF8324949
:1084300009A801220CF078F9002850D0002109A8E1
:108440000CF0D6F92146082209A80BF0CBFF044610
:1084500009A80CF041F809A80CF020FA274906A851
:1084600012F00EF9264806A911F06CFE254803F01B
:108470009DFD68BB06A812F011FA21460A22684643
:1084800012F066F91E48694611F080FE1D4803F09F
:108490008DFD20B9684612F001FA22B010BD694680
:1084A00006A812F007F9184906A812F04BFA01467F
:1084B00003A812F0FFF806A812F0F0F9BDF8142096
:1084C0000399124801F0FEFB03A812F0E7F9E1E777
:1084D000BDF8202006990D4801F0F4FBCAE70C48CE
:1084E000FEF7F8FE22B010BD08600020886600206C
:1084F0001C64002044850020B47E040048800400F1
:108500001C6F0020A4660020388B04003066002019
:10851000288004002DE9F0418AB04E4901A812F0EC
:10852000AFF801A94C4811F031FE4C4803F03EFD74
:1085300007AD002854D101A812F0B0F94FF47A70B9
:1085400012F050FB12F042FB0024DFF824810746B2
:10855000264602E00BF0D2F978BB12F037FBC31BC2
:10856000B3F57A6F4046F5D3002C36D13C4E3D49E9
:108570003460284612F084F83748294611F0E2FDAD
:10858000364803F013FD00285CD1284612F086F926
:1085900031680A2201A812F00FF92F4801A911F041
:1085A000F5FD2E4803F002FD98BB01A812F076F904
:1085B000FFF730FF0AB0BDE8F08140460BF0A6F9A6
:1085C00007EE906AF8EEE77A013437EE800AC82C9D
:1085D000FDEEC07A17EE906ABFD196FBF4F4C5E7C2
:1085E00001A9284612F066F81F49284612F0AAF998
:1085F000014604A812F05EF8284612F04FF9BDF8C3
:1086000018200499194801F05DFB04A812F046F9FE
:1086100091E701A9284612F04DF81349284612F0B7
:1086200091F9014604A812F045F8284612F036F9EF
:10863000BDF8182004990D4801F044FB04A812F07D
:108640002DF9B2E7BDF824200799084801F03AFB5C
:108650009BE700BF648004001C6F0020A46600201C
:1086600088660020147F0400388B040030660020E8
:10867000946500207BB330B513780C2B83B004468F
:108680000ED020250222014613488DF805308DF8C2
:1086900004508DF8062001F027FBA0B903B030BDCF
:1086A0000E490F4811F0B8FDFFF734FF0D4B0A4893
:1086B0001B68ADF8043021461B0C8DF8063001F024
:1086C00013FB0028EAD02146032301AA024801F047
:1086D0003BFB03B030BD7047286400208480040059
:1086E0001C6F0020A48004002DE9F0412DED028BC9
:1086F0008AB0BA4901A8B0EE408A11F0C1FFB8486B
:1087000001A911F043FDB74803F050FC002840F0E8
:108710000C8101A812F0C2F812F058FA0024B24FEE
:108720000646254641F2873804E00BF0E7F80028BA
:1087300040F0DC8012F04AFA831B43453846F4D9F6
:10874000002C40F0E4809FEDA90AA94E28EE008A93
:108750003568B5EEC08AF1EE10FAA4EB050540F2DB
:10876000D980002D00F0D68007EE905AF8EEE77A17
:10877000A04FA14987EE887A07A887ED007A11F00B
:108780007FFF974807A911F0DDFC964803F00EFC27
:10879000002840F0E38007A812F080F821460A2262
:1087A00001A812F009F88E4801A911F0EFFC8D48DC
:1087B00003F0FCFB002840F07A8101A812F06EF86B
:1087C0008E4907A811F05CFF854807A911F0BAFC93
:1087D000844803F0EBFB002840F0628107A812F008
:1087E0005DF831680A2201A811F0E6FF7C4801A972
:1087F00011F0CCFC7B4803F0D9FB002840F0378116
:1088000001A812F04BF87E4907A811F039FF74480F
:1088100007A911F097FC734803F0C8FB002840F04B
:108820001F8107A812F03AF829460A2201A811F080
:10883000C3FF6B4801A911F0A9FC6A4803F0B6FB1D
:10884000002840F0F48001A812F028F86D4907A82C
:1088500011F016FF624807A911F074FC614803F09B
:10886000A5FB002840F0DC8007A812F017F8B0EE56
:10887000480A062101A811F0D3FF594801A911F0B7
:1088800085FC584803F092FB002840F08E8001A838
:1088900012F004F85C4907A811F0F2FE504807A94D
:1088A00011F050FC4F4803F081FB002876D107A857
:1088B00011F0F4FF97ED000A062101A811F0B0FFB6
:1088C000474801A911F062FC464803F06FFB0028FD
:1088D0004BD101A811F0E2FF4C48FEF7FBFCFFF77B
:1088E00099FD0AB0BDEC028BBDE8F08138460BF073
:1088F0000DF807EE905AF8EEE77A013437EE800A69
:10890000C82CFDEEC07A17EE905A7FF413AF95FB9A
:10891000F4F418E73E48FEF7DDFC3E4B00221A70E7
:108920000AB0BDEC028BBDE8F08101A907A811F0E7
:10893000C1FE394907A812F005F8014604A811F054
:10894000B9FE07A811F0AAFFBDF818200499334812
:1089500001F0B8F904A811F0A1FFDAE6BDF824206F
:1089600007992E4801F0AEF915E701A907A811F003
:10897000A1FE294907A811F0E5FF014604A811F05E
:1089800099FE07A811F08AFFBDF818200499234822
:1089900001F098F904A811F081FF9AE7BDF82420AE
:1089A00007991E4801F08EF981E701A907A811F087
:1089B00081FE194907A811F0C5FF014604A811F06E
:1089C00079FE07A811F06AFFBDF818200499134832
:1089D00001F078F904A811F061FF58E7A8800400BD
:1089E0001C6F0020A4660020946500200AE81C414A
:1089F0008866002008600020E8800400147F0400DE
:108A0000F880040008810400287F04001481040019
:108A1000C480040024640020388B040030660020E9
:108A2000BDF8242007992E4801F04CF91CE701A954
:108A300007A811F03FFE2B4907A811F083FF01465C
:108A400004A811F037FE07A811F028FFBDF8182080
:108A50000499234801F036F904A811F01FFFF2E64B
:108A6000BDF8242007991E4801F02CF9D9E601A988
:108A700007A811F01FFE1B4907A811F063FF01466C
:108A800004A811F017FE07A811F008FFBDF8182080
:108A90000499134801F016F904A811F0FFFEAFE69F
:108AA000BDF8242007990E4801F00CF996E601A9BB
:108AB00007A811F0FFFD0B4907A811F043FF01467D
:108AC00004A811F0F7FD07A811F0E8FEBDF8182082
:108AD0000499034801F0F6F804A811F0DFFE6CE6F3
:108AE00030660020388B040030B587B0044612F0A1
:108AF0001BF86F4903A811F0C3FD6E4803A911F0DC
:108B000021FB6D4803F052FA00286ED103A811F042
:108B1000C5FE6848214611F039FB674803F046FA64
:108B2000002849D1654903A811F0AAFD03A92046F0
:108B300011F038FF054603A811F0B0FE2DB1B2EEDA
:108B4000040AFFF7D1FD07B030BD5D4903A811F05D
:108B500097FD03A9204611F025FF054603A811F053
:108B60009DFE1DB1FFF7D6FC07B030BD554903A8E7
:108B700011F086FD03A9204611F036FF054603A833
:108B800011F08CFE002D37D0A3682146012203A8E6
:108B900011F04EFF03A811F0C7FF03A811F0EEFF7C
:108BA000B5EEC00AF1EE10FA65DDFFF79DFD03A8F2
:108BB00011F074FE07B030BD214603A811F07AFD14
:108BC000414903A811F0BEFE0146684611F072FD4E
:108BD00003A811F063FEBDF8082000993B4801F09E
:108BE00071F8684611F05AFE9CE7BDF8142003990D
:108BF000364801F067F889E7354903A811F040FDD0
:108C000003A9204611F0CEFE054603A811F046FE4A
:108C1000002D3BD12F4903A811F032FD254803A9AF
:108C200011F090FA244803F0C1F940BB03A811F0F9
:108C300035FE2048214611F0A9FA1F4803F0B6F985
:108C4000002880D0214603A811F034FD1E4903A856
:108C500011F078FE0146684611F02CFD03A811F0D2
:108C60001DFEBDF808200099184801F02BF8684651
:108C700011F014FE67E71848FEF72CFB97E7BDF8E4
:108C800014200399114801F01DF8CFE74FF08043FD
:108C9000A822C3F81C25BFF34F8F1049104BCA6898
:108CA00002F4E0621343CB60BFF34F8F00BFFDE7D8
:108CB000308104001C6F0020A4660020488104005D
:108CC000E08504004C810400388B040030660020ED
:108CD00064810400688104005081040000ED00E01C
:108CE0000400FA05002B3AD070B5013B1C4E86B04B
:108CF00012FA83F5541E14F8011F304611F000FEDD
:108D0000A542F8D1174E164801230A21337011F0FD
:108D10007FFE041E1FDB124D2346002229466846B3
:108D200011F086FE621C0021284611F0AFFE694654
:108D300003A811F0BFFC03A8FFF7D6FE03A811F0AB
:108D4000ADFD0A21284611F063FE0446684611F085
:108D5000A5FD002CE0DA0023337006B070BD70472B
:108D6000B46500202464002010B5044B044640F88C
:108D7000083B02F0FBFB204610BD00BF348204001C
:108D80002DE9F0415F4D604C6048DFF8C481604ED2
:108D9000604F84B06A2200210AF074FE28460AF06F
:108DA0006BFD22465C49284619F05AFE684641F69A
:108DB000180102F0E3FB6946404602F0B7FB684643
:108DC00002F0D4FB22463146404619F049FE68467F
:108DD00042F66321514DDFF87C8102F0CFFB6946FA
:108DE000384600F0B9FE684602F0C0FB224629462C
:108DF00038464B4F19F034FE684642F6652102F0C2
:108E0000BDFB6946384600F0A7FE684602F0AEFB9F
:108E1000224629463846434F19F022FE684642F65C
:108E2000662102F0ABFB6946384600F095FE6846C5
:108E300002F09CFB2246294638463B4F19F010FEB3
:108E4000684641F60F0102F099FB6946384602F088
:108E50006DFB684602F08AFB224631463846334FA6
:108E600019F0FEFD684642F6192102F087FB6946BB
:108E7000384600F071FE684602F078FB224629462B
:108E800038462B4F19F0ECFD2A49684602F084FB66
:108E90006946384602F04AFB684602F067FB224604
:108EA0003146384619F0DCFD2349244F244E6846EC
:108EB00002F072FB6946404600F04EFE684602F042
:108EC00055FB22462946404619F0CAFD1D49684611
:108ED00002F062FB6946384600F03EFE684602F04A
:108EE00045FB22462946384619F0BAFD1649304658
:108EF00011F0C6FB15492246304619F0B1FD04B009
:108F0000BDE8F081946500200060002064650020C9
:108F1000698D0200D86400209D3803008D94020002
:108F2000806400202864002000640020A8630020E2
:108F30001866002080810400A8810400C06500201C
:108F4000B4650020D0810400588B04009DA8030064
:108F5000346500203066002072DF704773DF704791
:108F600074DF704777DF704738B5054608460C4612
:108F700002F032FB102803D080280ED0012038BD2B
:108F8000EB7FA2881B2B0EDCE9180320E854487005
:108F90004A80EB7F0433EB77F0E7A368002BEDD03A
:108FA000E97F0D2901DD002038BD6A1811206854C1
:108FB0000721517058681C689968DB68C2F80E3048
:108FC000C2F80600C2F80240C2F80A10EB7F123362
:108FD000EB77012038BD00BF0022C27702707047D6
:108FE00030B5D1E9042485B0CD68074B00936946BC
:108FF000CDE902240195FFF7B7FF0446684602F069
:10900000B5FA204605B030BD4C820400F0B589B0F9
:10901000064620221348694602F03CFFF37FC2183F
:109020001D2A0CDDC3F11D04E4B2E2181D2A4FF025
:109030000005D8BF082705DD284609B0F0BD044665
:1090400001250927F218601CF05469465770901CDE
:1090500022461AF0E7FBF27F023214442846F477E6
:1090600009B0F0BDA466002010B50446094802F01E
:109070006FFFE37F1C2B01DD002010BDE2180221F1
:10908000E1540A2390705370E37F0333E3770120A8
:1090900010BD00BFA4660020C27F1C2A01DD002095
:1090A000704710B403469C18022098540120A17008
:1090B0006070DA7F0332DA775DF8044B704700BFE7
:1090C00010B4084A084C094902620022C0E90A416A
:1090D000C0E90C225DF8044B0270C27742628263E1
:1090E000704700BFFF0101002000F40020001E00B7
:1090F000C1857047018581854285704780F82210BF
:10910000704700BFF0B5154605EB8503274A89B0C7
:10911000044603EB830300200E469B001168029077
:10912000CDE90460ADF8143094F821308DF80830A2
:10913000CB07CDE90600039009D41D491D4BC87F1C
:10914000E77F988101201C6099609F801060194919
:1091500002AA04F12000FFF7FFFE10B1002009B0C1
:10916000F0BD94F820101448019102F0F1FE01992D
:1091700002460120FFF7F6FE0028EFD194F8200008
:109180000121FFF7EBFE0028E8D10B4802F050FF69
:10919000628EA68595424FF0010094BF521B921A31
:1091A000628684F8230009B0F0BD00BF8C66002001
:1091B000206D002090660020A4660020F0B50023FA
:1091C00061F30F032D4D044661F31F4389B0036320
:1091D000FA21284602F0C4FEE68D2949278D086849
:1091E000049706EB860303EB830300229B000592A2
:1091F000ADF8143094F8213002928DF80830C3078E
:10920000CDE9062203920BD41E4BE27F95F89B0614
:109210009A8005F27C6501221C609D6098810A603D
:10922000184902AA04F12000FFF796FE10B10020B1
:1092300009B0F0BD94F820101048019102F088FEAA
:10924000019902460120FFF78DFE0028EFD194F826
:1092500020000121FFF782FE0028E8D1074802F034
:10926000E7FE638EA7859E424FF0010094BF9B1BD3
:10927000DB1A638684F8230009B0F0BDA4660020E1
:109280008C6600209066002010B5044690F82000FF
:10929000FFF766FE08B1002010BD84F823000248E5
:1092A00002F0DAFE012010BDA466002030B50B8864
:1092B0008D88112B85B0044605D0262B33D0102B7A
:1092C00025D005B030BD436AEB40DB07F9D52E4809
:1092D00001F0FEF90028F4D1636A94F8231001220A
:1092E00002FA05F523EA050363620029E9D194F83F
:1092F0002230002BE5D0238E23486386FA2102F02A
:109300002FFEE28D218D2046FFF7FCFED9E7CB7BB7
:10931000012BD6D1426A03FA05F5154300234562B5
:1093200080F82330CDE70B7A012BCAD1002380F8D7
:1093300023304FF4FA71144802F012FE238E5BB111
:10934000658E95B1A36B0BB19847658E618D2A46EA
:109350002046FFF7D7FEB4E7A36B03B19847618DB2
:1093600000222046FFF7CEFEABE7074802F074FE6E
:10937000626B002AA5D0009503AB294628460395C9
:1093800014F028FD9DE700BFA466002075DF70473C
:1093900010B44FF010144FF448010022C0E900410E
:1093A000C0E902225DF8044B704700BF014800F09D
:1093B00095BF00BF946D0020F8B500250D4F2E46D7
:1093C00001E0142D14D0A9B2384602F019FE01357F
:1093D00004460028F5D000F01BFE0028F1D02046FE
:1093E00000F020FE022804BF0136F6B2142DEAD1A7
:1093F0003046F8BDA466002070B58E881B480C4628
:1094000094B0314602F0FCFD23881A2B05D01F2BA7
:109410001CD0102B0FD014B070BD054600F0FAFD23
:109420000028F8D0284600F0F7FD0028F3D12846A0
:1094300000F058FEEFE7694600F03CFE0028EAD055
:109440006A4631460A4801F0F1FCE4E754F8080F97
:1094500061686B4603C33046BDF80030ADF802309A
:109460006946FFF793FF14B070BD00BFA4660020EB
:10947000C4660020AADF7047ABDF7047ACDF7047DF
:10948000ADDF7047AEDF7047B0DF704710B5044BFB
:10949000044640F8043B02F069F8204610BD00BFC6
:1094A0000482040010B5054B044640F8043B02F06A
:1094B0005DF8204613F060FF204610BD04820400D2
:1094C00070B57B4B04461B68836196B0043002F094
:1094D00093F894F82E30A06913F0320208BF84F894
:1094E0002F2013F00C0308BF84F830300DF1010277
:1094F000694602F031F894F82F209DF80100150715
:109500000DD09DF8001002F00F0301F00F059D42F1
:109510004FEA12126DD243EA021284F82F2094F817
:10952000303019070BD003F00F0100F00F058D420A
:109530004FEA131369D241EA031384F8303094F8E8
:109540002E1011F0300340F096800FAD0F93C5E957
:109550000133C5E903338DF83C10AB610021ADF850
:1095600009109DF80A10206A1493012363F3420145
:109570008DF808208DF80A1008B1037873BB94F8B1
:10958000263013B104F12603129394F831200023FE
:10959000D2070893079358BFE38AADF81C3004F153
:1095A000080004F12F01CDE9050154BF1846E08AF7
:1095B000ADF82000294604F13203E569099505AAB2
:1095C0000020FFF757FF054628B994F8253043BB24
:1095D000237D002B64D0284616B070BD10901BF080
:1095E0002CF802AB80B2ADF84400ADF846001393FE
:1095F000C5E74FEA111101D191428CD30A462B469F
:1096000043EA021284F82F2089E74FEA101001D1B3
:10961000984290D30346294641EA031384F8303038
:109620008DE7ADF80D009DF80E2094F82F600C909A
:10963000012363F3420242F608118DF80E208DF8E3
:10964000123004AA0223ADF8101003A90D90ADF852
:109650003030ADF834300A9204F124030B910DF14F
:1096600002020AA98DF80C600E93FFF705FF00288F
:10967000AED00546AFE70F4B8DF805200FAD1B7838
:109680008DF80430022000230F938DF80600C5E901
:109690000133C5E90333AB618DF83C1001AB5DE7E5
:1096A0002146054800F0D6FF284616B070BD00BF21
:1096B000A0660020F8810400E46A00202DE9F04152
:1096C0000B888E88502B8AB00C46054609D0512B4A
:1096D00004D18B79012B19D0022B26D00AB0BDE81A
:1096E000F081CB88428E9A4235D0EA8E9A42F5D1EB
:1096F0006B6D002BF2D095F84420648A920700F13C
:109700008A802246294630469847E7E7836C002B3B
:10971000E4D090F84420520701F108076CD43A468F
:10972000294630469847A379D6E7A27B042A46D03B
:10973000062A20D0012AD1D1EB6C002BCED095F88F
:109740004420170704F1080400F1A58022462946A9
:1097500030469847C2E7076D002FC6D090F84430D6
:10976000D90768D404F11208238A424629463046B4
:10977000B847E388B9E7EA6B002AAFD0002202A914
:109780003046CDE90222CDE90422ADF80C208DF857
:109790000830FFF779FE2C6D54B195F84430D807A6
:1097A00000F19280B5F84230EA6B30462946A04776
:1097B000E86B11F04DFA0023C5E90F338EE7E86B33
:1097C000002878D0B5F84010278A628A07EB020C8F
:1097D00000234FF0020E8C45CDE90633CDE9083366
:1097E0008DF818E039DD40F20913ADF81C3006A9F8
:1097F0003046FFF749FE71E703211A46009106AB98
:1098000008213846CDE90665089714F0E3FA0028E8
:1098100089D1AB6C83E7032000211A46009006AB88
:109820000846CDE90665089414F0D4FA00287FF4C0
:1098300055AF6B6D65E7218A069604F11208042383
:1098400000933A46404606ABCDE90881079514F0EF
:10985000C1FA00288DD12F6D86E79DF81EC0ADF8A6
:109860001C3004F114014CF001033844ADF82220FF
:109870008DF81E300991ADF8207019F0D3FF238ABE
:10988000618AB5F842200B449BB2934238BF13461D
:10989000A5F84230ABE703211A46009106AB0E2132
:1098A0002046CDE90665089414F094FA00287FF468
:1098B00015AFEB6C4AE74FF4806011F0AFF94FF44D
:1098C0008061C5E90F017FE7E86BB5F842100696A5
:1098D00004230093224606ABCDE90750099114F00A
:1098E00079FA00287FF464AF2C6D5BE72DE9F04F27
:1098F0000F464FF6FF718F4289B0064615461C464B
:1099000027D0F18A96F82E308C4228BF0C469B0651
:1099100015D40DF1100B8C4228BF0C464FF00008F7
:10992000718EADF810405A464FF6FF700595ADF8B0
:109930001280FFF7A3FD404609B0BDE8F08F36481E
:10994000394602F045FB804608B1F18E31B9F18A03
:10995000DFE7314802F048FB0746D2E70020022348
:109960000DF1100BADF81200ADF810305A460DF1A4
:109970000E0338460593FFF783FD43F201439842F7
:1099800047D008B9BDF80E0000F00200002840D012
:109990002148394602F034FB824688B300F044FB8C
:1099A000033883B2002CC6D0CDF804804FF00009F4
:1099B000984608E000F0A0FB10B3BDF80E30E41AA2
:1099C000A4B21D4414B34FF00200A0458DF812005C
:1099D0000DF10E00738EADF810304246CDE906054C
:1099E00028BF224659463846CDF813908DF8179077
:1099F000ADF80E20FFF746FD03465046002BD9D0A8
:109A00004FF00008404609B0BDE8F08FDDF8048053
:109A100091E7F18A7FE700BFA46600202DE9F04FAF
:109A20000F464FF6FF718F4289B0064615461C4619
:109A300026D0F18A96F82E308C4228BF0C46DB06E1
:109A400015D40DF1100B8C4228BF0C464FF00008C6
:109A5000718EADF810405A464FF6FF700595ADF87F
:109A60001280FFF70BFD404609B0BDE8F08F394882
:109A7000394602F0ADFA08B1F18E31B9F18AE0E76A
:109A8000344802F0B1FA0746D3E7002002230DF173
:109A9000100BADF81200ADF810305A460DF10E0360
:109AA00038460593FFF7ECFC43F2014398424FD050
:109AB00000284AD19DF80E8008F00108B8F1000F87
:109AC00046D02448394602F09BFA8246A0B300F003
:109AD000ABFA033883B2002CC5D0CDF804804FF028
:109AE0000009984605E0BDF80E30E41AA4B21D4402
:109AF00044B3504600F0ACFAA045034642465946EE
:109B000028BF22463846BBB1ADF80E204FF0010207
:109B1000738E8DF812200DF10E02CDE90625CDF8D9
:109B200013908DF81790ADF81030FFF7ABFC0028BC
:109B3000D9D0504600F096FA4FF00008404609B0E0
:109B4000BDE8F08FDDF804808DE700F00108B5E78F
:109B5000F18A78E7A466002070B44E68164A8660E1
:109B60000260D1E90262154B154D1C784560026117
:109B7000142500220321C0E90F22C0E91222C0E906
:109B80001422C660C58280F8311080F84420027526
:109B9000826102628284C0F82620C0F82A2080F800
:109BA0002E20C26142864263028780F82F4080F8EF
:109BB000304070BC704700BF04820400F88104008C
:109BC0004C82040080F82E10704700BFC18270479D
:109BD00041B190F83130C182002262F3000380F875
:109BE0003130704790F83130012262F3000380F881
:109BF0003130704780F82F1080F83020704700BF58
:109C000090F84430016562F3000380F844307047F7
:109C100051F8322F026049684160704730B5C48AFC
:109C200083B0944223460D4628BF1346418E0195CA
:109C300000246A464FF6FF70ADF80030ADF80240E0
:109C4000FFF71CFC18B9BDF8000003B030BD20467A
:109C500003B030BD30B5044685B0194802F0C4F9F0
:109C600094F82E3013F0100302D1184605B030BD21
:109C700005460146124802F0ABF90028F6D0E18E05
:109C800011B9084605B030BD0DF106032846002481
:109C9000022502AA0393ADF80A40ADF80850FFF779
:109CA000EFFB43F20143984205D030B99DF80630EE
:109CB00003F00100DAE72046D8E700F00100D5E71D
:109CC000A466002010B490F82E4014F0100407D0C1
:109CD00013465DF8044B0A464FF6FF71FFF79EBE30
:109CE00020465DF8044B704790F82E3013F02003A7
:109CF00001D11846704730B5044685B011480D466D
:109D000002F066F910B1E18E11B9084605B030BD18
:109D10000DF1060328460024022502AA0393ADF89C
:109D20000A40ADF80850FFF7ABFB43F201439842FD
:109D300006D008B9BDF80600C0F3400005B030BD3C
:109D40002046E3E7A466002010B490F82E4014F0FB
:109D5000200403D05DF8044BFFF7C8BD20465DF832
:109D6000044B7047A1DF7047A3DF7047A4DF704743
:109D700000238383704700BF006A00F0E3B800BF90
:109D8000808B70472DE9F0410B88CE88382B86B048
:109D90000C46054606D0392B66D0362B43D006B08C
:109DA000BDE8F08100F12407002E36D10A8A38463A
:109DB000314602F0E5F994F80C80B8F1010F2CD08F
:109DC000B8F1040FEBD1286A00F0BCF801465C48FA
:109DD00002F016F900F028F92A8E053883B2934272
:109DE00028BF1346002B00F09A80218AE289286A56
:109DF000AC8B8DF80D600A44E96A05918DF80C80F2
:109E0000ADF81230ADF81020ADF80E4000F09AF821
:109E100003A9FFF7A9FF0028C1D0384602F0C8F90E
:109E200006B0BDE8F081006A00F08CF801464448B5
:109E300002F0E6F800F0F8F807466EBB05F12406DC
:109E4000E289304604F1100102F09AF92B8E2BB111
:109E5000F81EE38980B20138834255DA304602F0B9
:109E6000A7F906B0BDE8F0810B7B012B1AD0022BBD
:109E700095D1836B002B92D090F83C208F8892076D
:109E80001FD401F11006E2893146284698476189BE
:109E90003846FFF76BFF82E705F12407384602F0EA
:109EA00087F9BDE7436B002B3FF479AF90F83C2076
:109EB000D10717D404F11006E289314628469847A5
:109EC0006DE7C989039004F1100603201A4600903B
:109ED00003AB3046CDE9046113F07CFF0028D6D1F6
:109EE000AB6BD0E7E189039004F1100603201A461A
:109EF000009003AB3046CDE9046113F06BFF0028FE
:109F00007FF44DAF6B6BD7E7286A00F01BF86A8EC1
:109F1000A98B92B2FFF726FF00289FD13FE7AA8BBB
:109F2000286AADF80E2040F20511ADF80C10CDE90D
:109F3000043300F007F803A9FFF716FF6DE700BF31
:109F4000A4660020808870478FDF704790DF7047DD
:109F5000B1DF7047B5DF704710B5074B03600446AB
:109F6000806A11F0C9FCE06A11F0C6FC206B08B1F0
:109F700011F0C2FC204610BD1C82040010B5094B34
:109F800003600446806A11F0B7FCE06A11F0B4FC8B
:109F9000206B08B111F0B0FC204613F0EDF920461B
:109FA00010BD00BF1C82040070B504460D4692E847
:109FB0000300A5800E0CA061A183144DA677172085
:109FC0001B2156892560E0809589D089E181D1796E
:109FD0006581012222752274A08161741846194698
:109FE00026819DF8105010F0DDFE2946A06228461B
:109FF00010F0D8FE4FF4885100234FF6FF72E18233
:10A00000E062628223636375204670BD1C82040097
:10A01000007D7047407D7047C07D113818BF01201A
:10A02000704700BF407C7047C08870470089704708
:10A030004B7D10B44BB11F310C688A888B7904605A
:10A0400082805DF8044B837170471831F4E700BFDC
:10A0500008B56621806A11F0C7FA003818BF0120E0
:10A0600008BD00BF08B500231A461946806A10F0E3
:10A07000CBFE003818BF012008BD00BF818800F169
:10A080001F02407C02F0DAB838B50A4605460C4695
:10A090008188407C02F0BEF82146012051F8483FFB
:10A0A000C5F81F308B888A7985F82520A5F82330DC
:10A0B000687538BD38B50A4604460D4600F11801EA
:10A0C000407C02F0F1F8607550B1294651F8483FE4
:10A0D000C4F81F308B888A7984F82520A4F82330AF
:10A0E00038BD00BF10B5447D24B100F11F01407C94
:10A0F00002F0B8F8204610BD38B50322044600210E
:10A10000012010F00DFE00254FF0FF312063A575F2
:10A1100011F06AFA206B11F0EFFBA07D256338BDCA
:10A1200070B50B88113B82B00C460546462B2BD8E8
:10A13000DFE803F0383B2A2A2A2A2A2A2A422A2A36
:10A140002A2A2A2A50585E642A2A2A2A2A2A2A2AAD
:10A150002A2A2A2A2A2A2A2A2A2A2A2A2A672A94B8
:10A160002A2A2A2A2A2A2A2A2A2A2A2A2A2A2A2A4F
:10A170002A2A2A2A2A246A2A752C84000023A888DD
:10A180001A461946FFF7E4FE02B070BD8B79002B2A
:10A19000FAD1006BAB750028F6D01A46194610F0BC
:10A1A00033FEF1E700230375EEE74B8903818B89CA
:10A1B0004381CB898381E7E70B7AC375112BE3D009
:10A1C000818800F11F02407C02F026F90346002836
:10A1D000DAD1D4E7002301A98088ADF80430FFF775
:10A1E000B3FED1E70B7A002BCED14B7A0374CBE7C9
:10A1F000002211468088FFF7A9FEC5E70B89C381BD
:10A20000C2E74B89C380BFE7006B0123AB75002811
:10A21000BAD000231A46194610F0F6FDB4E7417C87
:10A22000164801F0E5FEE3880146994228BF194629
:10A2300089B2A888E980FFF78DFEA5E78B79002B0E
:10A24000A2D0002600231A461946A86A10F0DCFDA9
:10A250000136A279F3B29A42F4D895E78B7A002BB3
:10A2600092D0002600231A461946E86A10F0CCFD69
:10A270000136A27AF3B29A42F4D885E7A4660020A8
:10A2800070B58AB086880B4606A84FF4285114464C
:10A2900005934FF6FF7501F071F90120CDE9010535
:10A2A000059B0094314606AA044800F06FF8044666
:10A2B00006A801F05BF920460AB070BDE46A0020F0
:10A2C00010B50446043001F0F7FE034B2360002371
:10A2D0002375204610BD00BF0100FFFF017D01B1C5
:10A2E000704710B50446043001F0F0FE01232375D9
:10A2F00010BD00BF007D70470B88322B10B504D015
:10A30000332B17D0302B08D010BDCB88DBB1041D08
:10A310002046BDE8104001F04BBFCB88041D002B48
:10A32000F6D14B89002BF3D00A3120460A2201F0E6
:10A3300027FFEDE7CB88002BE9D14A89002AE6D038
:10A3400002EB420204E04A89002AE0D002EB8202DA
:10A350005200041D023292B20A31204601F010FF71
:10A36000D6E700BFA0DF704710B5044600F5F870CF
:10A3700001F0A2FE2046F822002119F07BFAF82213
:10A38000A018002119F076FA204610BD2DE9F047FB
:10A3900082B00546BDF82C60BDF830402048ADF8CD
:10A3A0000460BDF828A0ADF80640904699460F46D7
:10A3B00001F026FE05F5F875064603E0FFF736FEC8
:10A3C00010F010FC284601F0D9FE04463046002C5F
:10A3D000F4D10121284601F079FE5246494628462B
:10A3E00001F090FE08F10401384601AAFFF7BAFF18
:10A3F00030B1284601F074FE204602B0BDE8F08777
:10A400004FF4FA71284601F083FE20EAE0742846F2
:10A4100001F066FEA4B2204602B0BDE8F08700BF9E
:10A42000A46600202DE9F04F8F880D8885B08846FE
:10A4300004463946864801F0E3FDA5F11003012BDF
:10A44000814640F2908094F854203AB30026334677
:10A450001633502D54F823A069D0512D1AD198F8F5
:10A460000630B8F808B0022B53D0BBF1000F11D062
:10A4700051466846FFF7CCFBBDF800305B4559D02C
:10A48000514602A8FFF7C4FBBDF80C305B4551D024
:10A4900094F854200136F3B29342D9D394F84C3156
:10A4A000002B00F0D18004F5A679002604E094F892
:10A4B0004C310136B34220DD59F8040FFFF75CFC44
:10A4C000B842F4D1382D03D0392D01D0362DEED13C
:10A4D000B8F80AA0BAF1000FE9D0D9F800B0584690
:10A4E000FFF74EFC5045E2D158464146FFF74AFC83
:10A4F00094F84C310136B342DEDC112D55D0352DA8
:10A5000004D1B8F80A30002B40F08F8005B0BDE8C8
:10A51000F08F98F80E30062BA7D1DAF800305046AD
:10A52000DB68414698474846FFF776FDB0E7B8F844
:10A5300006B09AE7DAF800305046DB6841469847A3
:10A540004846FFF769FD0028A2D0502DA0D1514602
:10A5500002A8FFF75DFBBDF80C305B4598D148467B
:10A56000FFF78CFD94E72378002B3FF46CAF0026B7
:10A57000112D33460CD004EB830339465868036829
:10A580005B68984701362278F3B29A42F3D85AE7CB
:10A5900004EB83033946586803681B689847013603
:10A5A0002278F3B29A42F3D84DE7D3B1002633466E
:10A5B00005E094F84C210136F3B29A4211D904EB2C
:10A5C0008305D5F85001FFF7D7FBB842F1D1D5F894
:10A5D0005001FFF7CDFB013694F84C21F3B29A42BB
:10A5E000EDD894F8F820002A90D000252B4604EBF3
:10A5F0008303D3F8FC008388BB420AD00135EBB259
:10A60000934283D204EB8303D3F8FC008388BB42DC
:10A61000F4D103681B689847013594F8F820EBB231
:10A620009342E4D305B0BDE8F08F04F5F874B8F8B0
:10A630000C20204608F1100101F0A2FD204605B0D3
:10A64000BDE8F04F01F0B4BD112D7FF458AFC8E75D
:10A65000A466002090F85420272A0CD810B4034692
:10A6600002F11604013280F8542043F8241001202E
:10A670005DF8044B70470020704700BF0378132B30
:10A6800006D800EB8302013303700120516070474C
:10A690000020704778DF70477ADF7047054A03462D
:10A6A00092E80300002283E80300C3E9022218466F
:10A6B000704700BF2482040008B5FFF7EDFF08B122
:10A6C000002008BDFFF7E6FFB0FA80F0400908BDA2
:10A6D000F8B500250D4F2E4601E0142D14D0A9B277
:10A6E000384601F08DFC013504460028F5D0FFF70F
:10A6F0008FFC0028F1D02046FFF794FC012804BF0E
:10A700000136F6B2142DEAD13046F8BDA466002019
:10A7100008B501804280FFF7BFFFB0FA80F0400922
:10A7200008BD00BF08B58180FFF7B6FFB0FA80F022
:10A73000400908BD08B5C180FFF7AEFFB0FA80F050
:10A74000400908BD704700BF8ADF704730B40D4C28
:10A75000C4621F25002250248584A025C0E911224F
:10A76000C0E90F22A0F84650A0F84840006230BC73
:10A770008262028680F838204263C264A0F85020CA
:10A78000704700BF000180002DE9F04F10468DB0EA
:10A7900016460C4600F020FFC5B2102D4FD0B6680B
:10A7A00007220623A16994F81C9001918DF80D20D1
:10A7B0008DF80C30ED080DF10C080DF10E0A002794
:10A7C000B9F1010F0A97CDE90477CDE90677CDE914
:10A7D0000877CDF82B700ED998F8000001994B46F8
:10A7E0004A7882420FD00A78D4432344013213F0CE
:10A7F000FF031144F4D108F10108C245E0D1002063
:10A800000DB0BDE8F08F11F8024B013CE4B22246D6
:10A8100004A819F007F80DF1100B1CB9EBE714F0C0
:10A82000FF04E8D058462A46314618F0EDFF641B75
:10A83000AB440028F3D101200DB0BDE8F08F043601
:10A8400003220223AEE700BF2DE9F0430B888E8878
:10A85000103B87B00D4604460D2B2CD8DFE803F0E3
:10A8600077072B2B2B2B2B2B2B2B2B842B2E836A1D
:10A87000F340DB071FD55648FEF79EFDD8B9A36A03
:10A8800094F82C20012505FA06F623EA0606A662AE
:10A890008AB994F82D3073B11F232462A38404F184
:10A8A000200104F14400FFF74FFF20B9494801F0AF
:10A8B000BFFB84F82C5007B0BDE8F08390F92E2040
:10A8C00091F91B309A423ADC90F8383001F10808CF
:10A8D0000BB3DFF80491002602E0D6B2B34218D9D8
:10A8E000636BCDF8089003EB061302AA5968039135
:10A8F000D3E902734146204605930497FFF744FFCE
:10A90000074602A800F032FE94F83830721C002F7F
:10A91000E3D09E4213D094F82F30002B49D095F805
:10A920002430012B0BD9296A4A78FF2A30D00A78C3
:10A93000D0430344013213F0FF031144F4D104F176
:10A9400020010020FFF700FF07B0BDE8F083CB7BBC
:10A95000022BB0D1836A012202FA06F633430022A9
:10A96000836280F82C20A6E70B7A012BA3D1002567
:10A9700080F82C50174801F06FFB226C002A9AD007
:10A98000009502AB29462846029513F023FA92E778
:10A9900011F8025B6A1ED2B2022A28BF022202A864
:10A9A00018F040FF012DCAD0228EBDF808309A421F
:10A9B000C5D1E26B002A3FF47EAF012300934046ED
:10A9C00002AB2421CDF8088013F004FA73E700BF2E
:10A9D000B4660020A46600204C82040046DF704765
:10A9E0007FDF704780DF704781DF704785DF70470A
:10A9F00086DF704738B51C460D460346114628468B
:10AA00002246984734B1014600222846BDE8384026
:10AA1000FFF7E8BF38BD00BF10B50C4682B0034653
:10AA20006946204698476A4620460121FFF7DAFF2B
:10AA300002B010BD10B50446083001F017FF074BF7
:10AA40002360032200232271C4F81034C4F81434A4
:10AA5000C4F81834C4F81C34204610BD3507100360
:10AA600030B50446ADF55F7D00F108058F4801F073
:10AA700091FE0821284601F0FDFE684601F004FF22
:10AA80006846082101F004FF6946284601F0A2FE4D
:10AA900004F54F714122684601F008FF684601F055
:10AAA00001FF94F85C0394F85B2394F83D1394F849
:10AAB0003E3384F83D0384F83E2394F85A0394F817
:10AAC000592394F83F5384F85C1384F85B3394F86B
:10AAD000401394F8413384F83F0384F8402394F8FA
:10AAE000580394F8572384F85A5384F8591394F868
:10AAF000425394F8431384F8410384F8583394F88C
:10AB0000560394F8443384F8422394F8552384F888
:10AB1000575384F8430384F8442384F8553384F866
:10AB2000561394F8451394F8540394F8532394F867
:10AB3000463384F8450384F8462394F8520394F886
:10AB4000512394F8475384F8541384F8533394F8FA
:10AB5000481394F8493384F8470384F8482394F859
:10AB6000500394F84F2384F8525384F8511394F807
:10AB70004A5394F84B1384F8490384F8503394F8FB
:10AB80004E0394F84C3384F84A2394F84D2384F808
:10AB90004F5384F84B0384F84C2384F84D3384F8E6
:10ABA0004E1394F85D1394F87C0394F87B2394F887
:10ABB0005E3384F85D0384F85E2394F87A0394F896
:10ABC000792394F85F5384F87C1384F87B3394F8EA
:10ABD000601394F8613384F85F0384F8602394F879
:10ABE000780394F8772384F87A5384F8791394F8E7
:10ABF000625394F8631384F8610384F8783394F80B
:10AC0000760394F8643384F8622394F8752384F807
:10AC1000775384F8630384F8642384F8753384F8E5
:10AC2000761394F8651394F8740394F8732394F8E6
:10AC3000663384F8650384F8662394F8720394F805
:10AC4000712394F8675384F8741384F8733394F879
:10AC5000681394F8693384F8670384F8682394F8D8
:10AC6000700394F86F2384F8725384F8711394F886
:10AC70006A5394F86B1384F8690384F8703394F87A
:10AC80006E0394F86C3384F86A2394F86D2384F887
:10AC90006B03012084F86F5384F86E1384F86C23DF
:10ACA00084F86D330DF55F7D30BD00BF306E002040
:10ACB0000B7803F0FE03042B01D00020704770B521
:10ACC00015468CB00C462022002104A818F0D2FDB5
:10ACD00028686968AA68EB686D460FC59DF8001082
:10ACE0009DF80F209DF801609DF80E509DF8020020
:10ACF0008DF80F1023469DF80D108DF800209DF85B
:10AD000003208DF80E608DF801509DF80C609DF8C1
:10AD100004508DF80D008DF802109DF80B009DF881
:10AD200005108DF80C209DF80A208DF803608DF831
:10AD30000B508DF804008DF805208DF80A109DF851
:10AD4000061033F8042FADF810209B789DF80920E9
:10AD50009DF81D009DF810609DF81F508DF809109A
:10AD60008DF806209DF811109DF81E208DF81D30DD
:10AD70009DF807308DF812008DF81F609DF80800CF
:10AD80009DF813608DF810508DF81E109DF81C5022
:10AD90009DF814108DF811208DF808309DF81B20B7
:10ADA0009DF81A308DF807008DF81C608DF813504F
:10ADB0009DF815608DF81B108DF8142068468DF8ED
:10ADC00015309DF819109DF817209DF818309DF842
:10ADD00016508DF818208DF816108DF817308DF854
:10ADE0001A608DF81950FFF7F9FD62789DF82F3041
:10ADF0009DF82E009DF82D108DF821009A428DF8B7
:10AE0000221004F1010404D0012080F001000CB0F4
:10AE100070BD6278C3B29A4204F10104F4D1627841
:10AE2000CBB29A42F0D10020EFE700BF08B5137C07
:10AE3000DB0758BF1C32084602F11201FFF7D6FDAE
:10AE4000B0FA80F0400908BDF0B58F880E46ADF528
:10AE50006B7D04463946464801F0D2F83388133BEF
:10AE60000546072B2FD8DFE813F03E005F006D008A
:10AE70002E002803870008003100337AB3B9737BB2
:10AE80009B070ED4294602A8FFF7D2F80299BDF815
:10AE90000C209DF80E3084F80C34C4F80614A4F885
:10AEA0000A24284604F2BE31FFF7EEF8D4F818243D
:10AEB0004AB1307A0D9002230021009308460CAB72
:10AEC0000C9712F087FF0DF56B7DF0BDD4F81C24B4
:10AED000002AF8D001230021009308460CAB0C9700
:10AEE00012F078FFEFE704F2BE3304F2DA320C938B
:10AEF00004F2F63300251092119304F23D3204F26D
:10AF00007E330F921393CDE90D551295FFF78AF812
:10AF100001280CBF22462A460CAB29463846FFF7CB
:10AF20005FFD0DF56B7DF0BD0CA9FFF7C3F803467F
:10AF3000002800F0D2820CA9384600231AAAFFF795
:10AF400057FDC0E7D4F810140029BCD0B37B094AE0
:10AF500003F001030F930423CDE90C1706F1080059
:10AF6000009306210CAB0E9012F034FFABE700BF4C
:10AF7000A4660020F5A9020094F87E3394F89D237E
:10AF800094F87FC394F89C6394F8805394F89B03DF
:10AF900084F89D33042194F89A3384F87D1384F85F
:10AFA0007E2394F8811394F8822384F89CC384F858
:10AFB0007F6394F899C394F8836384F89B5384F86F
:10AFC000800394F8985394F8840384F89A1384F8CF
:10AFD000813394F8971394F8853384F8992394F87F
:10AFE000962384F882C384F8986384F8835384F8A2
:10AFF000970384F8841384F8852384F8963394F8AF
:10B00000862394F8953394F887C394F8946394F85E
:10B01000885394F8930394F8891384F8952384F85B
:10B02000863394F8922394F88A3384F894C384F88E
:10B03000876394F891C394F88B6384F8935384F8EE
:10B04000880394F8905394F88C0384F8921384F84E
:10B05000892394F88F1394F88D2384F8913394F80E
:10B060008E3384F88AC384F8906384F88B5384F811
:10B070008F0384F88C1384F88D3384F88E2394F82E
:10B080009E2394F8BD3394F89FC394F8BC6394F85E
:10B09000A05394F8BB0394F8A11384F8BD2384F85B
:10B0A0009E3394F8BA2394F8A23384F8BCC384F88E
:10B0B0009F6394F8B9C394F8A36384F8BB5384F8EE
:10B0C000A00394F8B85394F8A40384F8BA1384F84E
:10B0D000A12394F8B71394F8A52384F8B93394F80E
:10B0E000B63384F8A2C384F8B86384F8A35384F811
:10B0F000A41384F8B62384F8A53384F8B70394F82E
:10B10000A60394F8B51394F8A72394F8B43394F8ED
:10B11000A86394F8B35384F8B50384F8A61394F89D
:10B12000A90394F8B21384F8B42384F8A73394F8ED
:10B13000AA2394F8B13384F8B36384F8A85394F83D
:10B14000AB6394F8B05384F8B20384F8A91394F86D
:10B15000AC0394F8AF1384F8B12384F8AA3394F8BD
:10B16000AD2394F8AE3384F8AD3384F8AE2384F87D
:10B17000B06384F8AB5384F8AF0384F8AC130CA825
:10B1800001F082FB0CA8082101F082FB04F27D3162
:10B190000CA8412201F09CFB0CA904AA202304F175
:10B1A000080001F045FB0CA801F07CFB9DF8101095
:10B1B0009DF82F009DF811309DF82E209DF812600B
:10B1C0009DF82D508DF810008DF82F109DF813006C
:10B1D0009DF82C108DF811208DF82E309DF814203C
:10B1E0009DF82B308DF812508DF82D609DF815507C
:10B1F0009DF82A608DF813108DF82C009DF816101C
:10B200009DF829008DF814308DF82B209DF817300B
:10B210009DF828208DF815608DF82A508DF81600BD
:10B220008DF817208DF828308DF829109DF818100A
:10B230009DF827009DF819309DF826209DF81A608A
:10B240009DF825508DF818008DF827109DF81B00EB
:10B250009DF824108DF819208DF826309DF81C20BB
:10B260009DF823308DF81A508DF825609DF81D50FB
:10B270009DF822608DF81B108DF824009DF81E109B
:10B280009DF821008DF81C308DF823209DF81F308B
:10B290009DF820208DF81D608DF822508DF821102A
:10B2A0008DF81F208DF820308DF81E0094F87E0355
:10B2B00094F89D1394F87F2394F89C3394F880635A
:10B2C00094F89B5384F89D0384F87E1394F88103CB
:10B2D00094F89A1384F89C2384F87F3394F882239B
:10B2E00094F8993384F89B6384F8805394F88363CB
:10B2F00094F8985384F89A0384F8811394F884039B
:10B3000094F8971384F8992384F8823394F885236A
:10B3100094F8963384F8986384F8835384F88413FC
:10B3200084F8962384F8853384F8970394F8860389
:10B3300094F8951394F8872394F8943394F88863D9
:10B3400094F8935384F8950384F8861394F889034A
:10B3500094F8921384F8942384F8873394F88A231A
:10B3600094F8913384F8936384F8885394F88B634A
:10B3700094F8905384F8920384F8891394F88C031A
:10B3800094F88F1384F8912384F88A3394F88D23EA
:10B3900094F88E3384F8906384F88B5384F88C137C
:10B3A00084F88E2384F88D3384F88F0394F89E03F9
:10B3B00094F8BD1394F89F2394F8BC3394F8A063D9
:10B3C00094F8BB5384F8BD0384F89E1394F8A1034A
:10B3D00094F8BA1384F8BC2384F89F3394F8A2231A
:10B3E00094F8B93384F8BB6384F8A05394F8A3634A
:10B3F00094F8B85384F8BA0384F8A11394F8A4031A
:10B4000094F8B71384F8B92384F8A23394F8A523E9
:10B4100094F8B63384F8B86384F8B70384F8A413B7
:10B4200084F8B62384F8A53384F8A35394F8A6537C
:10B4300094F8A72394F8B43394F8B50394F8A813B8
:10B4400094F8B36384F8B55384F8B42394F8A953FB
:10B4500094F8AA2384F8A73394F8B13394F8B0C3CE
:10B4600084F8A60384F8B31394F8B20394F8AB13EA
:10B4700084F8A86384F8B25394F8AC6394F8AF539B
:10B4800084F8B12384F8AA3394F8AD2394F8AE334A
:10B4900084F8A90384F8B013384604A984F8ABC330
:10B4A00084F8AF6384F8AC5384F8AE2384F8AD33EA
:10B4B000FFF79AFA0DF56B7DF0BDD4F81424002A3D
:10B4C0003FF401AD0223002100930C920CAB064A1D
:10B4D0000D97084612F07EFCF5E438461A461946E8
:10B4E000FFF786FAEFE400BF19AA0200A8DF704751
:10B4F000704700BF30B5044683B0083000F07CF8D8
:10B5000004F10C010DF106020120FFF7EFFF0546E3
:10B5100028B9044B04481C602146FFF7AFF82846C1
:10B5200003B030BDA0660020E46A002030B44C684F
:10B53000C460D1E90241054A054D0260054A8560B3
:10B54000C0E90441426030BC704700BF348204004F
:10B550004C8204000000111183790B70C3791370C1
:10B56000704700BF62DF704763DF7047704700BFFE
:10B5700010B5044611F000FF204610BD10B4054C74
:10B580008180002201210460C0E902225DF8044BA1
:10B59000817170474C82040038B50E4B036004463D
:10B5A00008460D4619F049F8042806D00023A37177
:10B5B000E560A380A360204638BD28461022002104
:10B5C00019F03CFF01220023A271A080C4E90233DC
:10B5D000204638BD4C8204008379012B0AD0826852
:10B5E00032B9C26822B9012B8CBF8020002070477D
:10B5F00080207047102070472DE9F047857982B090
:10B60000002D47D1C7680646002F47D010200FF005
:10B6100005FB8246384619F010F8441E30B3DFF8B7
:10B620008490A84604E00134023C1FD4102D1DD0A4
:10B6300017F804C0BCF12D0F07EB0402F3D099F802
:10B640000030ADF805808DF8043012F8013C8DF81B
:10B6500004301022002101A88DF805C019F0EEFE7B
:10B660006B1C023C0AF80500DDB2DFD5C6F808A065
:10B67000BAF1000F0ED0B11D5046FFF773FFB1684D
:10B68000321D1020FFF770FFB0FA80F0400902B0C1
:10B69000BDE8F087012002B0BDE8F087D0F808A02F
:10B6A000E6E700BF408204004DDF70474EDF704781
:10B6B0004FDF704750DF70474BDF704710DF704738
:10B6C0007CDF70477DDF704760DF704769DF704760
:10B6D00061DF704766DF704767DF7047704700BF04
:10B6E0000C2012F009BE00BF30B5224C224D83B0B1
:10B6F000D4F828074FF0FF310FF076FF0028F7D07D
:10B70000C5B101A8FFF7D8FF0528F1D00028F8D16E
:10B71000019B032B1BD8012BF3D918460EF062FCBA
:10B72000EFE70A2B04D0092B21D00B2B02D10120EB
:10B7300007F020F901A8FFF7BFFF0528D8D000289F
:10B74000F8D1019BA3F10902022AF3D8E9E7A3F19A
:10B750000902022AD5D80A2B04D0092B05D00B2BBD
:10B76000CFD1012007F006F9CBE70220FAE702204B
:10B77000DEE700BFA4660020E59F03002DE9F04F3F
:10B780002DED028B4FF4FA7089B00FF047FAB24EEC
:10B7900000F1080308EE103A054606F5F06706F5D5
:10B7A000C86AD6F824074FF0FF310FF01DFF0028BC
:10B7B000F7D04FF4FA730DF116012846ADF81630A4
:10B7C000FFF786FF10B10528F3D1EAE7B5F804903A
:10B7D000B9F1130F00F2398106EB8903D3F834472E
:10B7E0003CB129462046FEF79BFC9C482946FFF7C2
:10B7F0002BFB2B88013B1B2B5AD8DFE813F01601DB
:10B800005900590059005900590059005900590070
:10B81000590059005900590059005900B4001C0042
:10B820005900590059005900590059005900590050
:10B8300059005900A200DFF838824FF0000B58F889
:10B84000040F30B1FEF7E4FB18B10BF1010B5FFA06
:10B850008BFBB845F3D1BBF1000F06D196F830371A
:10B860001BB159460C2012F007FD2046FEF7DAFB0B
:10B87000012800F0EC80F26962B10223002195F802
:10B8800008C00093084606ABCDF81890CDF81CC050
:10B8900012F0A0FA09F5E67806EB8803586810B1B3
:10B8A00003685B68984706EB88080023C8F80430F3
:10B8B00029465046FDF7FAFC69482946FEF7C4FFC1
:10B8C000B6F832374B452B8800F0B480102B1ED0D1
:10B8D0002CB32046FEF7A6FB012803D15E4829467B
:10B8E000FEF730FF2046FEF79DFB02281BD05D4887
:10B8F000FEF700FD00BB5C482946FEF793FDD6F835
:10B900008837002B3FF455AF2846984751E7EB7B2B
:10B91000012BDDD1AB88A6F83237002CD9D14E48A7
:10B920002946FEF70FFF51482946FDF765FD4D48B2
:10B93000FEF7E0FC0028DED04A482946FEF7DCFC92
:10B94000D9E7D6F88427002AB2D00223002195F93E
:10B9500008C00093084606ABCDF81890CDF81CC07F
:10B9600012F038FAA4E74FF00008D6F82C07CDF80B
:10B9700000804346424603213D4C11F0BBF954F888
:10B98000040F30B1FEF744FB18B108F101085FFA6B
:10B9900088F8BC42F3D196F830376BB1B8F10001AA
:10B9A00018BF01210C2012F067FC96F830371BB14C
:10B9B00001210C2012F060FC09F5E67806EB880402
:10B9C000606820B103685B68984700236360EB7B85
:10B9D000012B0BBF96F8123796F8183796F81347D5
:10B9E00096F819470393342011F0C4FC06EB88083D
:10B9F000039B009418EE102A04464946FEF7D4FA39
:10BA00002046C8F80440FEF70DFB012832D0B26989
:10BA1000002A3FF44DAF012300210093084606ABF6
:10BA2000CDF8189012F0D6F942E700214846FFF70A
:10BA300051FE3DE7102B3FF46AAF112B7FF448AF66
:10BA40004FF6FF73A6F8323742E70446D1E6F268B4
:10BA5000002A7FF412AF1DE7A4660020C466002010
:10BA6000406D0020946D0020E46A0020B466002040
:10BA7000D46D0020B268002A3FF41AAF0021009074
:10BA800006AB0846CDF8189012F0A4F910E700BFF5
:10BA900038B50446FEF702FE04F11000FDF778FC0D
:10BAA00004F12000FEF7C6FF04F58860FEF75CFC99
:10BAB00004F5C860FDF704FB04F27C60FDF78CFA26
:10BAC00004F29C60FEF742FE04F5DE60FEF7F8FB30
:10BAD0004FF480530025C4F8083716481649174A12
:10BAE000C4F80C0740F20113C4F81017C4F8142767
:10BAF000A4F81837A4F81A5704F2347029465022D3
:10BB000017F0B8FE01224FF6FF73A4F81C5784F813
:10BB10001E57C4F82457C4F82857C4F82C57C4F843
:10BB20008857C4F8845784F83027A4F83237204661
:10BB300038BD00BF010A1700030001011700030010
:10BB4000F0B5BF4E80F81C178DB080F81D27044655
:10BB500011F08EFC11F094FC11F052FC3369B949DC
:10BB6000039303A8FFF7AAFD18B1002528460DB0DE
:10BB7000F0BD0120FFF79AFD0120FFF795FD0120A0
:10BB8000FFF796FD09A8FFF795FD099B9B0705D5D3
:10BB9000AD4BD3F80435002B00F0FE800023AB4AF8
:10BBA00094F80D57049209A90120CDE909330B93AC
:10BBB0008DF82450FFF78AFD0028D6D194F81D3760
:10BBC0000B90CDE90900181E18BF012094F81C57EE
:10BBD0008DF82700049A8DF8263009A940208DF8A9
:10BBE0002550FFF773FD0028BFD194F80C1709907A
:10BBF000034661F30003CDE90A00049A8DF824306E
:10BC000009A9A020FFF762FD0028AED1D4F80837BB
:10BC10000A900B90049A099309A9A120FFF756FDF9
:10BC20000028A2D194F81C37002B40F0B98094F87A
:10BC30001D37002B48D00023B4F81477049A0993D9
:10BC4000022509A92320CDE90A338DF82450ADF847
:10BC50002670FFF73BFD002887D1CDE9090094F855
:10BC60001D77B4F816370B90049A8DF8245009A963
:10BC700020208DF82670ADF82830FFF727FD00282A
:10BC80007FF473AF0990CDE90A0094F81837049A4D
:10BC90008DF8245009A922208DF82630FFF716FDD3
:10BCA00000287FF462AFCDE9090094F819370B90B2
:10BCB000049A8DF8245009A921208DF82630FFF729
:10BCC00005FD00287FF451AF04A8FFF7FDFC002814
:10BCD0007FF44BAFCDE9070040F0010307A9022034
:10BCE0008DF81C30FFF7F8FC00287FF43EAF2046AB
:10BCF000FEF7E2FC054600283FF437AF04F12000D0
:10BD0000FEF7AEFE337D52498DF80830182202A8A6
:10BD1000FFF7D6FC00287FF428AF94F81D37002BDE
:10BD200040F088800322002101200EF0F9FFC4F8C2
:10BD3000240700283FF419AF05AB0326CDE90063C3
:10BD40004449454800234FF4A0620FF073FF324688
:10BD5000002101200EF0E4FFC4F8280700283FF47A
:10BD600004AF06ABCDE900633C493D480023C8223F
:10BD70000FF060FF3B4B4FF480021A603A4B009388
:10BD80000023184601224FF4807110F05DFFC4F8C3
:10BD90002C0700F019FAE9E6022006F0EBFDFDE6BB
:10BDA0000990CDE90A00B4F80E37049AADF82630B0
:10BDB000012509A923208DF82450FFF787FC0028CE
:10BDC0007FF4D3AECDE9090094F81C77B4F81037AE
:10BDD0000B90049A8DF8245009A920208DF8267024
:10BDE000ADF82830FFF772FC00287FF4BEAE099052
:10BDF000CDE90A0094F81237049A8DF8245009A965
:10BE000022208DF82630FFF761FC00287FF4ADAECC
:10BE1000CDE9090094F813370B90049A8DF824505B
:10BE200009A921208DF82630FFF750FC00283FF4A7
:10BE3000FEAE9AE604F11000FDF7B8FA72E700BF13
:10BE4000B4820400DDB602000070024000600020F1
:10BE500090820400AC8204007DB70200B08204002E
:10BE6000E9B6020000E100E0E1B6020000B5084BCF
:10BE700085B01B7D019108468DF80C3018F0DDFB74
:10BE8000019982B203A8FFF71BFC05B05DF804FB23
:10BE9000B482040000B583B008460DF10601ADF888
:10BEA0000620FFF70FFC20B99DF8060003B05DF8EF
:10BEB00004FB002003B05DF804FB00BF70B4234B0B
:10BEC0000E4605460FCB85B06C4607C49DF9002091
:10BED0002380B24234D09DF90130B34230D09DF975
:10BEE0000230B3422CD09DF90330B34228D09DF9E3
:10BEF0000430B34224D09DF90530B34220D0FEB1C6
:10BF00009DF90730B3421BD09DF90830B34217D0DA
:10BF10009DF90930B34213D09DF90A30B3420FD0D6
:10BF20009DF90B30B3420BD09DF90C30B34207D0D2
:10BF30009DF90D30B34203D0002005B070BC7047AE
:10BF4000012085F81E6705B070BC7047CC820400E4
:10BF500090F91E07704700BF80F83017704700BF88
:10BF600070B5044682B0D0F82C070D4610F0EEFEF6
:10BF70004FF47A7206460023A90DA80217F01CFAA6
:10BF8000002302460421D4F82C07009310F0B2FEDF
:10BF90000EB102B070BD0096D4F82C07334632467D
:10BFA000032110F0A7FE02B070BD00BF70B500F510
:10BFB000E66400F5F065002654F8040F20B1FEF7A2
:10BFC00027F808B10136F6B2AC42F5D1304670BD63
:10BFD000132906D800EB8101D1F8340708B1FEF728
:10BFE00017B80020704700BFB0F83207704700BF95
:10BFF00001290CBFB0F80E07B0F81407704700BF56
:10C0000013299ABF00EB8101D1F834070020704753
:10C0100010B5064C0021D4F828070FF059F9D4F8D0
:10C0200024070021BDE810400FF052B9A46600209B
:10C0300090F8303703B9704710B582B0D0F82C476C
:10C040000FF0E8FF0023024600932046012110F084
:10C0500051FE02B010BD00BFF0B583B0002405460C
:10C060002346D0F82C0700942246032110F042FE0C
:10C0700005F5E66605F5F06756F8040F20B1FDF703
:10C08000C7FF08B10134E4B2BE42F5D195F83037AC
:10C0900043B1211E18BF01210C2003B0BDE8F040C0
:10C0A00012F0EAB803B0F0BD0148FFF7F1BC00BFE1
:10C0B000A466002000207047002201214270C0E9E0
:10C0C00001220170C2818281704700BF10B5044611
:10C0D000017001B110BD0A200EF064FE606010BD59
:10C0E000037810B5044643B1002301226370C4E90C
:10C0F0000133E381A381227010BD40680FF0FCFB87
:10C10000F2E700BF002381608281C381704700BFD6
:10C11000037870B504460D46B3B9466801236370D1
:10C120004FF47A720023A802A90D17F045F90146D1
:10C1300030460FF059FA98B9237800264FF0FF35B2
:10C140006670A3B9284670BD0322002101200EF0BD
:10C15000E7FD064660600028E0D14FF0FF35F1E7CB
:10C16000E58923780026ADB26670002BEAD06068BE
:10C170000FF0C2FB6660284670BD00BF4078704774
:10C1800038B504468089824228BF0246154619B157
:10C19000A06817F047FBA089E389A26815FA83F32A
:10C1A000401B9BB22A44A081E381A260284638BD8F
:10C1B000406820B100231A4619460EF025BE70478C
:10C1C000B1DF7047B2DF704708B50F480DF098FD3A
:10C1D0000E490D4808F078F828B10D490A4808F0D2
:10C1E00073F850B108BD0949074808F089F80849B3
:10C1F000054808F069F80028F4D1BDE80840044972
:10C20000014808F07DB800BF44850020DC820400AE
:10C21000F082040070B586B00E4603230021054667
:10C2200014460093044A0496084603AB039505940C
:10C2300011F0D0FD06B070BD01C5020070B586B02A
:10C240000323144606460D460093104603AB044AEA
:10C2500005940721CDE9036511F0BCFD06B070BD62
:10C2600031C6020030B50A4691B0897953790391FD
:10C2700011790293D378094D094C01910093937879
:10C28000527801280CBF2946214604A818F080F9ED
:10C2900004A9044808F08CF811B030BD04830400F0
:10C2A00034830400448500202DE9F043D1B00B789D
:10C2B000032B04AF0D460446904668D95A08022A5B
:10C2C0005ED14F4A4F49504BDFF84891012818BFC3
:10C2D00011460022381D08F043FA4B4907F1680067
:10C2E00008F074F907F1CC0611E00246414607F167
:10C2F000680008F05DFA08F1380229464846FEF762
:10C30000D7FC044678BB07F1680008F0C7FA0022A2
:10C31000391D304608F0F4FA07F1D0000DC8D7F8FF
:10C32000DC10D7F8E4407B67D7F8E83097F8E0C036
:10C33000F8663A67B967412207F1EC0107F1880016
:10C34000C7E9204387F87CC017F06CFA07F1680052
:10C3500008F0D0FA044607F1680044B108F0D6F8B6
:10C360005028D0D1C1E707F1680008F097FA381DCE
:10C3700008F094FA204607F59A77BD46BDE8F083A9
:10C380000024204607F59A77BD46BDE8F083E946CC
:10C390008CB08979AB786A780391697902912979AF
:10C3A00001911A4E1A49E878009004AD012C08BF9B
:10C3B0003146284607F1CC0618F0EAF81249304613
:10C3C00008F004F929463046002208F0ADF9044689
:10C3D00050B90024304608F061FA2046CD4607F5F2
:10C3E0009A77BD46BDE8F083304608F08FF8021E0C
:10C3F000EFDD92B24146304608F0DAF9EAE700BFD5
:10C40000F0820400DC8204004485002004830400E0
:10C4100034830400C4660020F0B5ADB095799378FC
:10C42000344E1446527803956579029594F804C009
:10C43000CDF804C0304DE478009404AF0C460128D8
:10C440000CBF3146294607F10C0018F0A1F82B4B20
:10C4500007F10C0107F13C00002208F081F907F117
:10C460003C0008F047FA40B9002407F13C0008F00E
:10C4700015FA2046A437BD46F0BD07F13C0008F090
:10C4800045F8051E08DD07F13C0008F0CFF9291832
:10C4900007F13C0008F0ACF907F13C0008F036F871
:10C4A000051E08DD07F13C0008F0C0F9291807F166
:10C4B0003C0008F09DF907F13C0008F027F800283F
:10C4C000D2DDC31D23F007036D46ADEB030D82B231
:10C4D00004A907F13C00C7E9001208F069F92046F9
:10C4E000D7E900120323FFF76BFEB0FA80F464096A
:10C4F000AD46BAE704830400348304004485002079
:10C50000F0B5B5B092F84E5092F84A30434E14460A
:10C5100092F84920039594F84D50029594F84C50A8
:10C52000019594F84B5000950D463D4904AF012804
:10C5300018BF314607F12C0018F02AF8394807F1E6
:10C540002C0107F0C1FE6E4600284AD1354B07F199
:10C550002C0107F15C00012208F002F907F15C00F0
:10C5600008F0C8F918B9C437B546BD46F0BD50212A
:10C5700007F15C0007F0F8FF5022214607F15C004C
:10C5800007F030FF0023294627487B61C7E90333C2
:10C59000C7E90633C7E90833BB62FFF731FD07F18E
:10C5A0000C012022FDF76CFE3B7B03B307F10C006E
:10C5B00018F043F8013082B2C1B207F15C007A6032
:10C5C00007F0D2FF7A6807F10C0107F15C0007F071
:10C5D00009FF07F15C0008F061F9C437B546BD46B4
:10C5E000F0BD07F12C010F4807F0E2FEAEE794F82A
:10C5F000491094F84D3094F84E20039194F84A1065
:10C60000029194F84B10019194F84C10009107F1AD
:10C610000C00064917F0BCFFC8E700BF34830400D4
:10C620000483040044850020A46600206483040081
:10C630002DE9F043ADB00C4604AF002103230646BC
:10C640001546204607F10A027981FFF7BBFD7B8979
:10C65000E84623B9A437C546BD46BDE8F083073395
:10C66000DB08A8EBC3039D460DF11009204607F136
:10C670000A0249460323FFF7A5FD04460028E9D135
:10C68000A979AB786A780391697902912979019146
:10C690003D483E49ED780095012E08BF014607F15F
:10C6A0000C0017F075FF3A4B07F10C0107F13C0045
:10C6B000012208F055F807F13C0008F01BF90028AA
:10C6C000C8D0214607F13C0008F092F807F13C0081
:10C6D00007F01CFF041E08DD07F13C0008F0A6F877
:10C6E000211807F13C0008F083F807F13C0007F03F
:10C6F0000DFF041E08DD07F13C0008F097F8211833
:10C7000007F13C0008F074F807F13C0007F0FEFE6A
:10C710007C8980B2A04213D0E1B207F13C0007F05F
:10C7200023FF2246494607F13C0007F05BFE07F174
:10C730003C0008F0B3F8A437C546BD46BDE8F08319
:10C74000E31D6D46DB08A5EBC3039D4604A9224605
:10C7500007F13C00796008F02BF879687A8948463F
:10C7600017F052F808B9AD46E1E707F13C0008F0D0
:10C7700079F87B89DB43191807F13C0008F038F899
:10C78000AD467C89C8E700BF0483040034830400FD
:10C790004485002038B590F8E8500DB1284638BDE2
:10C7A000012380F8E830044613F062FB0028F5D13D
:10C7B0002046BDE8384000F0ADB800BF10B5044CCD
:10C7C000204600F0A3F8002384F8E83010BD00BF35
:10C7D000306E002003680A689A4201D0002070473A
:10C7E00070B5044684B04FF453700D460EF016FA3F
:10C7F0000646B0B10C4800F0ABF8234604350021E2
:10C8000053F8042B0095CDE90161084913F0CAF9EA
:10C81000044630460EF01CFAB4FA84F0400904B025
:10C8200070BD002004B070BD306E002081E90300AF
:10C83000F0B585B006464FF453700D461746039386
:10C840000EF0ECF978B1044600903A46281D311DEF
:10C8500003AB13F025FA054620460EF0F9F915B999
:10C86000039805B0F0BD002005B0F0BD00220260C5
:10C87000704700BF10B50446084613F083FA2060E5
:10C88000003818BF012010BD00220260704700BFB1
:10C8900010B50446084613F075FA2060003818BF3A
:10C8A000012010BD00230360704700BF00B583B0B6
:10C8B0000430019201AB0A46042113F0EDF818B9D7
:10C8C000019803B05DF804FB002003B05DF804FBA1
:10C8D000F0B5044683B04FF463700E4617460EF071
:10C8E0009DF9054678B1019054F8040B00943A463E
:10C8F0003146012313F00CF8044628460EF0A8F93F
:10C90000B4FA84F0400903B0F0BD00BF002280F803
:10C91000E420704770B590F8E4400CB1204670BD3B
:10C92000012380F8E43005464FF4BF500EF076F94D
:10C9300006460028F2D03146284612F00DFA044689
:10C94000B4FA84F4304664090EF082F9204670BDD2
:10C95000704700BF0146014800F0FCBA3C6F002060
:10C9600038B5064B1D783DB100242046013400F057
:10C970005DFEE0B28542F9D838BD00BF386F0020B7
:10C98000007EFF280AD010B500F0EAFD044608B189
:10C99000204610BD11F03EF9204610BD0020704722
:10C9A000007EFF280ED000B583B00DF1070100F026
:10C9B00033FE20B19DF8070003B05DF804FB4FF093
:10C9C000FF30F9E74FF0FF30704700BF007EFF28CF
:10C9D0000FD000B583B001220DF1070100F0CCFDAE
:10C9E00020B19DF8070003B05DF804FB4FF0FF3065
:10C9F000F9E74FF0FF307047007EFF2801D000F0CC
:10CA000015BE7047007EFF2801D000F07DBE0020DB
:10CA1000704700BFF8B50646007EFF281CD01746B9
:10CA20005AB10D46144600F077FD2946224680B1E2
:10CA3000307E00F045FE241A01D13846F8BD054489
:10CA400011F0E8F8307E00F067FD29462246002804
:10CA5000EED13F1B3846F1E70020F8BD002A00F078
:10CA600093802DE9F041494991F81C7191F81D61BD
:10CA700091F81E8192B01D46B81C08F101031446BE
:10CA8000B21C81F81C0181F81D2181F81E3101A81A
:10CA90004222002116F0EEFE412D71D97B1CDBB243
:10CAA0008DF81E308DF827308DF8313040F6083281
:10CAB0000223ADF804208DF807308DF812308DF880
:10CAC00033308DF83B3040F2022240F20943ADF89A
:10CAD0000820ADF80C3040F201224FF4A063ADF80D
